:020000040800F2
:1000000000000220DD2300082D2300082F23000814
:1000100031230008332300083523000800000000C6
:10002000000000000000000000000000A1450008E2
:1000300037230008000000000146000839230008AB
:100040002D2400082D2400082D2400082D2400084C
:100050002D2400082D2400082D2400082D2400083C
:100060002D2400082D2400082D2400082D2400082C
:100070002D2400082D2400082D2400082D2400081C
:100080002D2400082D2400082D2400082D2400080C
:100090002D2400082D2400082D2400082D240008FC
:1000A0002D2400082D2400082D2400089923000881
:1000B0002D240008B92300082D2400082D24000851
:1000C0002D2400082D2400082D2400082D240008CC
:1000D0002D240008552300082D2400082D24000895
:1000E0002D2400082D2400082D2400082D240008AC
:1000F0002D2400082D2400082D2400082D2400089C
:100100002D2400082D2400082D2400082D2400088B
:100110002D2400082D240008A92300082D24000800
:100120002D2400082D2400082D2400082D2400086B
:100130002D2400082D2400082D2400082D2400085B
:100140002D2400082D2400082D2400082D2400084B
:100150002D2400082D2400082D2400082D2400083B
:100160002D2400082D2400082D2400082D2400082B
:100170002D2400082D2400082D2400080000000074
:080180002D2400082D240008C5
:1001900010B5054C237833B9044B13B10448AFF3C1
:1001A00000800123237010BD6405002000000000C2
:1001B0006052000808B5034B1BB103490348AFF375
:1001C000008008BD000000006805002060520008A3
:1001D00081F0004102E000BF83F0004330B54FEAF8
:1001E00041044FEA430594EA050F08BF90EA020F65
:1001F0001FBF54EA000C55EA020C7FEA645C7FEAF8
:10020000655C00F0E2804FEA5454D4EB5555B8BF1A
:100210006D420CDD2C4480EA020281EA030382EA8B
:10022000000083EA010180EA020281EA0303362D1D
:1002300088BF30BD11F0004F4FEA01314FF4801CF0
:100240004CEA113102D0404261EB410113F0004F02
:100250004FEA03334CEA133302D0524263EB4303B9
:1002600094EA050F00F0A780A4F10104D5F1200E57
:100270000DDB02FA0EFC22FA05F2801841F10001B2
:1002800003FA0EF2801843FA05F359410EE0A5F186
:1002900020050EF1200E012A03FA0EFC28BF4CF0B7
:1002A000020C43FA05F3C01851EBE37101F000456D
:1002B00007D54FF0000EDCF1000C7EEB00006EEB7A
:1002C0000101B1F5801F1BD3B1F5001F0CD3490804
:1002D0005FEA30004FEA3C0C04F101044FEA44525B
:1002E00012F5800F80F09A80BCF1004F08BF5FEAE2
:1002F000500C50F1000041EB045141EA050130BDC2
:100300005FEA4C0C404141EB0101013C28BFB1F5D3
:10031000801FE9D291F0000F04BF01460020B1FA1E
:1003200081F308BF2033A3F10B03B3F120020CDAF1
:100330000C3208DD02F1140CC2F10C0201FA0CF0CF
:1003400021FA02F10CE002F11402D8BFC2F1200C34
:1003500001FA02F120FA0CFCDCBF41EA0C019040EA
:10036000E41AA2BF01EB0451294330BD6FEA040433
:100370001F3C1CDA0C340EDC04F11404C4F120021E
:1003800020FA04F001FA02F340EA030021FA04F330
:1003900045EA030130BDC4F10C04C4F1200220FA87
:1003A00002F001FA04F340EA0300294630BD21FAC5
:1003B00004F0294630BD94F0000F83F4801306BF8B
:1003C00081F480110134013D4EE77FEA645C18BF7F
:1003D0007FEA655C29D094EA050F08BF90EA020F16
:1003E00005D054EA000C04BF1946104630BD91EA0E
:1003F000030F1EBF0021002030BD5FEA545C05D111
:100400004000494128BF41F0004130BD14F580044F
:100410003CBF01F5801130BD01F0004545F0FE41C3
:1004200041F470014FF0000030BD7FEA645C1ABFF8
:10043000194610467FEA655C1CBF0B46024650EA2F
:10044000013406BF52EA033591EA030F41F400215B
:1004500030BD00BF90F0000F04BF0021704730B5E1
:100460004FF4806404F132044FF000054FF00001B6
:1004700050E700BF90F0000F04BF0021704730B577
:100480004FF4806404F1320410F0004548BF40424C
:100490004FF000013EE700BF42004FEAE2014FEAA1
:1004A00031014FEA02701FBF12F07F4393F07F4F7C
:1004B00081F06051704732F07F4208BF704793F07F
:1004C0007F4F04BF41F40021704730B54FF4607492
:1004D00001F0004521F000411CE700BF50EA010295
:1004E00008BF704730B54FF000050AE050EA01023E
:1004F00008BF704730B511F0004502D5404261EBAE
:1005000041014FF4806404F132045FEA915C3FF4EE
:10051000D8AE4FF003025FEADC0C18BF03325FEA8B
:10052000DC0C18BF033202EBDC02C2F1200300FA3C
:1005300003FC20FA02F001FA03FE40EA0E0021FA61
:1005400002F11444BDE600BF4FEA410212F5001269
:1005500015D211D56FF47873B3EB625212D94FEA0A
:10056000C12343F0004343EA505311F0004F23FAF4
:1005700002F018BF404270474FF00000704750EA49
:10058000013005D111F0004008BF6FF00040704706
:100590004FF00000704700BF53B94AB9002908BFA7
:1005A00000281CBF4FF0FF314FF0FF3000F074B94E
:1005B000ADF1080C6DE904CE00F006F8DDF804E0BA
:1005C000DDE9022304B070472DE9F047089D044699
:1005D0008E46002B4DD18A42944669D9B2FA82F2F6
:1005E00052B101FA02F3C2F1200120FA01F10CFA32
:1005F00002FC41EA030E94404FEA1C48210CBEFB6A
:10060000F8F61FFA8CF708FB16E341EA034306FBF2
:1006100007F199420AD91CEB030306F1FF3080F081
:100620001F81994240F21C81023E63445B1AA4B2CE
:10063000B3FBF8F008FB103344EA034400FB07F770
:10064000A7420AD91CEB040400F1FF3380F00A81B1
:10065000A74240F207816444023840EA0640E41BA6
:1006600000261DB1D4400023C5E900433146BDE852
:10067000F0878B4209D9002D00F0EF800026C5E9F4
:10068000000130463146BDE8F087B3FA83F6002E0C
:100690004AD18B4202D3824200F2F980841A61EB84
:1006A000030301209E46002DE0D0C5E9004EDDE7A2
:1006B00002B9FFDEB2FA82F2002A40F09280A1EB8A
:1006C0000C014FEA1C471FFA8CFE0126200CB1FBDF
:1006D000F7F307FB131140EA01410EFB03F08842D8
:1006E00008D91CEB010103F1FF3802D2884200F265
:1006F000CB804346091AA4B2B1FBF7F007FB1011F7
:1007000044EA01440EFB00FEA64508D91CEB040494
:1007100000F1FF3102D2A64500F2BB800846A4EBEF
:100720000E0440EA03409CE7C6F12007B34022FADA
:1007300007FC4CEA030C20FA07F401FA06F31C4309
:10074000F9404FEA1C4900FA06F3B1FBF9F8200C16
:100750001FFA8CFE09FB181140EA014108FB0EF05C
:10076000884202FA06F20BD91CEB010108F1FF3AAC
:1007700080F08880884240F28580A8F102086144B8
:10078000091AA4B2B1FBF9F009FB101144EA0141C6
:1007900000FB0EFE8E4508D91CEB010100F1FF3471
:1007A0006CD28E456AD90238614440EA0840A0FB09
:1007B0000294A1EB0E01A142C846A64656D353D0DF
:1007C0005DB1B3EB080261EB0E0101FA07F722FA03
:1007D00006F3F1401F43C5E9007100263146BDE82C
:1007E000F087C2F12003D8400CFA02FC21FA03F38F
:1007F000914001434FEA1C471FFA8CFEB3FBF7F010
:1008000007FB10360B0C43EA064300FB0EF69E4234
:1008100004FA02F408D91CEB030300F1FF382FD2CD
:100820009E422DD9023863449B1B89B2B3FBF7F675
:1008300007FB163341EA034106FB0EF38B4208D94E
:100840001CEB010106F1FF3816D28B4214D9023E8F
:100850006144C91A46EA004638E72E46284605E7AD
:100860000646E3E61846F8E64B45A9D2B9EB02087E
:1008700064EB0C0E0138A3E74646EAE7204694E70E
:100880004046D1E7D0467BE7023B614432E7304641
:1008900009E76444023842E7704700BF00B589B0F9
:1008A00000220192144B196B41F008011963196B76
:1008B00001F00801019101990292196B41F01001B8
:1008C00019631B6B03F010030293029B4FF48073B8
:1008D00003930123049302230693059203A9074877
:1008E00001F096FE0423039303A9054801F090FE4E
:1008F00009B05DF804FB00BF00380240000C024064
:100900000010024008B501224FF48071014801F047
:1009100078FF08BD000C024008B5012204210248FE
:1009200001F06FFF08BD00BF0010024010B50C467B
:10093000104B1880C0F3C323022B06D00E4B1C8033
:10094000C4F3C323032B0AD010BD01460B4801F0AA
:100950006FFC084B19880A4801F06AFCEEE7214653
:10096000064801F065FC044B1988054801F060FC5D
:10097000EAE700BF82050020840500200030014026
:10098000003C004008B501F031FCFFF787FFFFF79E
:10099000B9FFFFF7C1FF4FF4FA7001F09BFD41F67C
:1009A0009010064B188041F60801054B1980FFF79F
:1009B000BDFF044B4FF410421A8008BD8205002091
:1009C000840500208005002008B50322012136207F
:1009D00001F0ACFD362001F0E1FD08BD10B582B09C
:1009E000002301930E4A116C41F010011164126C46
:1009F00002F010020192019A0A4C0B4A22604CF25A
:100A00004F32E26040F28F626260A3602361204651
:100A100002F0D2FC204602F067FB02B010BD00BF1E
:100A200000380240880500200010004008B5FFF79C
:100A3000CBFFFFF7D3FF08BD10B58AB000220092AC
:100A40002C4B196B41F002011963196B01F0020183
:100A5000009100990192196B41F020011963196B03
:100A600001F02001019101990292196B41F02001DE
:100A70001963196B01F02001029102990392196B1D
:100A800041F020011963196B01F0200103910399D2
:100A90000492196B41F0200119631B6B03F02003D2
:100AA0000493049B022305930692079305A9124819
:100AB00001F0AEFD4FF400630593104C05A92046EC
:100AC00001F0A6FD4FF40053059305A9204601F05F
:100AD0009FFD4FF48043059305A9204601F098FD42
:100AE0004FF40043059305A9204601F091FD0AB09B
:100AF00010BD00BF00380240000402400014024054
:100B000070B505460C4601F075FE064638B921461B
:100B1000284601F06FFE0028F9D0304670BD01264E
:100B2000FBE700002DE9F0438BB0002201922A4B35
:100B3000196B41F040011963196B01F040010191FB
:100B400001990292196B41F040011963196B01F090
:100B50004001029102990392196B41F0100119634F
:100B6000196B01F010010391039904921A6B42F082
:100B700010021A631B6B03F010030493049B0126FD
:100B800005960696079603230893144D05A9284653
:100B900001F03EFD4FF00209CDF8149005A928465A
:100BA00001F036FD4FF08008CDF814800C4C05A9FB
:100BB000204601F02DFD4FF48077059705A92046CA
:100BC00001F026FDAE61C5F81890C4F81880A76141
:100BD0000BB0BDE8F08300BF0038024000180240AF
:100BE0000010024010B50E4B01221A730D4C00216B
:100BF000204602F0B9FD0021204602F077FF0421D3
:100C0000204602F0B1FD0421204602F06FFF0821CA
:100C1000204602F0A9FD0821204602F067FF10BD22
:100C2000D0050020C006002038B500250D4B1D73EF
:100C30000D4C2946204602F019FE2946204602F0B6
:100C4000D1FF0421204602F011FE0421204602F0CB
:100C5000C9FF0821204602F009FE0821204602F0C3
:100C6000C1FF38BDD0050020C0060020F3EE0E7A8B
:100C700080EE270A7047000010B588B0002200926D
:100C80001C4B196B41F004011963196B01F004014D
:100C9000009100990192196B41F004011963196BDD
:100CA00001F004010191019902921A6B42F00402D1
:100CB0001A631B6B03F004030293029B402303930C
:100CC000022304930122059207930B4C03A92046AB
:100CD00001F09EFC8023039303A9204601F098FCB9
:100CE0004FF48073039303A9204601F091FC08B0F0
:100CF00010BD00BF003802400008024010B586B0A9
:100D000000240194124B1A6C42F002021A641B6C0C
:100D100003F002030193019B0E480F4B0360532322
:100D2000436084604FF6FE73C360046103940A233A
:100D300002930493059402A902F0EEFD22460121DC
:100D40001D2001F0F3FB1D2001F028FC06B010BDB2
:100D5000003802400807002000040040F0B58DB0C4
:100D6000002401943D4B1A6B42F001021A631A6B86
:100D700002F001020192019A02941A6B42F00202FF
:100D80001A631A6B02F002020292029A03941A6B1F
:100D900042F001021A631A6B02F001020392039AF5
:100DA00004941A6B42F002021A631A6B02F00202F8
:100DB0000492049A05941A6B42F001021A631A6BAA
:100DC00002F001020592059A06941A6B42F00202A3
:100DD0001A631B6B03F002030693069B0994022619
:100DE0000A96089601250B954FF4005307931C4F64
:100DF00007A9384601F00CFC4FF48043079307A97C
:100E0000384601F005FC4FF40043079307A9384624
:100E100001F0FEFB08964FF4807307930B95114E7B
:100E200007A9304601F0F4FB4FF4007307930B95CC
:100E300007A9304601F0ECFB4FF4806307930B9554
:100E400007A9304601F0E4FB224621461B2001F0B1
:100E50006DFB1B2001F0A2FB0DB0F0BD003802407D
:100E60000004024000000240F0B583B00025019567
:100E7000374B5A6C42F001025A645B6C03F0010379
:100E80000193019B334C344B236041F26703E360D1
:100E9000656025616027A76001236361204602F039
:100EA000B7FA2E494FF480560E60204602F0CDFB73
:100EB0002B490D604D60204602F0D0FE29490D609F
:100EC0004D608D60CD600E614FF400534B61CD617C
:100ED000204602F009FF244E37607560B560F5606A
:100EE0007561B5612A463146204602F0F5FA0422C2
:100EF0003146204602F0F0FA08223146204602F040
:100F0000EBFA41F2660373600C223146204602F090
:100F1000E3FA2946204602F027FC2946204602F043
:100F2000E5FD0421204602F01FFC0421204602F0CA
:100F3000DDFD0821204602F017FC0821204602F0C2
:100F4000D5FD2268D36843F01003D36003B0F0BD31
:100F500000380240C0060020000001407C0600204E
:100F60008C0600205C0600209406002008B5FFF7E0
:100F700083FEFFF7C3FE08BD08B506480368DA68BC
:100F800042F04002DA60DA6842F00102DA6002F010
:100F90002DFD08BD0807002008B508480368DA6879
:100FA00022F04002DA60DA6822F00102DA6002F030
:100FB0007BFD034B00229A6008BD00BF080700209C
:100FC000D005002010B540210C4801F013FC044668
:100FD00000B101248021094801F00CFC10B144F05B
:100FE0000204E4B24FF48071044801F003FC10B134
:100FF00044F00404E4B2204610BD00BF00080240E3
:1010000008B5FFF7ABFEFFF72FFFFFF7AFFF08BDF7
:1010100010B50446FFF7D6FF134B9C4200D010BD1D
:10102000124A536983F0800353612368596B104A55
:1010300013680B4413600F4A1368013313600E4B9F
:101040001B680E4AD25C0E4B1B689A4207D00D4BB0
:1010500001221A70084B1A68094B1A60DFE7094B26
:1010600000221A70F6E700BF0807002000100240B7
:10107000BC060020B8060020B40600207852000804
:1010800058060020B00600200F4B1A680F4B1B6853
:10109000002B18BF002A13D00C4B93ED007AB8EE4A
:1010A000477A0949D1ED007AF8EE677AC7EE276AE8
:1010B00000220A601A60DFED067A87EEA60A704702
:1010C0009FED040A704700BFB8060020BC06002050
:1010D00000247449000000002DE9F04F83B004465D
:1010E000674B984206D0674B984200F0B68003B039
:1010F000BDE8F08F644E3388DBB2DFF8B4B1634FE4
:1011000039881BF8030000F0A1F9614BB3F90030F6
:10111000396800FB0310DFF89CA1DAF8003003FB0C
:1011200000F05C4D85FB0023C017C0EBA3030093C8
:10113000DFF87091B9F80030DBB289B21BF8030018
:1011400000F084F9544BB3F90030396800FB031008
:10115000DAF8003003FB00F085FB0023C017C0EB7A
:10116000A3020192DFF84081B8F80030DBB289B207
:101170001BF8030000F06AF9484BB3F900203B6804
:1011800000FB0230DAF8003003FB00F085FB0015AD
:10119000C017C0EBA5002268BDF800305363226879
:1011A000BDF804309363236880B2D86333889BB260
:1011B00001339BB23380B9F800309BB201339BB24C
:1011C000A9F80030B8F800309BB201339BB2A8F800
:1011D0000030328892B2324B1B689A4231DB2C4A83
:1011E0004FF6FF7111802F4A128892B293422CDC85
:1011F000294A4FF6FF7111802B4A128892B293420E
:1012000027DC264A4FF6FF7111801F4A128892B2DE
:101210005900B2EB430F02DB1B4B00221A80214B1B
:101220001B889BB2994202DC1E4B00221A801E4B87
:101230001B889BB299423FF75AAF1B4B00221A8082
:1012400055E7134A01211180CDE7134A012111808E
:10125000D2E7124A01211180D7E7FFF715FFB2EE5E
:10126000087AC0EE077A9FED117A67EE877AFDEE75
:10127000E77A17EE901A172000F0A6FC37E700BFB8
:10128000C006002088050020500700200400002030
:1012900008000020ABAAAA2A0A0000200C000020A7
:1012A0001C000020180000201A00002000007042DE
:1012B00020000020100000201C4BD3ED006AF8EE47
:1012C000E66A66EE806A76EEA66AB5EE400AF1EE50
:1012D00010FA29D0DFED167AB7EE007A77EE877A2A
:1012E0009FED147A87EE276A86EE267ABCEEC77ADF
:1012F00017EE103A5A089FED107AF4EEC77AF1EE25
:1013000010FA11DCB2F5803FE6D2B7EE007A77EE44
:10131000C77A0A490868FCEEE77AC0ED0A7AC26229
:10132000CA609B08064A1360704700BF1C0000207B
:1013300000000000A037204D00FF7F47C0060020BE
:10134000040000201A4B1B889BB2C0B9AB33194A6A
:101350001268520093FBF2F102FB11339BB2164963
:101360000B800B889BB2AB3393FBF2F102FB113382
:101370009BB2124A1380124B00221A717047AB3392
:101380000C4A1268520093FBF2F102FB11339BB23C
:101390000A490B800B889BB2AB3393FBF2F102FB43
:1013A00011339BB2044A1380054B01221A71704716
:1013B000500700201C000020180000201A00002008
:1013C000D005002010B52DED028BB0EE408AB5EEB1
:1013D000C00AF1EE10FA0ADCB5EEC00AF1EE10FA1E
:1013E00018D40024174B1C60BDEC028B10BDFFF716
:1013F00063FF154B93ED000A28EE008ABCEEC88A05
:1014000018EE103A9CB2182C00D918240120FFF7CE
:1014100099FFE7E7B1EE408AB0EE480AFFF74CFFCC
:10142000094BD3ED007A28EE278ABCEEC88A18EE65
:10143000103A9CB2182C00D918240020FFF782FF24
:10144000D0E700BF100000201400002001FB00F0D6
:10145000044981FB00310144C017C0EBE11080B2A8
:10146000704700BF8180808082B00190BDF9042068
:1014700045F2301303FB02F2BDF906106D4B03FB7E
:1014800001F1501843108A1A4FEA620CB0F1FF3F85
:101490001BDBB2F1FF3FC0F28B80B3EB0C0378D4BF
:1014A0009B1403F634039446002A77DB03EBAC4C21
:1014B0000246002877DBA3EBA2425F490B80A1F82C
:1014C00002C08A80002002B07047B2F1FF3F11DBFA
:1014D00000292FDD5B1A4DD49B1403F6340302461A
:1014E00000284CDBA3EBA2428C4600294CDB02EB2C
:1014F0006C4CE2E7B3EB0C030DD49B1403F63403FE
:101500009446002A0CDB03EBAC4C024600280CDBB3
:10151000A3EBA242D1E703F57F3303F2FF33ECE7FD
:1015200002F57F3C0CF2FF3CEDE700F57F3202F262
:10153000FF32EDE7B1EB0C030DD49B1403F634033B
:101540009446002A0CDB03EBAC4C0A4600290CDB6A
:10155000ACEB6242B1E703F57F3303F2FF33ECE714
:1015600002F57F3C0CF2FF3CEDE701F5FF3202F2A1
:10157000FF12EDE703F57F3303F2FF33ACE700F52D
:101580007F3202F2FF32ADE701F5FF3C0CF2FF1CA7
:10159000ADE703F57F3303F2FF3381E702F57F3CCC
:1015A0000CF2FF3C82E700F57F3202F2FF3282E765
:1015B000002910DDB1EB0C032CD49B1403F634038B
:1015C0009446002A2BDB03EBAC4C0A4600292BDBAC
:1015D000ACEB624271E75B1A0DD49B1403F6340343
:1015E000024600280CDBA3EBA2428C4600290CDB50
:1015F00002EB6C4C61E703F57F3303F2FF33ECE75A
:1016000000F57F3202F2FF32EDE701F5FF3C0CF20C
:10161000FF1CEDE703F57F3303F2FF33CDE702F55F
:101620007F3C0CF2FF3CCEE701F5FF3202F2FF12E5
:10163000CEE700BF60BEFFFF5407002030B583B087
:1016400000230193037F082B01D003B030BD044673
:10165000344DB5F90000FEF70DFF0022324BFEF7C6
:10166000BDFDFEF771FF00B22880C0F38913C0F3FF
:101670008130032853D8DFE800F002243442DBB283
:101680002A4830F9132045F69A1101FB02F2DB4398
:10169000DBB230F9133001FB03F31214ADF8042070
:1016A0001B14ADF806300198FFF7DEFE2268204BD0
:1016B0001988516322685988916322689B88D36393
:1016C000C3E7DBB2DA43D2B2184931F9122045F64A
:1016D0009A1000FB02F231F91330164901FB03F3B3
:1016E000DBE7DBB2114830F91320124901FB02F2AB
:1016F000DB43DBB230F9133001FB03F3CDE7DBB2A0
:10170000DA43D2B2094931F912200A4800FB02F249
:1017100031F9133045F69A1101FB03F3BDE70023BD
:101720001A46BAE752070020004065408052000880
:101730005407002066A6FFFF1E4B1B781E4A127836
:101740009A4234D01D4AD25CAA2A0BD001335A42A5
:1017500003F07F0302F07F0258BF5342154A137013
:101760000020704701335A4203F07F0302F07F02EA
:1017700058BF5342DBB2114AD25C552A0BD0013319
:101780005A4203F07F0302F07F0258BF5342094AD6
:1017900013700020704701335A4203F07F0302F0B8
:1017A0007F0258BF5342034A137001207047002044
:1017B000704700BF1C0800201D0800209C07002067
:1017C000F0B589B000250095284B5A6C42F0100204
:1017D0005A645A6C02F010020092009A01951A6B3A
:1017E00042F002021A631A6B02F002020192019A9D
:1017F00002951A6B42F002021A631B6B03F002039C
:101800000293029B802303930223049301260596EF
:101810000323069307270797154C03A9204600F0DA
:10182000F7FE40230393079703A9204600F0F0FE3C
:10183000104C114B2360A5604FF4E1336360E56009
:1018400025610C236361204602F085FC2268D36881
:1018500043F02003D36032463146252000F066FE77
:10186000252000F09BFE09B0F0BD00BF003802400B
:10187000000402405C070020001001400C4B93F86C
:1018800000C00CF101035A4203F07F0302F07F0213
:1018900058BF5342DBB2074A12789A4205D000F88B
:1018A0000C10034A1370002070470120704700BFDE
:1018B0001D0800201C08002000B586464FF0000CD3
:1018C0004FF6FF700FE0400080B20133072B08DCB9
:1018D00010F4004FF7D048F2050282EA400080B2CF
:1018E000F3E70CF1010C8C4505DA1EF80C3080EAA8
:1018F00003200023EAE75DF804FB84460023184632
:1019000006E01CF80320D9008A40104380B201335E
:10191000032BF6DD7047000030B585B0FFF70CFFF4
:1019200000284AD0274B1C78AA238DF80430552371
:101930008DF80530244B1B5D8DF80630032310E035
:101940000134624204F07F0402F07F0258BF544227
:10195000E4B21D4A115D03F110026A4402F80C1C46
:1019600001330A2BECDD0B2101A8FFF7A5FF05468B
:10197000002310E00134624204F07F0402F07F0291
:1019800058BF5442E4B2104A115D03F110026A4498
:1019900002F8101C0133012BECDD6846FFF7ADFFA8
:1019A00085420CD00134634204F07F0403F07F03CE
:1019B00058BF5C42034B1C70002005B030BD0120B5
:1019C000FBE700BF1C0800209C0700204FF0000C24
:1019D00060466146BCF1070F24DC30B5124C237819
:1019E00001335A4203F07F0302F07F0258BF534293
:1019F000DBB223700D4AD35C4FEACC04A4F1200281
:101A0000C4F1200503FA02F223FA05F542EA050EB5
:101A1000A34018434EEA01010CF1010CBCF1070F81
:101A2000DCDD30BD704700BF1C0800209C07002093
:101A300008B52DED028BFFF76FFF012840F0AE8057
:101A400002F0C0FD584B1B78584AD25C103A062A67
:101A500000F2A280DFE802F00418495A6B7B8C0088
:101A6000534B4FF480329A61FFF7B0FF4E490B7829
:101A700003335A4203F07F0302F07F0258BF534200
:101A80000B7002F0AFFDD6E7FFF7A0FF00EE100AE3
:101A9000B8EE400AFFF7EAF8B0EE408AFFF76CFABA
:101AA000FFF7A0F80BE0434B93ED000AB8EEC00A35
:101AB00030EE270A404B83ED000AFFF783FC3E4BD4
:101AC000D3ED007AF4EEC87AF1EE10FAEBD4364991
:101AD0000B7803335A4203F07F0302F07F0258BFB2
:101AE00053420B7002F07EFDA5E7344A4FF400012B
:101AF000916103335A4203F07F0302F07F0258BF23
:101B00005342294A137002F06DFD94E72B4A4FF0BF
:101B10008071916103335A4203F07F0302F07F0228
:101B200058BF5342204A137002F05CFD83E7FFF771
:101B30007BF81D490B780B335A4203F07F0302F008
:101B40007F0258BF53420B7002F04CFD73E7184AF6
:101B50004FF40031916103335A4203F07F0302F0E6
:101B60007F0258BF5342104A137002F03BFD62E7F8
:101B7000124B4FF400029A61012383F31388BFF3E1
:101B80004F8F0F49CA6802F4E0620E4B1343CB60DB
:101B9000BFF34F8F00BFFDE702F024FD4FF0FF3091
:101BA000BDEC028B08BD00BF1C0800209C07002074
:101BB0000018024000000020200100200010024018
:101BC00000ED00E00400FA0500B585B0AA238DF809
:101BD000043055238DF805308DF806008DF8071078
:101BE0000B128DF808300B148DF80930090E8DF8A2
:101BF0000A10072101A8FFF75FFE8DF80B00000A0D
:101C00008DF80C004FF47A73092201A9024802F002
:101C1000D1FA05B05DF804FB5C070020034B0360BC
:101C2000034B0B6080231360704700BF200A002025
:101C30002008002008B5074C4FF48033A3614FF40F
:101C4000FA7003F0C1F90123A3614FF4FA7003F0B5
:101C5000BBF9F0E70018024010B582B002F0B2FC08
:101C6000264B01930423009300234FF40072244970
:101C7000244802F0E1FF012821D0234B01930523E2
:101C8000009300234FF400722049214802F0D4FF52
:101C900001281ED01F4B01930323009300234FF410
:101CA00080621D491D4802F0C7FF01281BD01C4B54
:101CB000186802F0F5FF02F095FC02B010BD194C57
:101CC0004FF40003A3610A2003F07EF98023A3618F
:101CD000D3E7144C4FF40003A3610A2003F074F916
:101CE0008023A361D6E70F4C4FF40003A3610A20C1
:101CF00003F06AF98023A361D9E700BF7C0A0020C2
:101D000080540008351C0008780A00208C54000814
:101D1000391D0008800A002098540008291D000879
:101D2000740A00200010024008B5FFF781FE4FF44E
:101D3000FA7003F049F9F8E738B52DED028B9FED05
:101D4000340AFFF73FFB0120FFF7FCFA00254AE0C9
:101D5000304B4FF080729A619FED2F0AFEF786FF9D
:101D6000B0EE408AFFF708F9FEF73CFF10E00A20CA
:101D700000F0B0FB294B93ED000AB8EEC00A284BE7
:101D8000D3ED007A30EE270A83ED000AFFF71AFB45
:101D9000234BD3ED007AF4EEC87AF1EE10FAE6D4D4
:101DA00085F001054FF400611E48FEF7A9FE58B307
:101DB0004FF400511B48FEF7A3FE28B9154B4FF016
:101DC00080729A61FFF7D8F8164C4FF48041204694
:101DD000FEF796FE4FF400412046FEF791FE4FF4C9
:101DE000FA7003F0F1F802210F48FEF789FE00288F
:101DF000D8D1002DACD0074B4FF480729A61FFF719
:101E0000CBF8FEF711FFCBE7FEF70EFFD0E700BFE0
:101E100000000000001002400000E144000000202B
:101E200020010020001402400004024072B6FEE7C8
:101E300010B594B000240F9410941194129413943C
:101E40003022214603A803F049F90194264B1A6C6D
:101E500042F080521A641B6C03F080530193019B83
:101E60000294224B1A6842F480421A601B6803F401
:101E700080430293029B012303934FF48033049326
:101E8000022309934FF480020A9208220B924FF426
:101E9000A8720C920D9304230E9303A800F0B8FCD3
:101EA000C0B90F230F9302231093002311934FF413
:101EB000A05312934FF48053139305210FA800F001
:101EC0000DFF48B900F01AFB41F20103984205D01A
:101ED00014B010BDFFF7AAFFFFF7A8FF044A13686C
:101EE00043F480731360F3E7003802400070004051
:101EF000003C024008B500F0C1FAFFF799FF00F07E
:101F000083FE0C4BA3FB0030800900F055FB03203F
:101F100000F0FAFAFEF706FEFEF734FDFEF78CFD40
:101F2000FFF74EFCFFF76CF8FEF780FD024801F06A
:101F3000DBF808BDD34D6210C006002000B583B0A9
:101F4000FFF7D8FF0A4B01930123009300234FF4BE
:101F500000720849084802F06FFE012804D04FF0D3
:101F6000FF3003B05DF804FB02F0FCFEFEE700BFAB
:101F7000740A0020A8540008591C0008F0B591B05C
:101F8000002401942E4B5A6C42F480525A645A6CCD
:101F900002F480520192019A02941A6B42F00102FB
:101FA0001A631A6B02F001020292029A03941A6BEE
:101FB00042F001021A631A6B02F001020392039AC3
:101FC00004941A6B42F001021A631A6B02F00102C8
:101FD0000492049A05941A6B42F008021A631B6B70
:101FE00003F008030593059B20230B9302250C9512
:101FF0000E950D9405230F93124E0BA9304600F059
:1020000007FB40230B930BA9304600F001FB802314
:102010000B930BA9304600F0FBFA4FF4806606964E
:102020000127079709950894074C06A9204600F058
:10203000EFFA3A463146204600F0E3FB11B0F0BD1E
:102040000038024000000240000C0240F0B591B0A0
:10205000002401942E4B1A6C42F400421A641A6C4C
:1020600002F400420192019A02941A6B42F00202B9
:102070001A631A6B02F002020292029A03941A6B1C
:1020800042F002021A631A6B02F002020392039AF0
:1020900004941A6B42F002021A631A6B02F00202F5
:1020A0000492049A05941A6B42F040021A631B6B67
:1020B00003F040030593059B08230B9302250C9521
:1020C0000E950D9406230F93124E0BA9304600F087
:1020D0009FFA10230B930BA9304600F099FA2023A6
:1020E0000B930BA9304600F093FA4FF480660696E6
:1020F0000127079709950894074C06A9204600F088
:1021000087FA3A463146204600F07BFB11B0F0BD1D
:1021100000380240000402400018024010B582B0AE
:1021200000230193144A516C41F480515164526C64
:1021300002F480520192019A104C114A2260A3606D
:102140004FF4827262600F22E2624FF40062E2603A
:1021500023621822E2614FF40072A261236101231D
:102160006361204600F091FE2268136843F040034B
:10217000136002B010BD00BF00380240840A002086
:102180000030014010B582B000230193144A116C55
:1021900041F400411164126C02F400420192019A70
:1021A000104C114A2260A3604FF4827262600F22C9
:1021B000E2624FF40062E26023621822E2614FF4AF
:1021C0000072A261236101236361204600F05DFE7D
:1021D0002268136843F04003136002B010BD00BFD3
:1021E00000380240DC0A0020003C004008B5FFF740
:1021F000C5FEFFF72BFFFFF791FFFFF7C3FF08BDF9
:1022000038B504460D460221204600F0A2FE002803
:10221000F9D02946204600F097FE0121204600F023
:1022200098FE0028F9D0204600F090FE38BD00004E
:1022300070B50C46284B984227D0284D00224FF409
:102240008061284600F0DDFA254E21463046FFF732
:10225000D7FF01224FF48061284600F0D2FA0A200D
:1022600000F038F900224FF48061284600F0C9FAE6
:1022700021463046FFF7C4FF044601224FF4806137
:10228000284600F0BEFA204670BD164D00224FF4DD
:102290008061284600F0B5FA0F4E21463046FFF720
:1022A000AFFF01224FF48061284600F0AAFA0A200D
:1022B00000F010F900224FF48061284600F0A1FAE6
:1022C00021463046FFF79CFF044601224FF480610F
:1022D000284600F096FAD6E7003001400018024088
:1022E000003C0040000C024000B583B00022009288
:1022F0000D4B596C41F480415964596C01F4804193
:10230000009100990192196C41F0805119641B6C85
:1023100003F080530193019B0F216FF0010000F047
:1023200005F903B05DF804FB00380240FEE7FEE764
:10233000FEE7FEE7FEE7704708B500F0B9F800F0E9
:1023400050F902F097FE012800D108BD02F08AF989
:10235000FBE7000010B50D4B1B685A68DA6812F0F5
:10236000200F09D1094C204601F0F2FF2268D36802
:1023700043F02003D36010BD5968C9B20448FFF789
:102380007DFA024B1B68034A1A60EBE75C070020EA
:102390009C070020DFFFFFEF08B5024800F0EBFECE
:1023A00008BD00BFC006002008B5024800F0E3FEEB
:1023B00008BD00BF8805002008B5024800F0DBFE1C
:1023C00008BD00BF08070020034AD2F8883043F454
:1023D0007003C2F88830704700ED00E0DFF834D0B9
:1023E0000D480E490E4A002302E0D458C45004336D
:1023F000C4188C42F9D30B4A0B4C002301E0136044
:102400000432A242FBD3FFF7DFFF02F043FEFFF7E7
:1024100095FD7047000002200000002064050020A8
:10242000F0540008640500207C9E0020FEE70000B8
:1024300010B504460E4B18784FF47A73B3FBF0F3E3
:102440000C4A1068B0FBF3F000F0B6F868B90F2C36
:1024500001D901200AE0002221464FF0FF3000F0B0
:1024600065F8054B1C60002000E0012010BD00BF96
:1024700028010020240100202C01002008B50B4B6E
:102480001A6842F400721A601A6842F480621A6094
:102490001A6842F480721A60032000F035F80F20A9
:1024A000FFF7C6FFFFF720FF002008BD003C0240F9
:1024B000034A1168034B1B780B441360704700BF3D
:1024C000340B002028010020014B1868704700BF22
:1024D000340B002038B50446FFF7F6FF0546B4F18B
:1024E000FF3F02D0044B1B781C44FFF7EDFF401B5D
:1024F000A042FAD338BD00BF28010020014B186864
:10250000000C7047002004E0074AD36823F4E0631E
:102510001B041B0C000200F4E060034343F0BF63A4
:1025200043F40033D360704700ED00E000B5194B71
:10253000DB68C3F30223C3F1070CBCF1040F28BF0F
:102540004FF0040C03F1040EBEF1060F18D9033B43
:102550004FF0FF3E0EFA0CFC21EA0C0199400EFAF6
:1025600003F322EA0303194300280BDB0901C9B274
:1025700000F1604000F5614080F800135DF804FB55
:102580000023E5E700F00F000901C9B2024B19541E
:10259000F4E700BF00ED00E014ED00E0002807DBE9
:1025A00000F01F02400901239340024A42F8203004
:1025B000704700BF00E100E00138B0F1807F0BD22E
:1025C0004FF0E0235861054AF02182F823100020E3
:1025D000986107221A6170470120704700ED00E002
:1025E000704708B5FFF7FCFF08BD90F83530DBB247
:1025F000022B03D08023436501207047052380F818
:1026000035300268136823F001031360002070471F
:1026100000230F2B00F2E48070B582B060E0856883
:102620005E000324B44025EA0405CC68B4402C4382
:102630008460456825EA02054C68C4F300129A409C
:102640002A4342605AE0DC08083450F8246003F062
:10265000070295000F22AA4026EA020E0A69AA4044
:1026600042EA0E0240F824205CE0072200E000224B
:1026700002FA0EF22A4302345A4D45F824205A4AEF
:1026800094686FEA0C0224EA0C054E6816F4801F69
:1026900001D04CEA0405544CA560E46802EA040544
:1026A0004E6816F4001F01D04CEA04054E4CE5605C
:1026B000646802EA04054E6816F4003F01D04CEA53
:1026C0000405494C6560246822404D6815F4803F3C
:1026D00001D04CEA0402444C226001330F2B7DD818
:1026E00001229A400C6804EA020C32EA0404F4D194
:1026F0004C6804F00304013C012C90D94A6802F0B4
:102700000302032A09D0C4685D000322AA4024EA18
:1027100002048A68AA402243C2604A6802F00302A7
:10272000022A90D004684FEA430E032202FA0EF206
:1027300024EA02044A6802F0030202FA0EF222437B
:1027400002604A6812F4403FC7D000220192274A33
:10275000546C44F480445464526C02F480420192FC
:10276000019A9C08A51C1F4A52F8255003F0030249
:102770004FEA820E0F2202FA0EF225EA02051C4AE7
:1027800090423FF474AF02F5806290421AD002F595
:102790008062904218D002F58062904216D002F515
:1027A0008062904214D002F58062904212D002F50D
:1027B0008062904210D002F5806290423FF455AFA3
:1027C000082255E7012253E7022251E703224FE78F
:1027D00004224DE705224BE7062249E702B070BD0F
:1027E000704700BF00380140003C01400038024003
:1027F000000002400369194201D001207047002007
:1028000070470AB181617047090481617047000017
:10281000002800F0E08170B582B00446036813F030
:10282000010F3BD09F4B9B6803F00C03042B2CD073
:102830009C4B9B6803F00C03082B21D06368B3F515
:10284000803F4FD0B3F5A02F52D0964B1A6822F498
:1028500080321A601A6822F480221A606368002BA2
:1028600050D0FFF731FE05468E4B1B6813F4003F36
:1028700014D1FFF729FE401B6428F5D90320B1E1EC
:10288000884B5B6813F4800FD8D0864B1B6813F419
:10289000003F03D06368002B00F09F81236813F092
:1028A000020F54D07F4B9B6813F00C0F3ED07D4B32
:1028B0009B6803F00C03082B33D0E368002B68D02F
:1028C000794B01221A60FFF7FFFD0546754B1B6827
:1028D00013F0020F54D1FFF7F7FD401B0228F5D982
:1028E00003207FE16F4A136843F480331360B5E738
:1028F0006C4B1A6842F480221A601A6842F48032E3
:102900001A60ABE7FFF7E0FD0546664B1B6813F462
:10291000003FC3D0FFF7D8FD401B6428F5D9032042
:1029200060E1604B5B6813F4800FC6D15D4B1B68A0
:1029300013F0020F03D0E368012B40F05081594A95
:10294000136823F0F803216943EAC1031360236885
:1029500013F0080F42D063696BB3534B0122C3F8E5
:10296000802EFFF7B1FD05464E4B5B6F13F0020F53
:1029700034D1FFF7A9FD401B0228F5D9032031E12E
:10298000484A136823F0F803216943EAC10313603E
:10299000DDE7454B00221A60FFF796FD0546414BE7
:1029A0001B6813F0020FD2D0FFF78EFD401B0228E8
:1029B000F5D9032016E13C4B0022C3F8802EFFF727
:1029C00083FD0546374B5B6F13F0020F06D0FFF710
:1029D0007BFD401B0228F5D9032003E1236813F097
:1029E000040F77D02F4B1B6C13F0805F33D1002383
:1029F00001932C4B1A6C42F080521A641B6C03F04A
:102A000080530193019B0125284B1B6813F4807FA1
:102A100023D0A368012B34D0052B38D0214B1A6F5B
:102A200022F001021A671A6F22F004021A67A368E3
:102A3000002B3DD0FFF748FD06461A4B1B6F13F0E5
:102A4000020F46D1FFF740FD801B41F288339842C8
:102A5000F3D90320C6E00025D6E7144A136843F4EF
:102A600080731360FFF730FD0646104B1B6813F4AC
:102A7000807FCED1FFF728FD801B0228F5D90320E7
:102A8000B0E0084A136F43F001031367CFE7054B2B
:102A90001A6F42F004021A671A6F42F001021A67B5
:102AA000C5E700BF00380240000047420070004008
:102AB000FFF70AFD0646524B1B6F13F0020F08D0BA
:102AC000FFF702FD801B41F288339842F3D90320BF
:102AD00088E0EDB9A369002B00F08380484A926832
:102AE00002F00C02082A51D0022B17D0454B0022CD
:102AF0001A66FFF7E9FC0446414B1B6813F0007FA0
:102B000042D0FFF7E1FC001B0228F5D9032069E061
:102B10003B4A136C23F080531364DBE7394B0022EC
:102B20001A66FFF7D1FC0546354B1B6813F0007F92
:102B300006D0FFF7C9FC401B0228F5D9032051E05D
:102B4000E369226A1343626A43EA8213A26A520863
:102B5000013A43EA0243E26A43EA0263284A5360C5
:102B6000284B01221A66FFF7AFFC0446244B1B6872
:102B700013F0007F06D1FFF7A7FC001B0228F5D950
:102B800003202FE000202DE000202BE0012B2BD094
:102B90001B4B5B6803F48001E269914226D103F08C
:102BA0003F02216A8A4223D1616A47F6C0721A4005
:102BB000B2EB811F1ED103F44031A26A5208013AE0
:102BC000B1EB024F18D103F07063E26AB3EB026F0E
:102BD00014D1002006E001207047012002E001200E
:102BE00000E0002002B070BD0120FBE70120F9E702
:102BF0000120F7E70120F5E70120F3E70120F1E7E5
:102C0000003802400000474208B5314B9B6803F092
:102C10000C03042B57D0082B57D12D4B5A6802F0C8
:102C20003F025B6813F4800F2AD0294B5968C1F327
:102C3000881C4FEA4C11B1EB0C006EEB0E0E4FEA04
:102C40008E1343EA90638101091A63EB0E03DB00E4
:102C500043EA5173C90011EB0C0C43F10003590214
:102C600000234FEA4C2041EADC51FDF795FC184B5C
:102C70005B68C3F3014301335B00B0FBF3F025E075
:102C8000134B5968C1F3881C4FEA4C11B1EB0C008F
:102C90006EEB0E0E4FEA8E1343EA90638101091A20
:102CA00063EB0E03DB0043EA5173C90011EB0C0C1C
:102CB00043F10003990200234FEA8C2041EA9C5122
:102CC000FDF76AFCD3E7034800E0034808BD00BFF6
:102CD0000038024000127A000024F400002800F0BE
:102CE0009B8070B50D4604464F4B1B6803F00703ED
:102CF0008B4208D2CBB24C4A1370136803F007031F
:102D00008B4240F08B80236813F0020F17D013F032
:102D1000040F04D0454A936843F4E053936023685A
:102D200013F0080F04D0414A936843F46043936062
:102D30003E4A936823F0F003A1680B439360236835
:102D400013F0010F32D06368012B21D09A1E012AA3
:102D500025D9364A126812F0020F61D033498A68C9
:102D600022F0030213438B60FFF7AEFB06462F4BA6
:102D70009B6803F00C036268B3EB820F16D0FFF779
:102D8000A3FB801B41F288339842F0D9032042E034
:102D9000264A126812F4003FE0D101203BE0234AAA
:102DA000126812F0007FD9D1012034E01E4B1B685D
:102DB00003F00703AB4207D9EAB21B4B1A701B683A
:102DC00003F00703AB422DD1236813F0040F06D0A4
:102DD000164A936823F4E053E1680B439360236839
:102DE00013F0080F07D0114A936823F46043216958
:102DF00043EAC1039360FFF707FF0C4B9B68C3F3E3
:102E000003130B4AD35CD8400A4B18600A4B18686E
:102E1000FFF70EFB002070BD012070470120FAE78C
:102E20000120F8E70120F6E7003C024000380240AC
:102E3000B8540008240100202C010020014B186820
:102E4000704700BF2401002008B5FFF7F7FF044BCF
:102E50009B68C3F38223034AD35CD84008BD00BFFC
:102E600000380240C854000808B5FFF7E7FF044BDC
:102E70009B68C3F34233034AD35CD84008BD00BF0C
:102E800000380240C8540008704700285AD010B5D6
:102E90000446436A33B94368B3F5827F05D0002303
:102EA000C36102E00023036143610023A36294F83D
:102EB0005130002B40D0022384F85130226813682F
:102EC00023F040031360636803F48273A26802F482
:102ED00004421343E26802F400621343226902F0E1
:102EE00002021343626902F001021343A26902F471
:102EF00000721343E26902F038021343226A02F0BF
:102F000080021343A26A02F40052216813430B604B
:102F1000638B03F00403626A02F01002216813431A
:102F20004B602268D36923F40063D361002060659D
:102F3000012384F8513010BD84F850302046FFF74B
:102F4000A3FFB8E701207047C1607047C06880B236
:102F500070478368194201D00120704700207047F4
:102F600030B4036A23F001030362036A4268846990
:102F700024F073040D682C4323F0020C8B6843EAA1
:102F80000C03104DA84203D005F58065A84205D179
:102F900023F00803CD682B4323F00403094DA84216
:102FA00003D005F58065A84205D122F440724D6931
:102FB0002A438D692A43426084614A6842630362FE
:102FC00030BC70470000014030B4036A23F48073C2
:102FD0000362036A4268C46924F0730C0C6844EA13
:102FE0000C0523F400738C6843EA0423114CA042BF
:102FF00003D004F58064A04206D123F40063CC68BA
:1030000043EA042323F480630A4CA04203D004F56E
:103010008064A04207D122F440524C6942EA041273
:103020008C6942EA04124260C5614A68C263036265
:1030300030BC70470000014030B4036A23F4805371
:103040000362036A4468C26922F4E6420D6842EAF8
:10305000052223F400538D6843EA0533094DA84245
:1030600003D005F58065A84204D124F480444D695D
:1030700044EA85144460C2614A680264036230BC59
:10308000704700BF0000014010B4036A046A24F0D6
:1030900001040462846924F0F00C4CEA021223F06B
:1030A0000A030B43826103625DF8044B704710B45E
:1030B000046A24F0100404628469036A24F4704CE6
:1030C0004CEA023223F0A00343EA01138261036257
:1030D0005DF8044B7047836823F070030B4343F0A3
:1030E000070383607047704790F83D30DBB2012BD7
:1030F00037D1022380F83D300268D36843F00103E2
:10310000D3600368194A934220D0B3F1804F1DD099
:10311000A2F57C42934219D002F58062934215D009
:1031200002F58062934211D002F5784293420DD0AD
:1031300002F57052934209D0A2F59432934205D021
:103140001A6842F001021A60002070479A6802F083
:103150000702062A07D01A6842F001021A6000200E
:103160007047012070470020704700BF00000140F9
:1031700070477047704710B5044603681A6912F02B
:10318000020F11D0DA6812F0020F0DD06FF00202B8
:103190001A610123037703689B6913F0030F70D052
:1031A000FFF7E8FF0023237723681A6912F0040F62
:1031B00012D0DA6812F0040F0ED06FF004021A6118
:1031C0000223237723689B6913F4407F5FD0204656
:1031D000FFF7D0FF0023237723681A6912F0080F46
:1031E00012D0DA6812F0080F0ED06FF008021A61E0
:1031F000042323772368DB6913F0030F4ED02046A6
:10320000FFF7B8FF0023237723681A6912F0100F25
:1032100012D0DA6812F0100F0ED06FF010021A619F
:10322000082323772368DB6913F4407F3DD02046D1
:10323000FFF7A0FF0023237723681A6912F0010F1C
:1032400003D0DA6812F0010F36D123681A6912F040
:10325000800F03D0DA6812F0800F34D123681A6926
:1032600012F0400F03D0DA6812F0400F32D1236819
:103270001A6912F0200F03D0DA6812F0200F30D153
:1032800010BDFFF776FF2046FEF7D8F98AE7204603
:10329000FFF76FFF2046FEF7D1F99BE72046FFF7C7
:1032A00068FF2046FEF7CAF9ACE72046FFF761FF4A
:1032B0002046FEF7C3F9BDE76FF001021A61204610
:1032C000FDF70AFFC1E76FF080021A61204600F0A7
:1032D00035FDC3E76FF040021A612046FDF798FE06
:1032E000C5E76FF020021A61204600F026FDC7E70F
:1032F0000368304A904212D0B0F1804F0FD0A2F54F
:103300007C4290420BD002F58062904207D002F5D9
:103310008062904203D002F57842904203D123F0BC
:1033200070034A681343234A90422AD0B0F1804F79
:1033300027D0A2F57C42904223D002F580629042D1
:103340001FD002F5806290421BD002F57842904275
:1033500017D002F57052904213D002F5806290426D
:103360000FD002F5806290420BD0A2F598329042C5
:1033700007D002F58062904203D002F5806290424D
:1033800003D123F44073CA68134323F080034A69CE
:10339000134303608B68C3620B688362054B9842DA
:1033A00003D003F58063984201D10B6903630123C5
:1033B000436170470000014040B310B5044690F8E7
:1033C0003D30F3B1022384F83D30214651F8040B1F
:1033D000FFF78EFF012384F8463084F83E3084F8EE
:1033E0003F3084F8403084F8413084F8423084F82B
:1033F000433084F8443084F8453084F83D30002070
:1034000010BD80F83C30FFF76EFEDBE7012070470F
:1034100040B310B5044690F83D30F3B1022384F870
:103420003D30214651F8040BFFF762FF012384F879
:10343000463084F83E3084F83F3084F8403084F8D9
:10344000413084F8423084F8433084F8443084F8C2
:10345000453084F83D30002010BD80F83C30FFF747
:1034600087FEDBE70120704730B4036A23F01003C6
:103470000362036A4468826922F4E6420D6842EA04
:10348000052223F020038D6843EA0513114DA8425D
:1034900003D005F58065A84206D123F08003CD68EE
:1034A00043EA051323F040030A4DA84203D005F573
:1034B0008065A84207D124F440644D6944EA85043C
:1034C0008D6944EA8504446082614A6882630362CC
:1034D00030BC70470000014038B590F83C30012BFB
:1034E00066D004460D46012380F83C300C2A5AD899
:1034F000DFE802F0075959591B59595930595959A0
:1035000044000068FFF72CFD2268936943F008032C
:1035100093612268936923F004039361226893699D
:1035200029690B43936100203EE00068FFF79CFF90
:103530002268936943F4006393612268936923F4DA
:103540008063936122689369296943EA0123936147
:10355000002029E00068FFF737FD2268D36943F0B7
:103560000803D3612268D36923F00403D36122687E
:10357000D36929690B43D361002015E00068FFF788
:103580005BFD2268D36943F40063D3612268D36989
:1035900023F48063D3612268D369296943EA012354
:1035A000D361002000E00120002384F83C3038BDC6
:1035B0000220FCE770B49446046A24F0010404621B
:1035C0008469066A184DA8421CD0B0F1804F19D00A
:1035D000164A904216D002F58062904212D002F54F
:1035E000806290420ED002F5784290420AD002F5F5
:1035F0007052904206D0A2F59432904202D044F02C
:10360000010203E024F0030242EA0C0222F0F0027D
:103610001B01DBB2134326F00A0201F00A01114339
:103620008361016270BC70470000014000040040EB
:1036300010B4846824F47F4C42EA03220A4342EA2D
:103640000C0282605DF8044B704790F83C30012B0F
:1036500078D010B50446012380F83C30022380F86E
:103660003D300268936823F47F4323F0770393602F
:103670000B68602B4CD029D8402B54D00CD9502B40
:1036800022D1CA6849680068FFF7FEFC5021206813
:10369000FFF721FD002005E0202B0DD009D9302BAC
:1036A0000AD00120012384F83D30002384F83C3007
:1036B00010BD0BB1102B05D119462068FFF70BFD8B
:1036C0000020EFE70120EDE70120EBE7B3F5805F95
:1036D00034D0B3F5005F0CD1CB684A6889680068C4
:1036E000FFF7A6FF2268936843F4804393600020AD
:1036F000D8E7702B24D1CB684A6889680068FFF747
:1037000097FF2268936843F0770393600020C9E72E
:10371000CA6849680068FFF7CAFC60212068FFF7A3
:10372000DAFC0020BEE7CA6849680068FFF7ACFC15
:1037300040212068FFF7CFFC0020B3E70020B1E76D
:103740000120AFE70220704701F01F01012303FAB7
:1037500001FC036A23EA0C030362036A02FA01F123
:103760000B4303627047000010B504460846002969
:1037700042D194F83E30DBB2013B18BF0123002B4D
:103780006ED1002851D1022384F83E300122014637
:103790002068FFF7D9FF2368334A934203D002F52C
:1037A0008062934203D15A6C42F400425A64236807
:1037B0002D4A934249D0B3F1804F46D0A2F57C42C6
:1037C000934242D002F5806293423ED002F580627D
:1037D00093423AD002F57842934236D002F57052C5
:1037E000934232D0A2F5943293422ED01A6842F01E
:1037F00001021A60002032E0042908D008290DD007
:1038000094F84130DBB2013B18BF0123B7E794F8CD
:103810003F30DBB2013B18BF0123B0E794F84030E2
:10382000DBB2013B18BF0123A9E7042805D0082813
:1038300007D0022384F84130A8E7022384F83F3000
:10384000A4E7022384F84030A0E79A6802F0070258
:10385000062A07D01A6842F001021A60002010BD43
:103860000120FCE70020FAE70000014038B50446DB
:103870000D4600220068FFF767FF23681D4A934248
:1038800018D002F58062934214D02368196A41F27D
:103890001112114208D1196A40F24442114203D177
:1038A0001A6822F001021A609DB9012384F83E30A3
:1038B000002038BD196A41F211121142E5D1196A8E
:1038C00040F244421142E0D15A6C22F400425A6460
:1038D000DBE7042D05D0082D07D0012384F8413003
:1038E000E6E7012384F83F30E2E7012384F8403023
:1038F000DEE700BF0000014001F01F01042303FACE
:1039000001FC036A23EA0C030362036A02FA01F171
:103910000B43036270477047002865D070B588B0CC
:103920000E46044690F83D30002B58D0022384F810
:103930003D30214651F8040BFFF7DAFCB36803224F
:1039400031682068FFF736FE2268936923F00C0384
:1039500093612268936971680B439361226853688D
:1039600043F0800353602268936823F070039360F0
:103970002268936843F0400393602268936823F0C1
:10398000070393602268936843F004039360002563
:103990000595069570230193079504950395F368A3
:1039A000029301A92068FFF75FFD2268536823F0A6
:1039B000700353602268536843F05003536001233F
:1039C00084F8463084F83E3084F83F3084F8423042
:1039D00084F8433084F83D30284608B070BD80F844
:1039E0003C30FFF798FFA1E70120704710B504466F
:1039F00090F83E00C0B294F83F3094F8422094F81A
:103A00004310012847D1DBB2D2B2C9B2012B43D156
:103A1000012A42D1012901D010463DE0022384F859
:103A20003E3084F83F3084F8423084F8433000213F
:103A30002068FFF789FE23681A4A934220D0B3F129
:103A4000804F1DD0A2F57C42934219D002F58062CE
:103A5000934215D002F58062934211D002F578426C
:103A600093420DD002F57052934209D0A2F59432E0
:103A7000934205D01A6842F001021A6000200BE060
:103A80009A6802F00702062A09D01A6842F0010279
:103A90001A60002000E0012010BD1846FCE700205D
:103AA000FAE700BF0000014010B5044600221146AD
:103AB0000068FFF749FE2368196A41F211121142AA
:103AC00008D1196A40F24442114203D11A6822F027
:103AD00001021A60012384F83E3084F83F3084F8F4
:103AE000423084F84330002010BD000010B5044679
:103AF000084600293BD194F84230DBB2013B18BFA5
:103B00000123002B67D100284AD1022384F84230D8
:103B1000042201462068FFF7EFFE2268536C43F44D
:103B20000043536423682E4A934249D0B3F1804F37
:103B300046D0A2F57C42934242D002F58062934285
:103B40003ED002F5806293423AD002F57842934229
:103B500036D002F57052934232D0A2F5943293429D
:103B60002ED01A6842F001021A60002032E00429C7
:103B700008D008290DD094F84530DBB2013B18BFBE
:103B80000123BEE794F84330DBB2013B18BF0123A9
:103B9000B7E794F84430DBB2013B18BF0123B0E72C
:103BA000042805D0082807D0022384F84530AFE761
:103BB000022384F84330ABE7022384F84430A7E7BC
:103BC0009A6802F00702062A07D01A6842F001023A
:103BD0001A60002010BD0120FCE70020FAE700BFBA
:103BE0000000014038B504460D4600220068FFF78A
:103BF00083FE2368196A41F21112114208D1196A31
:103C000040F24442114203D15A6C22F400425A64F9
:103C10002368196A41F21112114208D1196A40F25F
:103C20004442114203D11A6822F001021A6025B9F8
:103C3000012384F84230002038BD042D05D0082D22
:103C400007D0012384F84530F5E7012384F8433099
:103C5000F1E7012384F84430EDE7000090F83C30B0
:103C6000012B3DD010B4012380F83C30022380F8B2
:103C70003D3003685A689C6822F0700C0A6842EA7A
:103C80000C025A600368174A93421AD0B3F1804F6E
:103C900017D0A2F57C42934213D002F58062934282
:103CA0000FD002F5806293420BD002F57842934226
:103CB00007D002F57052934203D0A2F5943293429A
:103CC00004D124F080044A6814439C60012380F8E6
:103CD0003D30002380F83C3018465DF8044B7047B7
:103CE000022070470000014090F83C30012B22D0A8
:103CF000012380F83C30CB6823F440738A68134377
:103D000023F480634A68134323F400630A6813436F
:103D100023F480530A69134323F400534A6913437D
:103D200023F48043CA69134302685364002380F874
:103D30003C30184670470220704770477047026851
:103D4000D36823F49073D3600268536923F00103AE
:103D50005361202380F83A30704790F83930DBB255
:103D6000212B01D0022070478368B3F5805F17D004
:103D7000036A5A1C02621A7803685A60C38C9BB2A9
:103D8000013B9BB2C3844BB90268D36823F0800324
:103D9000D3600268D36843F04003D36000207047CB
:103DA000036A1B880268C3F30803536003691BB9E5
:103DB000036A02330362E1E7036A01330362DDE76A
:103DC0002DE9F84304460268136923F44053C1689F
:103DD0000B43136183680269134342691343C26949
:103DE0001A430168CB6823F4164323F00C031343F2
:103DF000CB600268536923F4407381690B435361BC
:103E0000C369B3F5004F5ED00368B54A934200F032
:103E1000108102F58062934200F00B81FFF714F8E5
:103E200000EB800000EB80006568AD00B0FBF5F5AD
:103E3000AC4FA7FB05356D092E01FFF705F800EB28
:103E4000800000EB80006568AD00B0FBF5F5FEF783
:103E5000FBFF00EB800000EB800063689B00B0FB81
:103E6000F3F3A7FB03235B094FF0640808FB13532C
:103E70001B013233A7FB03235B0903F0F003F518A2
:103E8000FEF7E2FF00EB800000EB80006668B60002
:103E9000B0FBF6F6FEF7D8FF00EB800000EB8000E9
:103EA00063689B00B0FBF3F0A7FB0030400908FB00
:103EB000106000013230A7FB0037C7F343172368B7
:103EC0002F449F6009E10368854A93425AD002F566
:103ED0008062934256D0FEF7B7FF00EB800000EB04
:103EE000800065686D00B0FBF5F57E4FA7FB0535DA
:103EF0006D094FEA0519FEF7A7FF00EB800000EB04
:103F0000800066687600B0FBF6F6FEF79DFF00EBDA
:103F1000800000EB800065686D00B0FBF5F5A7FB45
:103F200005356D094FF0640808FB1565ED00323565
:103F3000A7FB05356D096D0005F4F8754D44FEF7D6
:103F400083FF00EB800000EB800066687600B0FB2A
:103F5000F6F6FEF779FF00EB800000EB8000636867
:103F60005B00B0FBF3F3A7FB03235B0908FB1363C0
:103F7000DB003233A7FB0337C7F3421723682F4414
:103F80009F60AAE0FEF770FF00EB800000EB80006E
:103F900065686D00B0FBF5F5524FA7FB05356D095F
:103FA0004FEA0519FEF760FF00EB800000EB800090
:103FB00066687600B0FBF6F6FEF756FF00EB800071
:103FC00000EB800065686D00B0FBF5F5A7FB0535DB
:103FD0006D094FF0640808FB1565ED003235A7FB4D
:103FE00005356D096D0005F4F8754D44FEF73CFF8D
:103FF00000EB800000EB800066687600B0FBF6F610
:10400000FEF732FF00EB800000EB800063685B008E
:10401000B0FBF3F3A7FB03235B0908FB1363DB008F
:104020003233A7FB0337C7F3421723682F449F603F
:1040300053E0FEF719FF00EB800000EB800065689D
:10404000AD00B0FBF5F5274FA7FB05356D092E0137
:10405000FEF70AFF00EB800000EB80006568AD0012
:10406000B0FBF5F5FEF700FF00EB800000EB8000F1
:1040700063689B00B0FBF3F3A7FB03235B094FF0DE
:10408000640808FB13531B013233A7FB03235B09AE
:1040900003F0F003F518FEF7E7FE00EB800000EBFD
:1040A00080006668B600B0FBF6F6FEF7DDFE00EBBA
:1040B000800000EB800063689B00B0FBF3F0A7FB7F
:1040C0000030400908FB106000013230A7FB0037C8
:1040D000C7F3431723682F449F60BDE8F88300BFF0
:1040E000001001401F85EB512DE9F84305460F46AE
:1040F00016469946DDF820802C68246837EA0403C8
:104100000CBF4FF0010C4FF0000CB4451FD1B8F1BB
:10411000FF3FF1D0B8F1000F05D0FEF7D5F9A0EBC5
:1041200009004045E8D92A68D36823F4D073D360E6
:104130002A68536923F001035361202385F839303D
:1041400085F83A30002385F83830032000E000205D
:10415000BDE8F883704758B310B5044690F839307D
:104160000BB3242384F839302268D36823F4005336
:10417000D3602046FFF724FE2268136923F490439E
:1041800013612268536923F02A0353612268D368BC
:1041900043F40053D3600020E063202384F83930D7
:1041A00084F83A3010BD80F83830FFF7D3FFD8E7F5
:1041B000012070472DE9F04182B01E4690F8393059
:1041C000DBB2202B55D104460D469046002954D031
:1041D000002A54D090F83830012B52D0012380F8B7
:1041E00038300023C363212380F83930FEF76CF99F
:1041F0000746A4F82480A4F8268010E000963B46E9
:10420000002280212046FFF76FFF00283BD12B883A
:104210002268C3F3080353602369CBB90235E38CEA
:104220009BB2BBB1E28C92B2013A92B2E284A36833
:10423000B3F5805FE2D000963B4600228021204605
:10424000FFF752FF08BB15F8012B23685A60E6E719
:104250000135E4E700963B46002240212046FFF767
:1042600043FFA0B9202384F83930002384F8383084
:1042700000E0022002B0BDE8F0810120FAE7012051
:10428000F8E70220F6E70320F4E70320F2E7032033
:10429000F0E7704708B50168CA6822F04002CA60BA
:1042A000202280F83920FFF7F4FF002008BD704776
:1042B00008B590F83A30DBB2222B46D18368B3F5CB
:1042C000805F0FD003690BBB03685A68836A591C6F
:1042D00081621A70C38D9BB2013B9BB2C385F3B15F
:1042E000002008BD826A036943B903685B68C3F3B1
:1042F00008031380836A02338362EBE703685B6819
:10430000DBB21380836A01338362E3E703685B688F
:10431000826A511C816203F07F031370DAE702683E
:10432000D36823F02003D3600268D36823F480733A
:10433000D3600268536923F001035361202380F89E
:104340003A30FFF7B4FF0020CBE70220C9E77047FF
:1043500010B5044602681368D168526913F00F0063
:1043600005D113F0200F02D011F0200F13D128B186
:1043700012F0010213D111F4907F10D113F0800FCD
:1043800002D011F0800F69D113F0400F02D011F06C
:10439000400F67D110BD2046FFF78AFFFAE713F000
:1043A000010F06D011F4807F03D0E06B40F00100D4
:1043B000E06313F0040F04D01AB1E06B40F0020088
:1043C000E06313F0020F04D01AB1E06B40F0040078
:1043D000E06313F0080F04D01AB1E26B42F0080258
:1043E000E263E26B002AD5D013F0200F02D011F067
:1043F000200F21D123685B6903F04003E26B12F0C8
:10440000080F00D123B32046FFF799FC23685A69AF
:1044100012F0400F18D05A6922F040025A61636BC3
:1044200073B1124A1A65606BFEF7DFF80028B1D04D
:10443000606B036D9847ADE72046FFF739FFD9E77A
:104440002046FFF784FFA5E72046FFF780FFA1E79E
:104450002046FFF77CFF0023E3639BE72046FFF73E
:104460007CFC97E72046FFF715FF93E771440008AF
:1044700008B5806B0023C385C384FFF768FF08BDC0
:1044800000F1080343604FF0FF328260C3600361B4
:1044900000230360704700230361704743684B604B
:1044A0009A688A605160996008610368013303600B
:1044B000704730B40D68B5F1FF3F11D000F108032B
:1044C0001C465B681A68AA42FAD963684B60996017
:1044D0008C606160086103680133036030BC704721
:1044E0000469F2E70369416882688A604168516043
:1044F0005A68824206D0002202611A68013A1A60A4
:104500001868704782685A60F5E782B0002301930B
:104510004FF0500383F31188BFF36F8FBFF34F8FBA
:10452000019B002BFCD002B07047000008480068D7
:10453000006880F308884FF0000080F3148862B6AA
:1045400061B6BFF34F8FBFF36F8F00DF00BF000076
:1045500008ED00E0DFF80C00016841F47001016033
:104560007047000088ED00E04FF0807340F8043C95
:1045700021F0010140F8081C054B40F80C3C40F8C4
:10458000202C6FF0020340F8243C4438704700BFF1
:104590000B450008000000000000000000000000C3
:1045A000074B19680868B0E8F04F80F30988BFF33B
:1045B0006F8F4FF0000080F311887047AFF30080D9
:1045C000589B00204FF0500383F31188BFF36F8F87
:1045D000BFF34F8F024A136801331360704700BF67
:1045E00030010020034A1368013B13600BB983F3C9
:1045F000118870473001002000000000000000001A
:10460000EFF30980BFF36F8F154B1A681EF0100F80
:1046100008BF20ED108A20E9F04F10602DE9090055
:104620004FF0500080F31188BFF34F8FBFF36F8FAF
:1046300000F0E4FC4FF0000080F3118809BC196819
:104640000868B0E8F04F1EF0100F08BFB0EC108AF9
:1046500080F30988BFF36F8F704700BFAFF300800E
:10466000589B002008B54FF0500383F31188BFF327
:104670006F8FBFF34F8F00F0B7FB28B14FF0E023EF
:104680004FF08052C3F8042D002383F3118808BD36
:104690004FF0E022002313619361054B1B6805492D
:1046A000A1FB03139B09013B53610723136170476F
:1046B00024010020D34D621038B54FF0E024D4F827
:1046C000203D43F47003C4F8203DD4F8203D43F06E
:1046D0007043C4F8203DFFF7DBFF0025084B1D6049
:1046E000FFF738FFD4F8343F43F04043C4F8343F79
:1046F000FFF71CFF00F082FCFFF707FF284638BDDC
:1047000030010020124A12F0070F1ED0D11D21F0F7
:104710000701C1F5104313440A460E480260002108
:1047200041601344083B23F007030B4803605960C2
:104730001960991A51601360084B1960084B196091
:10474000084B4FF000421A6070474FF41043E4E703
:104750003C0B0020509B0020380B0020449B002085
:10476000409B00203C9B0020164B1A461B6883424E
:10477000FBD3516802EB010C844509D0416800EB82
:10478000010C634509D00360904219D01060704756
:104790004068014451601046F0E710B40A4C2468A8
:1047A000A3420BD05B681944416013681B68036027
:1047B000904200D010605DF8044B70470460F7E74A
:1047C000704700BF509B0020380B002070B5054695
:1047D00000F002FB2A4B1B68A3B12A4B1B681D4249
:1047E00046D135B1083515F0070F02D025F0070581
:1047F0000835002D3ED0244B1B68AB423CD3234AE6
:10480000146804E0FFF77EFFE7E722461C46636872
:10481000AB4202D22368002BF7D1194B1B68A3428D
:104820002CD0166808362368136063685B1B102B56
:1048300018D8626814490B689B1A0B601449096800
:104840008B4201D212490B600E4B1B68134363600D
:10485000002323600F4A13680133136000F044FB08
:10486000304670BD601943606560FFF77DFFE0E78B
:104870000026F3E70026F1E70026EFE70026EDE744
:10488000380B00203C9B0020409B0020509B0020C8
:10489000449B0020489B002018B338B50446A0F183
:1048A000080550F8043C0F4A1268134202D050F831
:1048B000081C01B138BD23EA020340F8043C00F0B3
:1048C0008BFA54F8041C084A13680B4413602846FA
:1048D000FFF74AFF054A13680133136000F004FB39
:1048E000E8E770473C9B0020409B00204C9B002049
:1048F000084B1B681B6823B9074B4FF0FF321A6047
:104900007047044B1B68DB68DB685A68024B1A600F
:10491000704700BF5C9B0020249E00202DE9F047DB
:1049200007469846089DDDF824900A9C266B02F104
:104930008042013A06EB820626F0070600293AD0AB
:104940008E464FF0000CBCF10F0F0BD81EF80C2058
:1049500004EB0C0383F834201EF80C3013B10CF177
:10496000010CF0E7002384F843301F2D00D91F25E8
:10497000E56265644FF0000AC4F848A0201DFFF707
:104980008AFD04F11800FFF786FD2461C5F12005BA
:10499000A5616462C4F84CA084F850A04246394630
:1049A0003046FFF7E1FD2060B9F1000F01D0C9F8F2
:1049B0000040BDE8F087002384F83430D5E70000DC
:1049C00038B5002407E004EB840293000E48184435
:1049D000FFF756FD01341F2CF5D90C4D2846FFF783
:1049E0004FFD0B4C2046FFF74BFD0A48FFF748FDF3
:1049F0000948FFF745FD0948FFF742FD084B1D60D8
:104A0000084B1C6038BD00BF649B0020F89D00204F
:104A10000C9E0020309E00205C9E0020489E0020BE
:104A20005C9B0020609B002010B50446FFF7CAFD88
:104A3000214A136801331360204B1B685BB1204B84
:104A40001B686BB91D4B1B68DA6AE36A9A4207D888
:104A50001A4B1C6004E0194B1C601368012B28D012
:104A6000184A136801331360E06A01238340164A31
:104A700011680B43136000EB8000211D134B03EB07
:104A80008000FFF70BFDFFF7ADFD0D4B1B687BB101
:104A90000A4B1B68DA6AE36A9A4209D24FF0E023B4
:104AA0004FF08052C3F8042DBFF34F8FBFF36F8FC9
:104AB00010BDFFF785FFD3E7E49D0020589B002041
:104AC000449E0020F09D0020F49D0020649B002067
:104AD00010B5044690F8513013B1012B07D010BD2A
:104AE000006BFFF7D9FE2046FFF7D6FEF7E7FFF78A
:104AF000D3FEF4E70F4B1B68D3B110B5FFF762FD8F
:104B00000D4BDB68DC68201DFFF7ECFC0B4A1368DB
:104B1000013B1360074A1368013B1360FFF762FD16
:104B20002046FFF7D5FF034B1B68002BE6D110BDD5
:104B3000704700BFE89D00205C9E0020E49D00209F
:104B400008B5FFF7D7FF074B1B68012BF9D94FF0CA
:104B5000E0234FF08052C3F8042DBFF34F8FBFF313
:104B60006F8FEEE7649B002070B504460D461D4B29
:104B70001E681D4B18680430FFF7B4FC50B91A4B7F
:104B80001B68DA6A012303FA02F218490B6823EA68
:104B900002030B60B4F1FF3F0DD03444124B1B688D
:104BA0005C60A64210D9124B18680F4B196804318B
:104BB000FFF77FFC70BD002DEFD00B4B196804315F
:104BC0000C48FFF76BFCF5E70B4B1868064B1968B0
:104BD0000431FFF76EFC094B1B68A342EAD9074B6F
:104BE0001C60E7E7709E0020589B0020F49D002089
:104BF000609B0020489E00205C9B0020249E00209B
:104C000030B587B00B9D0C9C8CB185B12563022516
:104C100084F8515000250395029405AD01950A9D35
:104C20000095FFF77BFE2046FFF7FEFE01E0002324
:104C30000593059807B030BD2DE9F04385B00746D0
:104C4000884614461E469000FFF7C0FD00B381461B
:104C50005420FFF7BBFD0546B0B1C0F83090E5B178
:104C6000002385F85130039302950D9B01930C9B13
:104C700000933346224641463846FFF74FFE28460A
:104C8000FFF7D2FE012005E04846FFF705FEE6E704
:104C90004FF0FF3005B0BDE8F0834FF0FF30F9E78B
:104CA00038B50446FFF78EFC002C33D0251D28466E
:104CB000FFF718FC68B9E26A02EB82039B00214906
:104CC000CB5833B9012393401F490A6822EA0302F3
:104CD0000A60A36A1BB104F11800FFF703FC1B4A2A
:104CE0001368013313601A4B1B68A34215D0194A8D
:104CF0001368013B13602046FFF7EAFEFFF7F8FD5B
:104D0000FFF770FC144B1B681BB1114B1B68A342CF
:104D10000CD038BD0E4B1C68C8E729460F48FFF77A
:104D2000BDFB0F4A136801331360E9E74FF0E0233E
:104D30004FF08052C3F8042DBFF34F8FBFF36F8F36
:104D4000E7E700BF649B0020F49D0020F09D002059
:104D5000589B0020E49D0020449E00205C9E002083
:104D6000E89D002010B588B000240594069407AA99
:104D700006A905A8FCF752FF059B0293069B019329
:104D800000942346079A0E490E48FFF739FF0E4B51
:104D9000186090B14FF0500383F31188BFF36F8F09
:104DA000BFF34F8F094B4FF0FF321A60084B0122BF
:104DB0001A60084B1C60FFF77FFC08B010BD00BFF5
:104DC000D0540008414B0008209E0020249E002063
:104DD000449E0020709E0020024A13680133136035
:104DE000704700BFEC9D0020F8B5344B1B68002BCA
:104DF0005DD1334B1E6801361E60AEB1314B1B686E
:104E0000B3424AD90027304B1B68DB6A03EB8303AC
:104E10009A002E4B9B58012B00D901272C4B1B6865
:104E2000002B49D0012747E02A4A11682A4B18680D
:104E300010601960294A136801331360FFF758FDA9
:104E4000DCE70127234B1B681B6843B3214B1B681E
:104E5000DB68DC6863689E4226D3251D2846FFF781
:104E600041FBA36A1BB104F11800FFF73BFBE36AA7
:104E700001229A401A49086802430A6003EB83033F
:104E80009A00294611481044FFF708FBE26A0E4BCE
:104E90001B68DB6A9A42D4D2D4E70027D2E7094BD9
:104EA0004FF0FF321A60AEE7064A1360ABE70D4AD7
:104EB00013680133136000273846F8BDEC9D0020CD
:104EC000709E0020249E0020589B0020649B0020A0
:104ED000749E00205C9B0020609B0020289E002088
:104EE000F49D00202C9E002038B5FFF76BFB2E4B65
:104EF0001A68013A1A601B68002B4FD12B4B1B68B4
:104F00000BB900244BE00024294B1B681BB3284B32
:104F1000DB68DC6804F11800FFF7E4FA251D284679
:104F2000FFF7E0FAE06A01238340224A11680B434D
:104F3000136000EB800029461F4B03EB8000FFF756
:104F4000ADFAE26A1D4B1B68DB6A9A42DCD31C4B4C
:104F500001221A60D8E70CB1FFF7CAFC194B1C6894
:104F600084B9174B1C68D4B14FF0E0234FF0805246
:104F7000C3F8042DBFF34F8FBFF36F8F01240EE0F2
:104F8000013C07D0FFF730FF0028F9D00C4B01227D
:104F90001A60F5E70B4B00221A60E2E70024FFF7E6
:104FA00021FB204638BD00BFEC9D0020E49D002081
:104FB000309E0020F49D0020649B0020589B002020
:104FC000749E00202C9E002010B550B94FF0E023B5
:104FD0004FF08052C3F8042DBFF34F8FBFF36F8F94
:104FE00010BD0446FFF7F8FE00212046FFF7BCFD88
:104FF000FFF77AFF0028F3D1E8E70000184B1B68A1
:105000001BB1184B01221A607047164B00221A6020
:10501000154B1B68B3FA83F3DBB2C3F11F031349CB
:1050200003EB830082000A4450684068506003EB41
:10503000830C4FEA8C0208321144884209D003EBFA
:1050400083039A00094B13445B68DA68084B1A60C3
:105050007047406862469100044A0A445060EEE797
:10506000EC9D0020749E0020F49D0020649B002095
:10507000589B0020054B1B6833B1054B1B680BB1D7
:10508000002070470220704701207047449E002096
:10509000EC9D002070B50D4E0D4D761BB61006D060
:1050A000002455F8043B01349847A642F9D1094E33
:1050B000094D761B00F0D4F8B61006D0002455F840
:1050C000043B01349847A642F9D170BDE45400086E
:1050D000E4540008EC540008E4540008830730B599
:1050E00048D0541E002A3FD0CAB2034601E0013C1A
:1050F0003AD303F8012B9D07F9D1032C2DD9CDB25A
:1051000045EA05250F2C45EA054536D9A4F11002DC
:1051100022F00F0C03F1200EE6444FEA121C03F1BB
:10512000100242E9045542E9025510327245F8D1A5
:105130000CF1010214F00C0F03EB021204F00F0C3F
:1051400013D0ACF1040323F003030433134442F8F7
:10515000045B9342FBD10CF003042CB1CAB21C4493
:1051600003F8012B9C42FBD130BD64461346002C52
:10517000F4D1F9E703461446BFE71A46A446E0E730
:10518000024B13B1024800F005B870470000000060
:10519000A1510008002301461A46184600F01AB82B
:1051A00038B5084B084D5B1B9C1007D0043B1D44D1
:1051B000013C55F804399847002CF9D1BDE8384036
:1051C00000F054B8F0540008EC540008704700BFD9
:1051D000704700BF2DE9F047DFF880A00646DAF8F7
:1051E000000098460F469146FFF7F0FF1A4B1B68E8
:1051F000D3F8484124B365681F2D26DC5EB96B1CCB
:105200000235DAF80000636044F82570FFF7E0FF2C
:105210000020BDE8F08704EB85010123C1F88890E8
:10522000D4F88821AB401A43022EC4F88821C1F873
:105230000881E4D1D4F88C211343C4F88C31DEE723
:1052400003F5A674C3F84841D5E7DAF80000FFF784
:10525000BFFF4FF0FF30DCE7D854000860050020A6
:10526000F8B500BFF8BC08BC9E467047F8B500BF53
:08527000F8BC08BC9E46704723
:1052780000050301060402000000C90092015B0258
:105288002403ED03B6047F0548061107D907A208D1
:105298006A09330AFB0AC40B8C0C540D1C0EE30E6E
:1052A800AB0F72103A110112C8128F1355141C1546
:1052B800E215A8166E173318F918BE19821A471B7B
:1052C8000B1CCF1C931D571E1A1FDD1F9F20612129
:1052D8002322E522A62367242825E825A826672770
:1052E8002628E528A329612A1F2BDC2B992C552D6C
:1052F800112ECC2E872F4130FB30B5316E3226333C
:10530800DF3396344D350436BA366F372438D938FA
:105318008C39403AF23AA53B563C073DB83D683EC9
:10532800173FC53F73402141CE417A422543D043C0
:105338007A442445CD4575461C47C34769480F49FB
:10534800B449584AFB4A9D4B3F4CE04C814D204E96
:10535800BF4E5D4FFB4F97503351CE5168520253A9
:105368009B533254C9546055F5558A561D57B0574A
:105378004258D3586459F359825A0F5B9C5B285C96
:10538800B35C3E5DC75D4F5ED75E5D5FE35F68609F
:10539800EB606E61F0617162F1627063EE636C6480
:1053A800E8646365DD655666CF664667BC67326844
:1053B800A66819698B69FD696D6ADC6A4A6BB76B07
:1053C800236C8E6CF86C616DC96D306E966EFB6ED9
:1053D8005E6FC16F22708370E27040719D71F971C8
:1053E8005472AE7207735E73B5730A745F74B274E5
:1053F80004755575A575F37541768D76D87622773F
:105408006B77B377FA773F788478C77809794A79E0
:105418008979C879057A417A7C7AB67AEE7A267BD8
:105428005C7B917BC57BF87B297C597C887CB67C2E
:10543800E37C0E7D397D627D897DB07DD57DFA7DE9
:105448001D7E3E7E5F7E7E7E9C7EB97ED57EEF7E13
:10545800097F217F377F4D7F617F747F867F977FAC
:10546800A67FB47FC17FCD7FD87FE17FE97FF07FC2
:10547800F57FF97FFD7FFE7F4C45445F5461736B78
:10548800000000004B45595F5461736B0000000039
:1054980050524F544F434F4C5F5461736B000000A0
:1054A8004170705461736B437265617465000000EC
:1054B80000000000000000000102030406070809BC
:1054C800000000000102030449444C4500000000AC
:0454D8003801002077
:0854DC00ECB0FF7F01000000AD
:0854E40081510008B501000828
:0454EC009101000822
:1054F000010000003408000001000100FFFF00006F
:1055000018000000CDCC4C3EAA0054010001000060
:10551000000306090C0F1215181C1F2225282B2E1C
:105520003134373A3D4044474A4D4F5255585B5EFF
:105530006164676A6D6F7275787A7D808385888B08
:105540008D909295979A9C9FA1A4A6A8ABADAFB25F
:10555000B4B6B8BABCBFC1C3C5C7C9CACCCED0D215
:10556000D4D5D7D9DADCDDDFE0E2E3E5E6E7E9EA46
:10557000EBECEDEFF0F1F2F3F4F4F5F6F7F8F8F9FF
:10558000FAFAFBFBFCFCFDFDFDFEFEFEFEFEFEFE50
:10559000FFFEFEFEFEFEFEFEFDFDFDFCFCFBFBFA3B
:1055A000FAF9F8F8F7F6F5F4F4F3F2F1F0EFEDECC0
:1055B000EBEAE9E7E6E5E3E2E0DFDDDCDAD9D7D5DF
:1055C000D4D2D0CECCCAC9C7C5C3C1BFBCBAB8B685
:1055D000B4B2AFADABA8A6A4A19F9C9A97959290A8
:1055E0008D8B888583807D7A7875726F6D6A67642C
:1055F000615E5B5855524F4D4A4744403D3A3734FF
:10560000312E2B2825221F1C1815120F0C090603FA
:105610000000A0400024F400010000001000000081
:10562000AAAAAAAA0000000000000000240400208A
:105630008C040020F40400200000000000000000A2
:10564000000000000000000000000000000000005A
:10565000000000000000000000000000000000004A
:10566000000000000000000000000000000000003A
:10567000000000000000000000000000000000002A
:10568000000000000000000000000000000000001A
:10569000000000000000000000000000000000000A
:1056A00000000000000000000000000000000000FA
:1056B00000000000000000000000000000000000EA
:1056C00000000000000000000000000000000000DA
:1056D00001000000000000000E33CDAB34126DE677
:1056E000ECDE05000B0000000000000000000000E0
:1056F00000000000000000000000000000000000AA
:105700000000000000000000000000000000000099
:105710000000000000000000000000000000000089
:105720000000000000000000000000000000000079
:045A5000789E00201C
:04000005080023DDEF
:00000001FF
