:020000040800F2
:100000000000022051190008C1180008C318000898
:10001000C5180008C7180008C9180008000000002B
:10002000000000000000000000000000C1370008D0
:10003000CB18000800000000F1370008CD180008B8
:10004000A1190008A1190008A1190008A1190008A8
:10005000A1190008A1190008A1190008A119000898
:10006000A1190008A1190008A1190008A119000888
:10007000A1190008A1190008A1190008A119000878
:10008000A1190008A1190008A1190008A119000868
:10009000A1190008A1190008A1190008A119000858
:1000A000A11900082D190008A1190008A1190008BC
:1000B000A1190008A1190008A1190008A119000838
:1000C000A1190008A1190008A1190008A119000828
:1000D000A1190008E9180008A1190008A1190008D1
:1000E000A1190008A1190008A1190008A119000808
:1000F000A1190008A1190008A1190008A1190008F8
:10010000A1190008A1190008A1190008A1190008E7
:10011000A1190008A1190008A1190008A1190008D7
:10012000A1190008A1190008A1190008A1190008C7
:10013000A1190008A1190008A1190008A1190008B7
:10014000A1190008A1190008A1190008A1190008A7
:10015000A1190008A1190008A1190008A119000897
:10016000A1190008A1190008A1190008A119000887
:10017000A1190008A1190008A11900080000000039
:08018000A1190008A1190008F3
:1001900010B5054C237833B9044B13B10448AFF3C1
:1001A00000800123237010BD5C05002000000000CA
:1001B000483C000808B5034B1BB103490348AFF3A3
:1001C000008008BD0000000060050020483C0008D9
:1001D00053B94AB9002908BF00281CBF4FF0FF31AE
:1001E0004FF0FF3000F074B9ADF1080C6DE904CEAA
:1001F00000F006F8DDF804E0DDE9022304B0704702
:100200002DE9F047089D04468E46002B4DD18A42C9
:10021000944669D9B2FA82F252B101FA02F3C2F1FC
:10022000200120FA01F10CFA02FC41EA030E94408D
:100230004FEA1C48210CBEFBF8F61FFA8CF708FBAE
:1002400016E341EA034306FB07F199420AD91CEB86
:10025000030306F1FF3080F01F81994240F21C81B8
:10026000023E63445B1AA4B2B3FBF8F008FB103300
:1002700044EA034400FB07F7A7420AD91CEB040435
:1002800000F1FF3380F00A81A74240F20781644405
:10029000023840EA0640E41B00261DB1D44000238A
:1002A000C5E900433146BDE8F0878B4209D9002DEE
:1002B00000F0EF800026C5E9000130463146BDE878
:1002C000F087B3FA83F6002E4AD18B4202D38242E2
:1002D00000F2F980841A61EB030301209E46002D91
:1002E000E0D0C5E9004EDDE702B9FFDEB2FA82F2E6
:1002F000002A40F09280A1EB0C014FEA1C471FFA44
:100300008CFE0126200CB1FBF7F307FB131140EA2A
:1003100001410EFB03F0884208D91CEB010103F1F7
:10032000FF3802D2884200F2CB804346091AA4B2B9
:10033000B1FBF7F007FB101144EA01440EFB00FE8D
:10034000A64508D91CEB040400F1FF3102D2A645F2
:1003500000F2BB800846A4EB0E0440EA03409CE791
:10036000C6F12007B34022FA07FC4CEA030C20FA3E
:1003700007F401FA06F31C43F9404FEA1C4900FA5E
:1003800006F3B1FBF9F8200C1FFA8CFE09FB1811DB
:1003900040EA014108FB0EF0884202FA06F20BD94E
:1003A0001CEB010108F1FF3A80F08880884240F29E
:1003B0008580A8F102086144091AA4B2B1FBF9F0E2
:1003C00009FB101144EA014100FB0EFE8E4508D9DD
:1003D0001CEB010100F1FF346CD28E456AD9023862
:1003E000614440EA0840A0FB0294A1EB0E01A14247
:1003F000C846A64656D353D05DB1B3EB080261EBB5
:100400000E0101FA07F722FA06F3F1401F43C5E98E
:10041000007100263146BDE8F087C2F12003D840C4
:100420000CFA02FC21FA03F3914001434FEA1C4706
:100430001FFA8CFEB3FBF7F007FB10360B0C43EAF8
:10044000064300FB0EF69E4204FA02F408D91CEBA8
:10045000030300F1FF382FD29E422DD902386344A6
:100460009B1B89B2B3FBF7F607FB163341EA034146
:1004700006FB0EF38B4208D91CEB010106F1FF3895
:1004800016D28B4214D9023E6144C91A46EA00468C
:1004900038E72E46284605E70646E3E61846F8E61E
:1004A0004B45A9D2B9EB020864EB0C0E0138A3E767
:1004B0004646EAE7204694E74046D1E7D0467BE748
:1004C000023B614432E7304609E76444023842E7C0
:1004D000704700BF00B589B000220192144B196B20
:1004E00041F008011963196B01F0080101910199AC
:1004F0000292196B41F0100119631B6B03F010039A
:100500000293029B4FF4807303930123049302230D
:100510000693059203A9074801F044FB04230393C3
:1005200003A9054801F03EFB09B05DF804FB00BFDC
:1005300000380240000C02400010024008B50122C1
:100540004FF48071014801F026FC08BD000C024008
:1005500008B501220421024801F01DFC08BD00BFBE
:100560000010024010B50C46104B1880C0F3C32396
:10057000022B06D00E4B1C80C4F3C323032B0AD0DE
:1005800010BD01460B4801F01DF9084B19880A48B7
:1005900001F018F9EEE72146064801F013F9044B83
:1005A0001988054801F00EF9EAE700BF7A05002036
:1005B0007C05002000300140003C004008B501F0FF
:1005C000DFF8FFF787FFFFF7B9FFFFF7C1FF4FF431
:1005D000FA7001F039FA41F6D210064B188041F654
:1005E0000801054B1980FFF7BDFF044B4FF4104283
:1005F0001A8008BD7A0500207C05002078050020BF
:1006000010B58AB0002200922C4B196B41F0020108
:100610001963196B01F00201009100990192196BA5
:1006200041F020011963196B01F02001019101993A
:100630000292196B41F020011963196B01F020013E
:10064000029102990392196B41F020011963196B11
:1006500001F02001039103990492196B41F02001EC
:1006600019631B6B03F020030493049B022305937F
:100670000692079305A9124801F094FA4FF400631B
:100680000593104C05A9204601F08CFA4FF4005355
:10069000059305A9204601F085FA4FF480430593A0
:1006A00005A9204601F07EFA4FF40043059305A901
:1006B000204601F077FA0AB010BD00BF00380240B2
:1006C000000402400014024070B505460C4601F0DB
:1006D0005BFB064638B92146284601F055FB002849
:1006E000F9D0304670BD0126FBE700002DE9F0434C
:1006F0008BB0002201922A4B196B41F04001196323
:10070000196B01F04001019101990292196B41F0BE
:1007100040011963196B01F04001029102990392A3
:10072000196B41F010011963196B01F0100103916D
:10073000039904921A6B42F010021A631B6B03F0C8
:1007400010030493049B012605960696079603233F
:100750000893144D05A9284601F024FA4FF0020928
:10076000CDF8149005A9284601F01CFA4FF0800836
:10077000CDF814800C4C05A9204601F013FA4FF473
:100780008077059705A9204601F00CFAAE61C5F8FF
:100790001890C4F81880A7610BB0BDE8F08300BFC3
:1007A00000380240001802400010024010B50E4B05
:1007B00001221A720D4C0021204602F075FA002128
:1007C000204602F0B3FB0421204602F06DFA04211A
:1007D000204602F0ABFB0821204602F065FA082112
:1007E000204602F0A3FB10BD80050020E00500209C
:1007F00038B500250D4B1D720D4C2946204602F0E0
:10080000D5FA2946204602F00DFC0421204602F0CC
:10081000CDFA0421204602F005FC0821204602F012
:10082000C5FA0821204602F0FDFB38BD80050020F6
:10083000E0050020F3EE0E7A80EE270A70470000F4
:1008400010B588B0002200921C4B196B41F00401D6
:100850001963196B01F00401009100990192196B61
:1008600041F004011963196B01F004010191019930
:1008700002921A6B42F004021A631B6B03F004032A
:100880000293029B402303930223049301220592C7
:1008900007930B4C03A9204601F084F980230393AE
:1008A00003A9204601F07EF94FF48073039303A956
:1008B000204601F077F908B010BD00BF00380240B3
:1008C0000008024010B586B000240194124B1A6C47
:1008D00042F002021A641B6C03F002030193019BB5
:1008E0000E480F4B03607F23436084604FF6FE7316
:1008F000C360046103940A2302930493059402A93C
:1009000002F0AAFA012221461D2001F0C9F81D209B
:1009100001F0FEF806B010BD0038024028060020A5
:1009200000040040F0B58DB0002401943D4B1A6BDB
:1009300042F001021A631A6B02F001020192019A5D
:1009400002941A6B42F002021A631A6B02F002025E
:100950000292029A03941A6B42F001021A631A6B14
:1009600002F001020392039A04941A6B42F002020D
:100970001A631A6B02F002020492049A05941A6B2D
:1009800042F001021A631A6B02F001020592059A05
:1009900006941A6B42F002021A631B6B03F0020307
:1009A0000693069B099402260A96089601250B9544
:1009B0004FF4005307931C4F07A9384601F0F2F893
:1009C0004FF48043079307A9384601F0EBF84FF442
:1009D0000043079307A9384601F0E4F808964FF45E
:1009E000807307930B95114E07A9304601F0DAF892
:1009F0004FF4007307930B9507A9304601F0D2F826
:100A00004FF4806307930B9507A9304601F0CAF8AD
:100A100022462146192001F043F8192001F078F808
:100A20000DB0F0BD0038024000040240000002405A
:100A3000F0B583B000250195334B5A6C42F00102AA
:100A40005A645B6C03F001030193019B2F4C304B04
:100A5000236041F26703E360656025616027A7605A
:100A600001236361204601F073FF2A494FF4805649
:100A70000E60204602F089F827490D604D6020463F
:100A800002F00CFB25490D604D608D60CD600E615C
:100A90004FF400534B61CD61204602F045FB204EE0
:100AA000376040F634037360B560F5604FF48073CF
:100AB0007361B5612A463146204601F0ADFF04223C
:100AC0003146204601F0A8FF08223146204601F0B9
:100AD000A3FF2946204602F0E7F82946204602F007
:100AE00025FA0421204602F0DFF80421204602F016
:100AF0001DFA0821204602F0D7F80821204602F00E
:100B000015FA03B0F0BD00BF00380240E005002038
:100B100000000140AC050020BC0500208C05002031
:100B2000C405002008B5FFF78BFEFFF7CBFE08BD1C
:100B300008B5FFF7F7FEFFF77BFFFFF7F3FF08BDF0
:100B40005D4B984200D070472DE9F04F83B00446CA
:100B50005A4E3388DBB2DFF888B1594F39881BF819
:100B6000030000F08BF9574BB3F90030396800FBF4
:100B70000310DFF870A1DAF8003003FB00F0524DEB
:100B800085FB0023C017C0EBA3030093DFF8489157
:100B9000B9F80030DBB289B21BF8030000F06EF93F
:100BA0004A4BB3F90030396800FB0310DAF8003023
:100BB00003FB00F085FB0023C017C0EBA3020192EA
:100BC000DFF81881B8F80030DBB289B21BF80300F7
:100BD00000F054F93E4BB3F900203B6800FB0230B3
:100BE000DAF8003003FB00F085FB0015C017C0EBFE
:100BF000A5002268BDF8003053632268BDF80430B8
:100C00009363236880B2D86333889BB201339BB26D
:100C10003380B9F800309BB201339BB2A9F80030A1
:100C2000B8F800309BB201339BB2A8F8003032888C
:100C300092B2284B1B689A4232DB224A4FF6FF7170
:100C40001180254A128892B293422DDC1F4A4FF63A
:100C5000FF711180214A128892B2934228DC1C4A0B
:100C60004FF6FF711180154A128892B25900B2EB0B
:100C7000430F02DB114B00221A80174B1B889BB2DB
:100C8000994202DC144B00221A80144B1B889BB241
:100C9000994202DC114B00221A8003B0BDE8F08FAC
:100CA000084A01211180CCE7084A01211180D1E7CF
:100CB000074A01211180D6E7E005002074060020D4
:100CC0000400002008000020ABAAAA2A0A00002085
:100CD0000C0000201C000020180000201A0000203A
:100CE00020000020100000201C4BD3ED006AF8EE1D
:100CF000E66A66EE806A76EEA66AB5EE400AF1EE26
:100D000010FA29D0DFED167AB7EE007A77EE877AFF
:100D10009FED147A87EE276A86EE267ABCEEC77AB4
:100D200017EE103A5A089FED107AF4EEC77AF1EEFA
:100D300010FA11DCB2F5803FE6D2B7EE007A77EE1A
:100D4000C77A0A490868FCEEE77AC0ED0A7AC262FF
:100D5000CA609B08064A1360704700BF1C00002051
:100D600000000000A037204D00FF7F47E005002075
:100D7000040000201A4B1B889BB2C0B9AB33194A40
:100D80001268520093FBF2F102FB11339BB2164939
:100D90000B800B889BB2AB3393FBF2F102FB113358
:100DA0009BB2124A1380124B00221A707047AB3369
:100DB0000C4A1268520093FBF2F102FB11339BB212
:100DC0000A490B800B889BB2AB3393FBF2F102FB19
:100DD00011339BB2044A1380054B01221A707047ED
:100DE000740600201C000020180000201A000020BB
:100DF0008005002010B52DED028BB0EE408AB5EED7
:100E0000C00AF1EE10FA0ADCB5EEC00AF1EE10FAF3
:100E100018D40024174B1C60BDEC028B10BDFFF7EB
:100E200063FF154B93ED000A28EE008ABCEEC88ADA
:100E300018EE103A9CB2182C00D918240120FFF7A4
:100E400099FFE7E7B1EE408AB0EE480AFFF74CFFA2
:100E5000094BD3ED007A28EE278ABCEEC88A18EE3B
:100E6000103A9CB2182C00D918240020FFF782FFFA
:100E7000D0E700BF100000201400002001FB00F0AC
:100E8000044981FB00310144C017C0EBE11080B27E
:100E9000704700BF81808080064A13680133136069
:100EA00042F20F72934204D90023024A1360024AAD
:100EB0001360704770060020000000201E4B1B7856
:100EC0001E4A12789A4234D01D4AD25CAA2A0BD00C
:100ED00001335A4203F07F0302F07F0258BF5342AE
:100EE000154A13700020704701335A4203F07F0304
:100EF00002F07F0258BF5342DBB2114AD25C552A3E
:100F00000BD001335A4203F07F0302F07F0258BF37
:100F10005342094A13700020704701335A4203F0CC
:100F20007F0302F07F0258BF5342034A137001202F
:100F300070470020704700BF3807002039070020A5
:100F4000B8060020F0B589B000250095284B5A6CF2
:100F500042F010025A645A6C02F010020092009A99
:100F600001951A6B42F002021A631A6B02F0020238
:100F70000192019A02951A6B42F002021A631B6BEE
:100F800003F002030293029B80230393022604963C
:100F9000012305930323069307270797154C03A9FD
:100FA000204600F0FFFD40230393079703A9204646
:100FB00000F0F8FD104C114B2360A5604FF4E133B5
:100FC0006360E56025610C236361204602F0ADFAA1
:100FD0002268D36843F02003D36032462946252097
:100FE00000F05EFD252000F093FD09B0F0BD00BFCC
:100FF0000038024000040240780600200010014042
:101000000C4B93F800C00CF101035A4203F07F032C
:1010100002F07F0258BF5342DBB2074A12789A426D
:1010200005D000F80C10034A13700020704701200F
:10103000704700BF390700203807002000B58646FA
:101040004FF0000C4FF6FF700FE0400080B201330C
:10105000072B08DC10F4004FF7D048F2050282EAB3
:10106000400080B2F3E70CF1010C8C4505DA1EF864
:101070000C3080EA03200023EAE75DF804FB844695
:101080000023184606E01CF80320D9008A401043CC
:1010900080B20133032BF6DD7047000030B585B018
:1010A000FFF70CFF00284AD0274B1C78AA238DF8A5
:1010B000043055238DF80530244B1B5D8DF8063028
:1010C000032310E00134624204F07F0402F07F0247
:1010D00058BF5442E4B21D4A115D03F110026A4444
:1010E00002F80C1C01330A2BECDD0B2101A8FFF7E1
:1010F000A5FF0546002310E00134624204F07F049E
:1011000002F07F0258BF5442E4B2104A115D03F16D
:1011100010026A4402F8101C0133012BECDD684612
:10112000FFF7ADFF85420CD00134634204F07F0429
:1011300003F07F0358BF5C42034B1C70002005B0D6
:1011400030BD0120FBE700BF38070020B8060020B3
:101150004FF0000C60466146BCF1070F24DC30B54F
:10116000124C237801335A4203F07F0302F07F02CE
:1011700058BF5342DBB223700D4AD35C4FEACC0414
:10118000A4F12002C4F1200503FA02F223FA05F5C6
:1011900042EA050EA34018434EEA01010CF1010C8E
:1011A000BCF1070FDCDD30BD704700BF3807002001
:1011B000B806002008B52DED028B60E0594B4FF4C6
:1011C00080329A61FFF7C4FF57490B7803335A42C4
:1011D00003F07F0302F07F0258BF53420B704EE0D2
:1011E000FFF7B6FF00EE100AB8EE400AFFF722FB49
:1011F000B0EE408AFFF7DAFA10E00A2000F024FC93
:101200004A4B93ED000AB8EEC00A494BD3ED007A81
:1012100030EE270A83ED000AFFF7ECFD444BD3EDD7
:10122000007AF4EEC87AF1EE10FAE6D43E490B7873
:1012300003335A4203F07F0302F07F0258BF534248
:101240000B701CE03B4B4FF4000199610332534299
:1012500002F07F0203F07F0358BF5A42324B1A70EC
:10126000344B4FF080729A612F490B7803335A4206
:1012700003F07F0302F07F0258BF53420B70FFF769
:101280000DFF012849D1284B1A782B4B9B5C103B52
:10129000062B42D801A151F823F000BFBD11000870
:1012A000E11100084512000861120008B912000897
:1012B000D5120008F3120008FFF79AFA1A490B78C2
:1012C0000B335A4203F07F0302F07F0258BF5342B0
:1012D0000B70D4E7134B4FF4003199610332534242
:1012E00002F07F0203F07F0358BF5A420E4B1A7080
:1012F000C5E7104B4FF400029A61012383F3138872
:10130000BFF34F8F0D49CA6802F4E0620C4B1343E0
:10131000CB60BFF34F8F00BFFDE74FF0FF30BDEC58
:10132000028B08BD00180240380700200000002092
:101330002001002000100240B806002000ED00E06F
:101340000400FA0572B6FEE710B594B000240F94BD
:1013500010941194129413943022214603A802F0A1
:10136000B1FB01942F4B1A6C42F080521A641B6C33
:1013700003F080530193019B02942B4B1A6842F4B3
:1013800080421A601B6803F480430293029B01238E
:1013900003934FF480330493022309934FF48002A4
:1013A0000A9208220B924FF4A8720C920D93042318
:1013B0000E9303A800F0F6FC48BB0F230F93022303
:1013C0001093002311934FF4A05312934FF48053C2
:1013D000139305210FA800F04BFFD0B900F048FB94
:1013E00041F20103984216D000F0F2FF0F4BA3FB2D
:1013F0000030800900F09AFB042000F0ABFB0022D3
:1014000011464FF0FF3000F04BFB14B010BDFFF75A
:1014100099FFFFF797FF064A136843F48073136040
:10142000E2E700BF0038024000700040D34D621078
:10143000003C024010B52DED028B00F0D9FAFFF709
:1014400083FFFFF753F9FFF7B9F8FFF7D9F8FFF774
:1014500079FDFFF76DFB9FED260AFFF7CBFC01201E
:10146000FFF788FC234801F009F900242DE0224B06
:101470004FF480329A619FED210AFFF7DBF9B0EE5D
:10148000408AFFF793F910E00A2000F0DDFA1C4BC8
:1014900093ED000AB8EEC00A1A4BD3ED007A30EE95
:1014A000270A83ED000AFFF7A5FC164BD3ED007A5F
:1014B000F4EEC87AF1EE10FAE6D484F001044FF4A9
:1014C00000611148FFF700F978B1FFF773FE0221C0
:1014D0000E48FFF7F9F80028F1D1002CC7D0064BD1
:1014E00001229A61FFF784F9E7E7FFF781F9ECE75A
:1014F00000000000E0050020001802400000E14468
:1015000000000020200100200014024000040240DE
:10151000F0B591B0002401942E4B5A6C42F48052E5
:101520005A645A6C02F480520192019A02941A6B26
:1015300042F001021A631A6B02F001020292029A4F
:1015400003941A6B42F001021A631A6B02F0010253
:101550000392039A04941A6B42F001021A631A6B05
:1015600002F001020492049A05941A6B42F00802F8
:101570001A631B6B03F008030593059B20230B9351
:1015800002250C950E950D9405230F93124E0BA971
:10159000304600F007FB40230B930BA9304600F0C8
:1015A00001FB80230B930BA9304600F0FBFA4FF4AC
:1015B000806606960127079709950894074C06A9A7
:1015C000204600F0EFFA3A463146204600F0E3FBB1
:1015D00011B0F0BD0038024000000240000C024093
:1015E000F0B591B0002401942E4B1A6C42F40042E5
:1015F0001A641A6C02F400420192019A02941A6B66
:1016000042F002021A631A6B02F002020292029A7C
:1016100003941A6B42F002021A631A6B02F0020280
:101620000392039A04941A6B42F002021A631A6B33
:1016300002F002020492049A05941A6B42F04002EE
:101640001A631B6B03F040030593059B08230B9360
:1016500002250C950E950D9406230F93124E0BA99F
:10166000304600F09FFA10230B930BA9304600F090
:1016700099FA20230B930BA9304600F093FA4FF40C
:10168000806606960127079709950894074C06A9D6
:10169000204600F087FA3A463146204600F07BFBB0
:1016A00011B0F0BD003802400004024000180240B2
:1016B00010B582B000230193144A516C41F480515B
:1016C0005164526C02F480520192019A104C114AFA
:1016D0002260A3604FF4827262600F22E2624FF4D4
:1016E0000062E26023621822E2614FF40072A2619C
:1016F000236101236361204600F091FE2268136894
:1017000043F04003136002B010BD00BF0038024038
:101710003C0700200030014010B582B00023019347
:10172000144A116C41F400411164126C02F400423D
:101730000192019A104C114A2260A3604FF4827208
:1017400062600F22E2624FF40062E26023621822BC
:10175000E2614FF40072A2612361012363612046BC
:1017600000F05DFE2268136843F04003136002B08E
:1017700010BD00BF0038024094070020003C00402C
:1017800008B5FFF7C5FEFFF72BFFFFF791FFFFF747
:10179000C3FF08BD38B504460D460221204600F0BF
:1017A000A2FE0028F9D02946204600F097FE01212C
:1017B000204600F098FE0028F9D0204600F090FE68
:1017C00038BD000070B50C46284B984227D0284DF4
:1017D00000224FF48061284600F0DDFA254E2146B4
:1017E0003046FFF7D7FF01224FF48061284600F012
:1017F000D2FA0A2000F028F900224FF4806128462E
:1018000000F0C9FA21463046FFF7C4FF0446012222
:101810004FF48061284600F0BEFA204670BD164D98
:1018200000224FF48061284600F0B5FA0F4E2146A1
:101830003046FFF7AFFF01224FF48061284600F0E9
:10184000AAFA0A2000F000F900224FF4806128462D
:1018500000F0A1FA21463046FFF79CFF0446012222
:101860004FF48061284600F096FAD6E70030014038
:1018700000180240003C0040000C024000B583B05C
:10188000002200920D4B596C41F480415964596C0F
:1018900001F48041009100990192196C41F080514E
:1018A00019641B6C03F080530193019B0F216FF0AF
:1018B000010000F0F5F803B05DF804FB00380240C9
:1018C000FEE7FEE7FEE7FEE7FEE7704708B500F03B
:1018D000A9F800F04FF902F0C1F8012800D108BDC5
:1018E00001F0B8FFFBE7000010B50D4B1B685A680C
:1018F000DA6812F0200F09D1094C204601F0A4FE4D
:101900002268D36843F02003D36010BD5968C9B280
:101910000448FFF775FB024B1B68034A1A60EBE7AC
:1019200078060020B8060020DFFFFFEF08B5024868
:1019300000F0EDFE08BD00BFE0050020034AD2F82C
:10194000883043F47003C2F88830704700ED00E03F
:10195000DFF834D00D480E490E4A002302E0D45877
:10196000C4500433C4188C42F9D30B4A0B4C0023E7
:1019700001E013600432A242FBD3FFF7DFFF02F065
:101980007DF8FFF757FD704700000220000000209F
:101990005C050020903C00085C050020AC0800209D
:1019A000FEE7000010B504460E4B18784FF47A732A
:1019B000B3FBF0F30C4A1068B0FBF3F000F0B6F89C
:1019C00068B90F2C01D901200AE0002221464FF00E
:1019D000FF3000F065F8054B1C60002000E001209E
:1019E00010BD00BF28010020240100202C01002090
:1019F00008B50B4B1A6842F400721A601A6842F478
:101A000080621A601A6842F480721A60032000F043
:101A100035F80F20FFF7C6FFFFF730FF002008BDA5
:101A2000003C0240034A1168034B1B780B441360CF
:101A3000704700BFEC07002028010020014B186808
:101A4000704700BFEC07002038B50446FFF7F6FFEB
:101A50000546B4F1FF3F02D0044B1B781C44FFF74E
:101A6000EDFF401BA042FAD338BD00BF2801002083
:101A7000014B1868000C7047002004E0074AD36847
:101A800023F4E0631B041B0C000200F4E06003433A
:101A900043F0BF6343F40033D360704700ED00E0D0
:101AA00000B5194BDB68C3F30223C3F1070CBCF18B
:101AB000040F28BF4FF0040C03F1040EBEF1060F13
:101AC00018D9033B4FF0FF3E0EFA0CFC21EA0C0143
:101AD00099400EFA03F322EA0303194300280BDBB3
:101AE0000901C9B200F1604000F5614080F80013BF
:101AF0005DF804FB0023E5E700F00F000901C9B21F
:101B0000024B1954F4E700BF00ED00E014ED00E0D3
:101B1000002807DB00F01F02400901239340024A1E
:101B200042F82030704700BF00E100E00138B0F11A
:101B3000807F0BD24FF0E0235861054AF02182F8F4
:101B400023100020986107221A6170470120704716
:101B500000ED00E0042806D04FF0E022136923F0E6
:101B60000403136170474FF0E022136943F004034C
:101B70001361704708B5FFF78FF908BD90F835304D
:101B8000DBB2022B03D0802343650120704705237D
:101B900080F835300268136823F0010313600020D9
:101BA0007047000000230F2B00F2E48070B582B074
:101BB00060E085685E000324B44025EA0405CC6833
:101BC000B4402C438460456825EA02054C68C4F3A0
:101BD00000129A402A4342605AE0DC08083450F868
:101BE000246003F0070295000F22AA4026EA020EA5
:101BF0000A69AA4042EA0E0240F824205CE007226B
:101C000000E0002202FA0EF22A4302345A4D45F84F
:101C100024205A4A94686FEA0C0224EA0C054E68A4
:101C200016F4801F01D04CEA0405544CA560E4680A
:101C300002EA04054E6816F4001F01D04CEA0405C0
:101C40004E4CE560646802EA04054E6816F4003FF5
:101C500001D04CEA0405494C6560246822404D6877
:101C600015F4803F01D04CEA0402444C2260013359
:101C70000F2B7DD801229A400C6804EA020C32EA4C
:101C80000404F4D14C6804F00304013C012C90D905
:101C90004A6802F00302032A09D0C4685D000322E7
:101CA000AA4024EA02048A68AA402243C2604A6821
:101CB00002F00302022A90D004684FEA430E032286
:101CC00002FA0EF224EA02044A6802F0030202FA5F
:101CD0000EF2224302604A6812F4403FC7D000224D
:101CE0000192274A546C44F480445464526C02F4C8
:101CF00080420192019A9C08A51C1F4A52F8255067
:101D000003F003024FEA820E0F2202FA0EF225EAD6
:101D100002051C4A90423FF474AF02F58062904283
:101D20001AD002F58062904218D002F5806290428B
:101D300016D002F58062904214D002F58062904283
:101D400012D002F58062904210D002F5806290427B
:101D50003FF455AF082255E7012253E7022251E72D
:101D600003224FE704224DE705224BE7062249E70D
:101D700002B070BD704700BF00380140003C014018
:101D800000380240000002400369194201D00120DE
:101D90007047002070470AB1816170470904816172
:101DA00070470000002800F0E08170B582B0044662
:101DB000036813F0010F3BD09F4B9B6803F00C03AB
:101DC000042B2CD09C4B9B6803F00C03082B21D0D8
:101DD0006368B3F5803F4FD0B3F5A02F52D0964B38
:101DE0001A6822F480321A601A6822F480221A607B
:101DF0006368002B50D0FFF721FE05468E4B1B6811
:101E000013F4003F14D1FFF719FE401B6428F5D9E5
:101E10000320B1E1884B5B6813F4800FD8D0864B68
:101E20001B6813F4003F03D06368002B00F09F8110
:101E3000236813F0020F54D07F4B9B6813F00C0FF4
:101E40003ED07D4B9B6803F00C03082B33D0E36836
:101E5000002B68D0794B01221A60FFF7EFFD054691
:101E6000754B1B6813F0020F54D1FFF7E7FD401BC1
:101E70000228F5D903207FE16F4A136843F48033C9
:101E80001360B5E76C4B1A6842F480221A601A6836
:101E900042F480321A60ABE7FFF7D0FD0546664B8F
:101EA0001B6813F4003FC3D0FFF7C8FD401B642834
:101EB000F5D9032060E1604B5B6813F4800FC6D155
:101EC0005D4B1B6813F0020F03D0E368012B40F059
:101ED0005081594A136823F0F803216943EAC1038A
:101EE0001360236813F0080F42D063696BB3534B40
:101EF0000122C3F8802EFFF7A1FD05464E4B5B6F14
:101F000013F0020F34D1FFF799FD401B0228F5D9D9
:101F1000032031E1484A136823F0F803216943EABA
:101F2000C1031360DDE7454B00221A60FFF786FD11
:101F30000546414B1B6813F0020FD2D0FFF77EFD20
:101F4000401B0228F5D9032016E13C4B0022C3F8C0
:101F5000802EFFF773FD0546374B5B6F13F0020FC2
:101F600006D0FFF76BFD401B0228F5D9032003E1E3
:101F7000236813F0040F77D02F4B1B6C13F0805F96
:101F800033D1002301932C4B1A6C42F080521A6417
:101F90001B6C03F080530193019B0125284B1B68A8
:101FA00013F4807F23D0A368012B34D0052B38D0C5
:101FB000214B1A6F22F001021A671A6F22F00402F5
:101FC0001A67A368002B3DD0FFF738FD06461A4B71
:101FD0001B6F13F0020F46D1FFF730FD801B41F25B
:101FE00088339842F3D90320C6E00025D6E7144A87
:101FF000136843F480731360FFF720FD0646104B0F
:102000001B6813F4807FCED1FFF718FD801B0228D8
:10201000F5D90320B0E0084A136F43F001031367BA
:10202000CFE7054B1A6F42F004021A671A6F42F0AD
:1020300001021A67C5E700BF0038024000004742AE
:1020400000700040FFF7FAFC0646524B1B6F13F07E
:10205000020F08D0FFF7F2FC801B41F28833984250
:10206000F3D9032088E0EDB9A369002B00F0838049
:10207000484A926802F00C02082A51D0022B17D06D
:10208000454B00221A66FFF7D9FC0446414B1B68FA
:1020900013F0007F42D0FFF7D1FC001B0228F5D9D6
:1020A000032069E03B4A136C23F080531364DBE7A1
:1020B000394B00221A66FFF7C1FC0546354B1B68F9
:1020C00013F0007F06D0FFF7B9FC401B0228F5D9BA
:1020D000032051E0E369226A1343626A43EA8213F0
:1020E000A26A5208013A43EA0243E26A43EA0263FF
:1020F000284A5360284B01221A66FFF79FFC0446CA
:10210000244B1B6813F0007F06D1FFF797FC001BE0
:102110000228F5D903202FE000202DE000202BE03D
:10212000012B2BD01B4B5B6803F48001E2699142C9
:1021300026D103F03F02216A8A4223D1616A47F621
:10214000C0721A40B2EB811F1ED103F44031A26A63
:102150005208013AB1EB024F18D103F07063E26A02
:10216000B3EB026F14D1002006E00120704701207C
:1021700002E0012000E0002002B070BD0120FBE77A
:102180000120F9E70120F7E70120F5E70120F3E757
:102190000120F1E7003802400000474208B5314B0A
:1021A0009B6803F00C03042B57D0082B57D12D4B01
:1021B0005A6802F03F025B6813F4800F2AD0294B63
:1021C0005968C1F3881C4FEA4C11B1EB0C006EEB5F
:1021D0000E0E4FEA8E1343EA90638101091A63EBF6
:1021E0000E03DB0043EA5173C90011EB0C0C43F101
:1021F0000003590200234FEA4C2041EADC51FDF76D
:10220000E7FF184B5B68C3F3014301335B00B0FB8E
:10221000F3F025E0134B5968C1F3881C4FEA4C11C9
:10222000B1EB0C006EEB0E0E4FEA8E1343EA906397
:102230008101091A63EB0E03DB0043EA5173C90005
:1022400011EB0C0C43F10003990200234FEA8C20A0
:1022500041EA9C51FDF7BCFFD3E7034800E0034887
:1022600008BD00BF0038024000127A000024F400CC
:10227000002800F09B8070B50D4604464F4B1B684C
:1022800003F007038B4208D2CBB24C4A1370136899
:1022900003F007038B4240F08B80236813F0020F9A
:1022A00017D013F0040F04D0454A936843F4E05369
:1022B0009360236813F0080F04D0414A936843F4F5
:1022C000604393603E4A936823F0F003A1680B4398
:1022D0009360236813F0010F32D06368012B21D083
:1022E0009A1E012A25D9364A126812F0020F61D0CF
:1022F00033498A6822F0030213438B60FFF79EFB89
:1023000006462F4B9B6803F00C036268B3EB820F09
:1023100016D0FFF793FB801B41F288339842F0D927
:10232000032042E0264A126812F4003FE0D1012067
:102330003BE0234A126812F0007FD9D1012034E03B
:102340001E4B1B6803F00703AB4207D9EAB21B4BD5
:102350001A701B6803F00703AB422DD1236813F0FA
:10236000040F06D0164A936823F4E053E1680B4348
:102370009360236813F0080F07D0114A936823F481
:102380006043216943EAC1039360FFF707FF0C4BE9
:102390009B68C3F303130B4AD35CD8400A4B186005
:1023A0000A4B1868FFF7FEFA002070BD0120704745
:1023B0000120FAE70120F8E70120F6E7003C02409F
:1023C00000380240603C0008240100202C0100205D
:1023D000014B1868704700BF2401002008B5FFF7C3
:1023E000F7FF044B9B68C3F38223034AD35CD840B6
:1023F00008BD00BF00380240703C000808B5FFF778
:10240000E7FF044B9B68C3F34233034AD35CD840D5
:1024100008BD00BF00380240703C0008704700282B
:102420005AD010B50446436A33B94368B3F5827F86
:1024300005D00023C36102E0002303614361002350
:10244000A36294F85130002B40D0022384F851301D
:102450002268136823F040031360636803F48273F7
:10246000A26802F404421343E26802F400621343D8
:10247000226902F002021343626902F0010213436F
:10248000A26902F400721343E26902F038021343B6
:10249000226A02F080021343A26A02F40052216809
:1024A00013430B60638B03F00403626A02F01002B3
:1024B000216813434B602268D36923F40063D3611E
:1024C00000206065012384F8513010BD84F850303D
:1024D0002046FFF7A3FFB8E701207047C1607047AF
:1024E000C06880B270478368194201D001207047EC
:1024F0000020704730B4036A23F001030362036ACB
:102500004268846924F073040D682C4323F0020CA4
:102510008B6843EA0C03104DA84203D005F5806593
:10252000A84205D123F00803CD682B4323F0040310
:10253000094DA84203D005F58065A84205D122F4D3
:1025400040724D692A438D692A43426084614A681A
:102550004263036230BC70470000014030B4036A3C
:1025600023F480730362036A4268C46924F0730C25
:102570000C6844EA0C0523F400738C6843EA0423D6
:10258000114CA04203D004F58064A04206D123F48C
:102590000063CC6843EA042323F480630A4CA0421E
:1025A00003D004F58064A04207D122F440524C6964
:1025B00042EA04128C6942EA04124260C5614A6828
:1025C000C263036230BC70470000014030B4036A4C
:1025D00023F480530362036A4468C26922F4E6422A
:1025E0000D6842EA052223F400538D6843EA05335F
:1025F000094DA84203D005F58065A84204D124F412
:1026000080444D6944EA85144460C2614A680264AA
:10261000036230BC704700BF0000014010B4036A81
:10262000046A24F001040462846924F0F00C4CEA8A
:10263000021223F00A030B43826103625DF8044B2C
:10264000704710B4046A24F0100404628469036AB9
:1026500024F4704C4CEA023223F0A00343EA011345
:10266000826103625DF8044B7047836823F0700356
:102670000B4343F0070383607047000090F83D3040
:10268000DBB2012B37D1022380F83D300268D368DA
:1026900043F00103D3600368194A934220D0B3F199
:1026A000804F1DD0A2F57C42934219D002F5806282
:1026B000934215D002F58062934211D002F5784220
:1026C00093420DD002F57052934209D0A2F5943294
:1026D000934205D01A6842F001021A600020704748
:1026E0009A6802F00702062A07D01A6842F001022F
:1026F0001A6000207047012070470020704700BF1B
:10270000000001407047704770477047704710B530
:10271000044603681A6912F0020F11D0DA6812F049
:10272000020F0DD06FF002021A61012303770368D4
:102730009B6913F0030F70D0FFF7E6FF00232377A8
:1027400023681A6912F0040F12D0DA6812F0040F2D
:102750000ED06FF004021A610223237723689B696D
:1027600013F4407F5FD02046FFF7CEFF002323778E
:1027700023681A6912F0080F12D0DA6812F0080FF5
:102780000ED06FF008021A61042323772368DB69F7
:1027900013F0030F4ED02046FFF7B6FF0023237738
:1027A00023681A6912F0100F12D0DA6812F0100FB5
:1027B0000ED06FF010021A61082323772368DB69BB
:1027C00013F4407F3DD02046FFF79EFF0023237780
:1027D00023681A6912F0010F03D0DA6812F0010FB2
:1027E00036D123681A6912F0800F03D0DA6812F02C
:1027F000800F34D123681A6912F0400F03D0DA68D1
:1028000012F0400F32D123681A6912F0200F03D062
:10281000DA6812F0200F30D110BDFFF774FF2046A8
:10282000FFF773FF8AE72046FFF76DFF2046FFF7AB
:102830006CFF9BE72046FFF766FF2046FFF765FF2A
:10284000ACE72046FFF75FFF2046FFF75EFFBDE7DE
:102850006FF001021A612046FEF772F9C1E76FF0CE
:1028600080021A61204600F089FCC3E76FF0400245
:102870001A612046FFF74AFFC5E76FF020021A6190
:10288000204600F07AFCC7E70368304A904212D035
:10289000B0F1804F0FD0A2F57C4290420BD002F5F0
:1028A0008062904207D002F58062904203D002F528
:1028B0007842904203D123F070034A681343234ABD
:1028C00090422AD0B0F1804F27D0A2F57C429042AE
:1028D00023D002F5806290421FD002F580629042C0
:1028E0001BD002F57842904217D002F57052904208
:1028F00013D002F5806290420FD002F580629042C0
:102900000BD0A2F59832904207D002F58062904237
:1029100003D002F58062904203D123F44073CA6869
:10292000134323F080034A69134303608B68C36237
:102930000B688362054B984203D003F5806398428D
:1029400001D10B690363012343617047000001401B
:1029500040B310B5044690F83D30F3B1022384F83B
:102960003D30214651F8040BFFF78EFF012384F818
:10297000463084F83E3084F83F3084F8403084F8A4
:10298000413084F8423084F8433084F8443084F88D
:10299000453084F83D30002010BD80F83C30FFF712
:1029A000B1FEDBE70120704730B4036A23F0100367
:1029B0000362036A4468826922F4E6420D6842EACF
:1029C000052223F020038D6843EA0513114DA84228
:1029D00003D005F58065A84206D123F08003CD68B9
:1029E00043EA051323F040030A4DA84203D005F53E
:1029F0008065A84207D124F440644D6944EA850407
:102A00008D6944EA8504446082614A688263036296
:102A100030BC70470000014038B590F83C30012BC5
:102A200066D004460D46012380F83C300C2A5AD863
:102A3000DFE802F0075959591B595959305959596A
:102A400044000068FFF756FD2268936943F00803CD
:102A500093612268936923F0040393612268936968
:102A600029690B43936100203EE00068FFF79CFF5B
:102A70002268936943F4006393612268936923F4A5
:102A80008063936122689369296943EA0123936112
:102A9000002029E00068FFF761FD2268D36943F058
:102AA0000803D3612268D36923F00403D361226849
:102AB000D36929690B43D361002015E00068FFF753
:102AC00085FD2268D36943F40063D3612268D3692A
:102AD00023F48063D3612268D369296943EA01231F
:102AE000D361002000E00120002384F83C3038BD91
:102AF0000220FCE770B49446046A24F001040462E6
:102B00008469066A184DA8421CD0B0F1804F19D0D4
:102B1000164A904216D002F58062904212D002F519
:102B2000806290420ED002F5784290420AD002F5BF
:102B30007052904206D0A2F59432904202D044F0F6
:102B4000010203E024F0030242EA0C0222F0F00248
:102B50001B01DBB2134326F00A0201F00A01114304
:102B60008361016270BC70470000014000040040B6
:102B700010B4846824F47F4C42EA03220A4342EAF8
:102B80000C0282605DF8044B704790F83C30012BDA
:102B900078D010B50446012380F83C30022380F839
:102BA0003D300268936823F47F4323F077039360FA
:102BB0000B68602B4CD029D8402B54D00CD9502B0B
:102BC00022D1CA6849680068FFF728FD50212068B3
:102BD000FFF74BFD002005E0202B0DD009D9302B4D
:102BE0000AD00120012384F83D30002384F83C30D2
:102BF00010BD0BB1102B05D119462068FFF735FD2C
:102C00000020EFE70120EDE70120EBE7B3F5805F5F
:102C100034D0B3F5005F0CD1CB684A68896800688E
:102C2000FFF7A6FF2268936843F480439360002077
:102C3000D8E7702B24D1CB684A6889680068FFF711
:102C400097FF2268936843F0770393600020C9E7F9
:102C5000CA6849680068FFF7F4FC60212068FFF744
:102C600004FD0020BEE7CA6849680068FFF7D6FC8B
:102C700040212068FFF7F9FC0020B3E70020B1E70E
:102C80000120AFE70220704701F01F01012303FA82
:102C900001FC036A23EA0C030362036A02FA01F1EE
:102CA0000B4303627047000010B504460846002934
:102CB00042D194F83E30DBB2013B18BF0123002B18
:102CC0006ED1002851D1022384F83E300122014602
:102CD0002068FFF7D9FF2368334A934203D002F5F7
:102CE0008062934203D15A6C42F400425A642368D2
:102CF0002D4A934249D0B3F1804F46D0A2F57C4291
:102D0000934242D002F5806293423ED002F5806247
:102D100093423AD002F57842934236D002F570528F
:102D2000934232D0A2F5943293422ED01A6842F0E8
:102D300001021A60002032E0042908D008290DD0D1
:102D400094F84130DBB2013B18BF0123B7E794F898
:102D50003F30DBB2013B18BF0123B0E794F84030AD
:102D6000DBB2013B18BF0123A9E7042805D00828DE
:102D700007D0022384F84130A8E7022384F83F30CB
:102D8000A4E7022384F84030A0E79A6802F0070223
:102D9000062A07D01A6842F001021A60002010BD0E
:102DA0000120FCE70020FAE70000014038B50446A6
:102DB0000D4600220068FFF767FF23681D4A934213
:102DC00018D002F58062934214D02368196A41F248
:102DD0001112114208D1196A40F24442114203D142
:102DE0001A6822F001021A609DB9012384F83E306E
:102DF000002038BD196A41F211121142E5D1196A59
:102E000040F244421142E0D15A6C22F400425A642A
:102E1000DBE7042D05D0082D07D0012384F84130CD
:102E2000E6E7012384F83F30E2E7012384F84030ED
:102E3000DEE700BF0000014001F01F01042303FA98
:102E400001FC036A23EA0C030362036A02FA01F13C
:102E50000B43036270477047002865D070B588B097
:102E60000E46044690F83D30002B58D0022384F8DB
:102E70003D30214651F8040BFFF706FDB3680322ED
:102E800031682068FFF736FE2268936923F00C034F
:102E900093612268936971680B4393612268536858
:102EA00043F0800353602268936823F070039360BB
:102EB0002268936843F0400393602268936823F08C
:102EC000070393602268936843F00403936000252E
:102ED0000595069570230193079504950395F3686E
:102EE000029301A92068FFF75FFD2268536823F071
:102EF000700353602268536843F05003536001230A
:102F000084F8463084F83E3084F83F3084F842300C
:102F100084F8433084F83D30284608B070BD80F80E
:102F20003C30FFF798FFA1E70120704710B5044639
:102F3000084600293BD194F84230DBB2013B18BF70
:102F40000123002B67D100284AD1022384F84230A4
:102F5000042201462068FFF76FFF2268536C43F498
:102F60000043536423682E4A934249D0B3F1804F03
:102F700046D0A2F57C42934242D002F58062934251
:102F80003ED002F5806293423AD002F578429342F5
:102F900036D002F57052934232D0A2F59432934269
:102FA0002ED01A6842F001021A60002032E0042993
:102FB00008D008290DD094F84530DBB2013B18BF8A
:102FC0000123BEE794F84330DBB2013B18BF012375
:102FD000B7E794F84430DBB2013B18BF0123B0E7F8
:102FE000042805D0082807D0022384F84530AFE72D
:102FF000022384F84330ABE7022384F84430A7E788
:103000009A6802F00702062A07D01A6842F0010205
:103010001A60002010BD0120FCE70020FAE700BF85
:103020000000014038B504460D4600220068FFF755
:1030300003FF2368196A41F21112114208D1196A7B
:1030400040F24442114203D15A6C22F400425A64C5
:103050002368196A41F21112114208D1196A40F22B
:103060004442114203D11A6822F001021A6025B9C4
:10307000012384F84230002038BD042D05D0082DEE
:1030800007D0012384F84530F5E7012384F8433065
:10309000F1E7012384F84430EDE7000090F83C307C
:1030A000012B3DD010B4012380F83C30022380F87E
:1030B0003D3003685A689C6822F0700C0A6842EA46
:1030C0000C025A600368174A93421AD0B3F1804F3A
:1030D00017D0A2F57C42934213D002F5806293424E
:1030E0000FD002F5806293420BD002F578429342F2
:1030F00007D002F57052934203D0A2F59432934266
:1031000004D124F080044A6814439C60012380F8B1
:103110003D30002380F83C3018465DF8044B704782
:10312000022070470000014090F83C30012B22D073
:10313000012380F83C30CB6823F440738A68134342
:1031400023F480634A68134323F400630A6813433B
:1031500023F480530A69134323F400534A69134349
:1031600023F48043CA69134302685364002380F840
:103170003C3018467047022070477047704702681D
:10318000D36823F49073D3600268536923F001037A
:103190005361202380F83A30704790F83930DBB221
:1031A000212B01D0022070478368B3F5805F17D0D0
:1031B000036A5A1C02621A7803685A60C38C9BB275
:1031C000013B9BB2C3844BB90268D36823F08003F0
:1031D000D3600268D36843F04003D3600020704797
:1031E000036A1B880268C3F30803536003691BB9B1
:1031F000036A02330362E1E7036A01330362DDE736
:103200002DE9F84304460268136923F44053C1686A
:103210000B43136183680269134342691343C26914
:103220001A430168CB6823F4164323F00C031343BD
:10323000CB600268536923F4407381690B43536187
:10324000C369B3F5004F5ED00368B54A934200F0FE
:10325000108102F58062934200F00B81FFF7BEF807
:1032600000EB800000EB80006568AD00B0FBF5F579
:10327000AC4FA7FB05356D092E01FFF7AFF800EB4A
:10328000800000EB80006568AD00B0FBF5F5FFF74E
:10329000A5F800EB800000EB800063689B00B0FBAA
:1032A000F3F3A7FB03235B094FF0640808FB1353F8
:1032B0001B013233A7FB03235B0903F0F003F5186E
:1032C000FFF78CF800EB800000EB80006668B6002A
:1032D000B0FBF6F6FFF782F800EB800000EB800011
:1032E00063689B00B0FBF3F0A7FB0030400908FBCC
:1032F000106000013230A7FB0037C7F34317236883
:103300002F449F6009E10368854A93425AD002F531
:103310008062934256D0FFF761F800EB800000EB2B
:10332000800065686D00B0FBF5F57E4FA7FB0535A5
:103330006D094FEA0519FFF751F800EB800000EB2B
:10334000800066687600B0FBF6F6FFF747F800EB02
:10335000800000EB800065686D00B0FBF5F5A7FB11
:1033600005356D094FF0640808FB1565ED00323531
:10337000A7FB05356D096D0005F4F8754D44FFF7A1
:103380002DF800EB800000EB800066687600B0FB53
:10339000F6F6FFF723F800EB800000EB800063688F
:1033A0005B00B0FBF3F3A7FB03235B0908FB13638C
:1033B000DB003233A7FB0337C7F3421723682F44E0
:1033C0009F60AAE0FFF71AF800EB800000EB800096
:1033D00065686D00B0FBF5F5524FA7FB05356D092B
:1033E0004FEA0519FFF70AF800EB800000EB8000B8
:1033F00066687600B0FBF6F6FFF700F800EB800099
:1034000000EB800065686D00B0FBF5F5A7FB0535A6
:103410006D094FF0640808FB1565ED003235A7FB18
:1034200005356D096D0005F4F8754D44FEF7E6FFAE
:1034300000EB800000EB800066687600B0FBF6F6DB
:10344000FEF7DCFF00EB800000EB800063685B00B0
:10345000B0FBF3F3A7FB03235B0908FB1363DB005B
:103460003233A7FB0337C7F3421723682F449F600B
:1034700053E0FEF7C3FF00EB800000EB80006568BF
:10348000AD00B0FBF5F5274FA7FB05356D092E0103
:10349000FEF7B4FF00EB800000EB80006568AD0034
:1034A000B0FBF5F5FEF7AAFF00EB800000EB800013
:1034B00063689B00B0FBF3F3A7FB03235B094FF0AA
:1034C000640808FB13531B013233A7FB03235B097A
:1034D00003F0F003F518FEF791FF00EB800000EB1E
:1034E00080006668B600B0FBF6F6FEF787FF00EBDB
:1034F000800000EB800063689B00B0FBF3F0A7FB4B
:103500000030400908FB106000013230A7FB003793
:10351000C7F3431723682F449F60BDE8F88300BFBB
:10352000001001401F85EB51704758B310B5044699
:1035300090F839300BB3242384F839302268D368EB
:1035400023F40053D3602046FFF75AFE2268136924
:1035500023F4904313612268536923F02A035361D3
:103560002268D36843F40053D3600020E063202333
:1035700084F8393084F83A3010BD80F83830FFF7DD
:10358000D3FFD8E701207047704708B50168CA68C3
:1035900022F04002CA60202280F83920FFF7F4FFB1
:1035A000002008BD704708B590F83A30DBB2222BF6
:1035B00046D18368B3F5805F0FD003690BBB036806
:1035C0005A68836A591C81621A70C38D9BB2013B91
:1035D0009BB2C385F3B1002008BD826A036943B979
:1035E00003685B68C3F308031380836A0233836252
:1035F000EBE703685B68DBB21380836A01338362A5
:10360000E3E703685B68826A511C816203F07F0311
:103610001370DAE70268D36823F02003D3600268EE
:10362000D36823F48073D3600268536923F00103E5
:103630005361202380F83A30FFF7B4FF0020CBE736
:103640000220C9E77047000010B5044602681368FD
:10365000D168526913F00F0005D113F0200F02D08A
:1036600011F0200F13D128B112F0010213D111F47F
:10367000907F10D113F0800F02D011F0800F69D12C
:1036800013F0400F02D011F0400F67D110BD20465B
:10369000FFF789FFFAE713F0010F06D011F4807FDE
:1036A00003D0E06B40F00100E06313F0040F04D09E
:1036B0001AB1E06B40F00200E06313F0020F04D097
:1036C0001AB1E06B40F00400E06313F0080F04D07F
:1036D0001AB1E26B42F00802E263E26B002AD5D035
:1036E00013F0200F02D011F0200F21D123685B6965
:1036F00003F04003E26B12F0080F00D123B3204621
:10370000FFF73DFD23685A6912F0400F18D05A693F
:1037100022F040025A61636B73B1124A1A65606B02
:10372000FEF72CFA0028B1D0606B036D9847ADE727
:103730002046FFF738FFD9E72046FFF783FFA5E7CC
:103740002046FFF77FFFA1E72046FFF77BFF00231E
:10375000E3639BE72046FFF720FD97E72046FFF74E
:1037600014FF93E76937000808B5806B0023C38511
:10377000C384FFF767FF08BD43684B609A688A609F
:103780005160996008610368013303607047036901
:10379000416882688A60416851605A68824206D0F6
:1037A000002202611A68013A1A601868704782683C
:1037B0005A60F5E700000000000000000000000073
:1037C000074B19680868B0E8F04F80F30988BFF329
:1037D0006F8F4FF0000080F311887047AFF30080C7
:1037E000F0070020000000000000000000000000C2
:1037F000EFF30980BFF36F8F154B1A681EF0100F9F
:1038000008BF20ED108A20E9F04F10602DE9090073
:103810004FF0500080F31188BFF34F8FBFF36F8FCD
:1038200000F0D0F84FF0000080F3118809BC19684F
:103830000868B0E8F04F1EF0100F08BFB0EC108A17
:1038400080F30988BFF36F8F704700BFAFF300802C
:10385000F007002008B54FF0500383F31188BFF341
:103860006F8FBFF34F8F00F021F828B14FF0E023A6
:103870004FF08052C3F8042D002383F3118808BD54
:10388000084B1B681B6823B9074B4FF0FF321A60C7
:103890007047044B1B68DB68DB685A68024B1A6090
:1038A000704700BFF407002090080020F8B53A4B9D
:1038B0001B68002B69D1394B1D6801351D60C5B9E6
:1038C000374B1B681B6843B14FF0500383F31188DB
:1038D000BFF36F8FBFF34F8FFEE7314A1168314B53
:1038E000186810601960304A136801331360FFF7DD
:1038F000C7FF2E4B1B68AB423DD900272C4B1B68E2
:10390000DB6A03EB83039A002A4B9B58012B00D9F7
:103910000127294B1B68002B3CD001273AE00127E7
:103920001F4B1B681B6843B31D4B1B68DB68DC68BF
:1039300063689D4226D3261D3046FFF728FFA36A01
:103940001BB104F11800FFF722FFE36A01229A403D
:103950001A49086802430A6003EB83039A00314660
:1039600014481044FFF708FFE26A114B1B68DB6A3A
:103970009A42D4D2D4E70027D2E70C4B4FF0FF3263
:103980001A60BBE7094A1360B8E70D4A13680133B0
:10399000136000273846F8BD88080020A0080020E2
:1039A000F4070020F8070020940800209008002069
:1039B000F0070020FC070020A40800208C0800204D
:1039C00098080020204B1B681BB1204B01221A6075
:1039D00070471E4B00221A601D4B1B68B3FA83F31D
:1039E000DBB2C3F11F0303EB83018A0019498A5834
:1039F00042B94FF0500383F31188BFF36F8FBFF3C9
:103A00004F8FFEE7134903EB830082000A4450689E
:103A10004068506003EB830C4FEA8C02083211447B
:103A2000884209D003EB83039A000A4B13445B6876
:103A3000DA68094B1A607047406862469100054A8F
:103A40000A445060EEE700BF88080020A408002068
:103A50008C080020FC070020F0070020054B1B68A5
:103A600033B1054B1B680BB1002070470220704733
:103A7000012070479C0800208808002070B50D4E7A
:103A80000D4D761BB61006D0002455F8043B0134CA
:103A90009847A642F9D1094E094D761B00F0D4F89B
:103AA000B61006D0002455F8043B01349847A642CE
:103AB000F9D170BD843C0008843C00088C3C0008AF
:103AC000843C0008830730B548D0541E002A3FD0FC
:103AD000CAB2034601E0013C3AD303F8012B9D072B
:103AE000F9D1032C2DD9CDB245EA05250F2C45EA95
:103AF000054536D9A4F1100222F00F0C03F1200E77
:103B0000E6444FEA121C03F1100242E9045542E96F
:103B1000025510327245F8D10CF1010214F00C0F6D
:103B200003EB021204F00F0C13D0ACF1040323F0EA
:103B300003030433134442F8045B9342FBD10CF0BB
:103B400003042CB1CAB21C4403F8012B9C42FBD1E4
:103B500030BD64461346002CF4D1F9E70346144601
:103B6000BFE71A46A446E0E7024B13B1024800F053
:103B700005B8704700000000893B0008002301469B
:103B80001A46184600F01AB838B5084B084D5B1BAA
:103B90009C1007D0043B1D44013C55F8043998475C
:103BA000002CF9D1BDE8384000F054B8903C000832
:103BB0008C3C0008704700BF704700BF2DE9F047FC
:103BC000DFF880A00646DAF8000098460F469146D6
:103BD000FFF7F0FF1A4B1B68D3F8484124B3656820
:103BE0001F2D26DC5EB96B1C0235DAF8000063601D
:103BF00044F82570FFF7E0FF0020BDE8F08704EBF4
:103C000085010123C1F88890D4F88821AB401A437C
:103C1000022EC4F88821C1F80881E4D1D4F88C219F
:103C20001343C4F88C31DEE703F5A674C3F84841AA
:103C3000D5E7DAF80000FFF7BFFF4FF0FF30DCE711
:103C4000783C000858050020F8B500BFF8BC08BC57
:103C50009E467047F8B500BFF8BC08BC9E4670474A
:103C6000000000000000000001020304060708092C
:0C3C7000000000000102030430010020ED
:083C7C0084C5FF7F0100000078
:083C8400693B0008B5010008CE
:043C8C00910100089A
:103C9000010000003408000001000100FFFF0000E7
:103CA00018000000CDCC4C3EAA00540100010000D9
:103CB000000306090C0F1215181C1F2225282B2E95
:103CC0003134373A3D4044474A4D4F5255585B5E78
:103CD0006164676A6D6F7275787A7D808385888B81
:103CE0008D909295979A9C9FA1A4A6A8ABADAFB2D8
:103CF000B4B6B8BABCBFC1C3C5C7C9CACCCED0D28E
:103D0000D4D5D7D9DADCDDDFE0E2E3E5E6E7E9EABE
:103D1000EBECEDEFF0F1F2F3F4F4F5F6F7F8F8F977
:103D2000FAFAFBFBFCFCFDFDFDFEFEFEFEFEFEFEC8
:103D3000FFFEFEFEFEFEFEFEFDFDFDFCFCFBFBFAB3
:103D4000FAF9F8F8F7F6F5F4F4F3F2F1F0EFEDEC38
:103D5000EBEAE9E7E6E5E3E2E0DFDDDCDAD9D7D557
:103D6000D4D2D0CECCCAC9C7C5C3C1BFBCBAB8B6FD
:103D7000B4B2AFADABA8A6A4A19F9C9A9795929020
:103D80008D8B888583807D7A7875726F6D6A6764A4
:103D9000615E5B5855524F4D4A4744403D3A373477
:103DA000312E2B2825221F1C1815120F0C09060373
:103DB0000000A0400024F4000100000010000000FA
:103DC000000000001C04002084040020EC040020FB
:103DD00000000000000000000000000000000000E3
:103DE00000000000000000000000000000000000D3
:103DF00000000000000000000000000000000000C3
:103E000000000000000000000000000000000000B2
:103E100000000000000000000000000000000000A2
:103E20000000000000000000000000000000000092
:103E30000000000000000000000000000000000082
:103E40000000000000000000000000000000000072
:103E50000000000000000000000000000000000062
:103E60000000000000000000010000000000000051
:103E70000E33CDAB34126DE6ECDE05000B00000016
:103E80000000000000000000000000000000000032
:103E90000000000000000000000000000000000022
:103EA0000000000000000000000000000000000012
:103EB0000000000000000000000000000000000002
:0C41E0000000000000000000A808002003
:040000050800195185
:00000001FF
