:020000040800F2
:1000000000000220E122000821220008232200082B
:1000100025220008272200082922000800000000ED
:10002000000000000000000000000000914A0008ED
:100030002B22000800000000F14A00082D220008D1
:100040003123000831230008312300083123000840
:100050003123000831230008312300083123000830
:100060003123000831230008312300083123000820
:100070003123000831230008312300083123000810
:100080003123000831230008BD2200083123000875
:1000900031230008312300083123000831230008F0
:1000A0003123000831230008312300088D22000885
:1000B00031230008AD220008312300083123000855
:1000C00031230008312300083123000831230008C0
:1000D0003123000849220008312300083123000899
:1000E00031230008312300083123000831230008A0
:1000F0003123000831230008312300083123000890
:10010000312300083123000831230008312300087F
:1001100031230008312300089D2200083123000804
:10012000312300083123000831230008312300085F
:10013000312300083123000831230008312300084F
:10014000312300083123000831230008312300083F
:10015000312300083123000831230008312300082F
:10016000312300083123000831230008312300081F
:10017000312300083123000831230008000000006B
:080180003123000831230008BF
:1001900010B5054C237833B9044B13B10448AFF3C1
:1001A00000800123237010BD5C04002000000000CB
:1001B0005057000808B5034B1BB103490348AFF380
:1001C000008008BD000000006004002050570008B7
:1001D00081F0004102E000BF83F0004330B54FEAF8
:1001E00041044FEA430594EA050F08BF90EA020F65
:1001F0001FBF54EA000C55EA020C7FEA645C7FEAF8
:10020000655C00F0E2804FEA5454D4EB5555B8BF1A
:100210006D420CDD2C4480EA020281EA030382EA8B
:10022000000083EA010180EA020281EA0303362D1D
:1002300088BF30BD11F0004F4FEA01314FF4801CF0
:100240004CEA113102D0404261EB410113F0004F02
:100250004FEA03334CEA133302D0524263EB4303B9
:1002600094EA050F00F0A780A4F10104D5F1200E57
:100270000DDB02FA0EFC22FA05F2801841F10001B2
:1002800003FA0EF2801843FA05F359410EE0A5F186
:1002900020050EF1200E012A03FA0EFC28BF4CF0B7
:1002A000020C43FA05F3C01851EBE37101F000456D
:1002B00007D54FF0000EDCF1000C7EEB00006EEB7A
:1002C0000101B1F5801F1BD3B1F5001F0CD3490804
:1002D0005FEA30004FEA3C0C04F101044FEA44525B
:1002E00012F5800F80F09A80BCF1004F08BF5FEAE2
:1002F000500C50F1000041EB045141EA050130BDC2
:100300005FEA4C0C404141EB0101013C28BFB1F5D3
:10031000801FE9D291F0000F04BF01460020B1FA1E
:1003200081F308BF2033A3F10B03B3F120020CDAF1
:100330000C3208DD02F1140CC2F10C0201FA0CF0CF
:1003400021FA02F10CE002F11402D8BFC2F1200C34
:1003500001FA02F120FA0CFCDCBF41EA0C019040EA
:10036000E41AA2BF01EB0451294330BD6FEA040433
:100370001F3C1CDA0C340EDC04F11404C4F120021E
:1003800020FA04F001FA02F340EA030021FA04F330
:1003900045EA030130BDC4F10C04C4F1200220FA87
:1003A00002F001FA04F340EA0300294630BD21FAC5
:1003B00004F0294630BD94F0000F83F4801306BF8B
:1003C00081F480110134013D4EE77FEA645C18BF7F
:1003D0007FEA655C29D094EA050F08BF90EA020F16
:1003E00005D054EA000C04BF1946104630BD91EA0E
:1003F000030F1EBF0021002030BD5FEA545C05D111
:100400004000494128BF41F0004130BD14F580044F
:100410003CBF01F5801130BD01F0004545F0FE41C3
:1004200041F470014FF0000030BD7FEA645C1ABFF8
:10043000194610467FEA655C1CBF0B46024650EA2F
:10044000013406BF52EA033591EA030F41F400215B
:1004500030BD00BF90F0000F04BF0021704730B5E1
:100460004FF4806404F132044FF000054FF00001B6
:1004700050E700BF90F0000F04BF0021704730B577
:100480004FF4806404F1320410F0004548BF40424C
:100490004FF000013EE700BF42004FEAE2014FEAA1
:1004A00031014FEA02701FBF12F07F4393F07F4F7C
:1004B00081F06051704732F07F4208BF704793F07F
:1004C0007F4F04BF41F40021704730B54FF4607492
:1004D00001F0004521F000411CE700BF50EA010295
:1004E00008BF704730B54FF000050AE050EA01023E
:1004F00008BF704730B511F0004502D5404261EBAE
:1005000041014FF4806404F132045FEA915C3FF4EE
:10051000D8AE4FF003025FEADC0C18BF03325FEA8B
:10052000DC0C18BF033202EBDC02C2F1200300FA3C
:1005300003FC20FA02F001FA03FE40EA0E0021FA61
:1005400002F11444BDE600BF4FEA410212F5001269
:1005500015D211D56FF47873B3EB625212D94FEA0A
:10056000C12343F0004343EA505311F0004F23FAF4
:1005700002F018BF404270474FF00000704750EA49
:10058000013005D111F0004008BF6FF00040704706
:100590004FF00000704700BF53B94AB9002908BFA7
:1005A00000281CBF4FF0FF314FF0FF3000F074B94E
:1005B000ADF1080C6DE904CE00F006F8DDF804E0BA
:1005C000DDE9022304B070472DE9F047089D044699
:1005D0008E46002B4DD18A42944669D9B2FA82F2F6
:1005E00052B101FA02F3C2F1200120FA01F10CFA32
:1005F00002FC41EA030E94404FEA1C48210CBEFB6A
:10060000F8F61FFA8CF708FB16E341EA034306FBF2
:1006100007F199420AD91CEB030306F1FF3080F081
:100620001F81994240F21C81023E63445B1AA4B2CE
:10063000B3FBF8F008FB103344EA034400FB07F770
:10064000A7420AD91CEB040400F1FF3380F00A81B1
:10065000A74240F207816444023840EA0640E41BA6
:1006600000261DB1D4400023C5E900433146BDE852
:10067000F0878B4209D9002D00F0EF800026C5E9F4
:10068000000130463146BDE8F087B3FA83F6002E0C
:100690004AD18B4202D3824200F2F980841A61EB84
:1006A000030301209E46002DE0D0C5E9004EDDE7A2
:1006B00002B9FFDEB2FA82F2002A40F09280A1EB8A
:1006C0000C014FEA1C471FFA8CFE0126200CB1FBDF
:1006D000F7F307FB131140EA01410EFB03F08842D8
:1006E00008D91CEB010103F1FF3802D2884200F265
:1006F000CB804346091AA4B2B1FBF7F007FB1011F7
:1007000044EA01440EFB00FEA64508D91CEB040494
:1007100000F1FF3102D2A64500F2BB800846A4EBEF
:100720000E0440EA03409CE7C6F12007B34022FADA
:1007300007FC4CEA030C20FA07F401FA06F31C4309
:10074000F9404FEA1C4900FA06F3B1FBF9F8200C16
:100750001FFA8CFE09FB181140EA014108FB0EF05C
:10076000884202FA06F20BD91CEB010108F1FF3AAC
:1007700080F08880884240F28580A8F102086144B8
:10078000091AA4B2B1FBF9F009FB101144EA0141C6
:1007900000FB0EFE8E4508D91CEB010100F1FF3471
:1007A0006CD28E456AD90238614440EA0840A0FB09
:1007B0000294A1EB0E01A142C846A64656D353D0DF
:1007C0005DB1B3EB080261EB0E0101FA07F722FA03
:1007D00006F3F1401F43C5E9007100263146BDE82C
:1007E000F087C2F12003D8400CFA02FC21FA03F38F
:1007F000914001434FEA1C471FFA8CFEB3FBF7F010
:1008000007FB10360B0C43EA064300FB0EF69E4234
:1008100004FA02F408D91CEB030300F1FF382FD2CD
:100820009E422DD9023863449B1B89B2B3FBF7F675
:1008300007FB163341EA034106FB0EF38B4208D94E
:100840001CEB010106F1FF3816D28B4214D9023E8F
:100850006144C91A46EA004638E72E46284605E7AD
:100860000646E3E61846F8E64B45A9D2B9EB02087E
:1008700064EB0C0E0138A3E74646EAE7204694E70E
:100880004046D1E7D0467BE7023B614432E7304641
:1008900009E76444023842E7704700BF10B586B0EC
:1008A00000210091134B1A6B42F020021A631B6B5C
:1008B00003F020030093009B08230193032302937A
:1008C00003910D4C01A9204602F018F91023019361
:1008D00001A9204602F012F92023019301A9204624
:1008E00002F00CF94023019301A9204602F006F919
:1008F00006B010BD0038024000140240F0B58BB0C5
:1009000000250195274B5A6C42F480625A645B6C57
:1009100003F480630193019B234C244B23604FF429
:1009200080336360A56001272761257684F8205015
:10093000E5621F4BA3624FF40063E3600226E661A9
:1009400084F830506761204601F0FBFD09230293D3
:100950000397069604954FF48013099308958DF834
:100960001D508DF81C70059502A9204601F03AFF34
:100970000E230293039602A9204601F033FF2A4674
:100980003146122002F048F8122002F07DF820468D
:1009900001F0A6FE2268536843F0800353600BB059
:1009A000F0BD00BF00380240780400200022014062
:1009B0000100000F08B5FFF771FFFFF79FFF08BDAB
:1009C00008B50268034B9A4200D008BD00F0FAFD5A
:1009D000FBE700BF0022014000B589B00022019270
:1009E000144B196B41F008011963196B01F00801F0
:1009F000019101990292196B41F0100119631B6B6F
:100A000003F010030293029B4FF4807303930123BE
:100A1000049302230693059203A9074802F06EF897
:100A20000423039303A9054802F068F809B05DF8B0
:100A300004FB00BF00380240000C024000100240DE
:100A400008B501224FF48071014802F050F908BD49
:100A5000000C024008B501220421024802F047F9C7
:100A600008BD00BF0010024010B50C46104B1880A6
:100A7000C0F3C323022B06D00E4B1C80C4F3C32348
:100A8000032B0AD010BD01460B4801F04BFB084B6D
:100A900019880A4801F046FBEEE72146064801F0B6
:100AA00041FB044B1988054801F03CFBEAE700BF15
:100AB000C2040020C404002000300140003C00407B
:100AC00008B501F00DFBFFF787FFFFF7B9FFFFF750
:100AD000C1FF4FF4FA7001F07FFC41F69010064B15
:100AE000188041F60801054B1980FFF7BDFF044B44
:100AF0004FF410421A8008BDC2040020C404002034
:100B0000C004002008B503220121362001F084FF33
:100B1000362001F0B9FF08BD10B582B00023019363
:100B20000E4A116C41F010011164126C02F01002B7
:100B30000192019A0A4C0B4A22604CF24F32E26059
:100B400040F28F626260A3602361204602F0ACFE37
:100B5000204602F03FFD02B010BD00BF0038024049
:100B6000C80400200010004008B5FFF7CBFFFFF7D6
:100B7000D3FF08BD10B58AB0002200922C4B196B30
:100B800041F002011963196B01F002010091009913
:100B90000192196B41F020011963196B01F02001DA
:100BA000019101990292196B41F020011963196BAF
:100BB00001F02001029102990392196B41F020018A
:100BC0001963196B01F02001039103990492196BC9
:100BD00041F0200119631B6B03F020030493049B75
:100BE000022305930692079305A9124801F086FF98
:100BF0004FF400630593104C05A9204601F07EFFD9
:100C00004FF40053059305A9204601F077FF4FF4F8
:100C10008043059305A9204601F070FF4FF400437F
:100C2000059305A9204601F069FF0AB010BD00BF79
:100C300000380240000402400014024070B505462E
:100C40000C4602F04DF8064638B92146284602F017
:100C500047F80028F9D0304670BD0126FBE70000B8
:100C60002DE9F0438BB0002201922A4B196B41F021
:100C700040011963196B01F0400101910199029241
:100C8000196B41F040011963196B01F040010291A9
:100C900002990392196B41F010011963196B01F06D
:100CA00010010391039904921A6B42F010021A6327
:100CB0001B6B03F010030493049B01260596069614
:100CC000079603230893144D05A9284601F016FF43
:100CD0004FF00209CDF8149005A9284601F00EFF47
:100CE0004FF08008CDF814800C4C05A9204601F087
:100CF00005FF4FF48077059705A9204601F0FEFE19
:100D0000AE61C5F81890C4F81880A7610BB0BDE8B3
:100D1000F08300BF0038024000180240001002407B
:100D200010B5104B01221A730F4C0021204602F01F
:100D300093FF0021204603F051F90421204602F0E0
:100D40008BFF0421204603F049F90821204602F0D8
:100D500083FF0821204603F041F90C21204602F0D0
:100D60007BFF10BD100500200006002038B50025CF
:100D70000F4B1D730F4C2946204602F0EFFF29460A
:100D8000204603F0A7F90421204602F0E7FF0421E2
:100D9000204603F09FF90821204602F0DFFF0821DA
:100DA000204603F097F90C21204602F0D7FF38BD0A
:100DB0001005002000060020F3EE0E7A80EE270AD0
:100DC0007047000010B588B0002200921C4B196BD0
:100DD00041F004011963196B01F0040100910099BD
:100DE0000192196B41F004011963196B01F00401C0
:100DF0000191019902921A6B42F004021A631B6B73
:100E000003F004030293029B402303930223049301
:100E10000122059207930B4C03A9204601F06EFEB8
:100E20008023039303A9204601F068FE4FF48073EA
:100E3000039303A9204601F061FE08B010BD00BF76
:100E4000003802400008024010B586B0002401942A
:100E5000124B1A6C42F002021A641B6C03F002037C
:100E60000193019B0E480F4B036053234360846042
:100E70004FF6FE73C360046103940A230293049344
:100E8000059402A902F0C0FF224601211D2001F0B5
:100E9000C3FD1D2001F0F8FD06B010BD0038024072
:100EA0004806002000040040F0B58DB000240194F5
:100EB0003D4B1A6B42F001021A631A6B02F00102F9
:100EC0000192019A02941A6B42F002021A631A6BA1
:100ED00002F002020292029A03941A6B42F001029B
:100EE0001A631A6B02F001020392039A04941A6BBC
:100EF00042F002021A631A6B02F002020492049A90
:100F000005941A6B42F001021A631A6B02F0010297
:100F10000592059A06941A6B42F002021A631B6B43
:100F200003F002030693069B099402260A9608968C
:100F300001250B954FF4005307931C4F07A9384622
:100F400001F0DCFD4FF48043079307A9384601F018
:100F5000D5FD4FF40043079307A9384601F0CEFDB5
:100F600008964FF4807307930B95114E07A93046EE
:100F700001F0C4FD4FF4007307930B9507A93046A9
:100F800001F0BCFD4FF4806307930B9507A9304631
:100F900001F0B4FD224621461B2001F03DFD1B203F
:100FA00001F072FD0DB0F0BD0038024000040240B7
:100FB00000000240F0B583B000250195354B5A6C16
:100FC00042F001025A645B6C03F001030193019B40
:100FD000314C324B236041F26703E3606560256169
:100FE0006027A76001236361204602F089FC2C4939
:100FF0004FF480560E60204602F09FFD29490D6097
:101000004D60204603F0A2F827490D604D608D60C9
:10101000CD600E614FF400534B61CD61204603F06B
:10102000DBF8224E37607560B560F5607561B561BB
:101030002A463146204602F0C7FC042231462046AB
:1010400002F0C2FC08223146204602F0BDFC41F20B
:10105000350373600C223146204602F0B5FC294668
:10106000204602F0F9FD2946204602F0B7FF042190
:10107000204602F0F1FD0421204602F0AFFF0821D6
:10108000204602F0E9FD0821204602F0A7FF03B048
:10109000F0BD00BF00380240000600200000014003
:1010A000BC050020CC0500209C050020D4050020B4
:1010B00008B5FFF787FEFFF7C7FE08BD08B506486D
:1010C0000368DA6842F04002DA60DA6842F001024E
:1010D000DA6002F003FF08BD4806002008B50848A2
:1010E0000368DA6822F04002DA60DA6822F001026E
:1010F000DA6002F051FF034B00229A6008BD00BF86
:10110000480600201005002010B540210C4801F0D1
:10111000E7FD044600B101248021094801F0E0FD0B
:1011200010B144F00204E4B24FF48071044801F0BD
:10113000D7FD10B144F00404E4B2204610BD00BF56
:101140000008024008B5FFF7AFFEFFF733FFFFF7D7
:10115000AFFF08BD10B50446FFF7D6FF134B9C4206
:1011600000D010BD124A536983F080035361236895
:10117000596B104A13680B4413600F4A136801330C
:1011800013600E4B1B680E4AD25C0E4B1B689A42D2
:1011900007D00D4B01221A70084B1A68094B1A60D0
:1011A000DFE7094B00221A70F6E700BF480600206F
:1011B00000100240FC050020F8050020F405002086
:1011C0006857000898050020F00500200F4B1A68AA
:1011D0000F4B1B68002B18BF002A13D00C4B93ED4C
:1011E000007AB8EE477A0949D1ED007AF8EE677ACD
:1011F000C7EE276A00220A601A60DFED067A87EEE2
:10120000A60A70479FED040A704700BFF80500204A
:10121000FC050020002474490000000008B50C4BB8
:10122000984202D00B4B984200D008BDFFF7CEFF8A
:10123000B2EE087AC0EE077A9FED077A67EE877AFA
:10124000FDEEE77A17EE901A172000F07DFCECE730
:1012500000060020C8040020000070421C4BD3EDA3
:10126000006AF8EEE66A66EE806A76EEA66AB5EE89
:10127000400AF1EE10FA29D0DFED167AB7EE007AC7
:1012800077EE877A9FED147A87EE276A86EE267AC4
:10129000BCEEC77A17EE103A5A089FED107AF4EEBA
:1012A000C77AF1EE10FA11DCB2F5803FE6D2B7EE64
:1012B000007A77EEC77A0A490868FCEEE77AC0ED53
:1012C0000A7AC262CA609B08064A1360704700BF70
:1012D0001400002000000000A037204D00FF7F47D1
:1012E00000060020040000201A4B1B889BB2C0B9E6
:1012F000AB33194A1268520093FBF2F102FB11332F
:101300009BB216490B800B889BB2AB3393FBF2F177
:1013100002FB11339BB2124A1380124B00221A7146
:101320007047AB330C4A1268520093FBF2F102FB98
:1013300011339BB20A490B800B889BB2AB3393FBF2
:10134000F2F102FB11339BB2044A1380054B0122D8
:101350001A71704790060020140000201000002031
:10136000120000201005002010B52DED028BB0EE0C
:10137000408AB5EEC00AF1EE10FA0ADCB5EEC00AFA
:10138000F1EE10FA18D40024174B1C60BDEC028B50
:1013900010BDFFF763FF154B93ED000A28EE008A9E
:1013A000BCEEC88A18EE103A9CB2182C00D918244A
:1013B0000120FFF799FFE7E7B1EE408AB0EE480A57
:1013C000FFF74CFF094BD3ED007A28EE278ABCEEDD
:1013D000C88A18EE103A9CB2182C00D918240020A4
:1013E000FFF782FFD0E700BF080000200C000020BC
:1013F00082B00190BDF9042045F2301303FB02F2E4
:10140000BDF906106D4B03FB01F1501843108A1A09
:101410004FEA620CB0F1FF3F1BDBB2F1FF3FC0F2BD
:101420008B80B3EB0C0378D49B1403F634039446FF
:10143000002A77DB03EBAC4C0246002877DBA3EBFA
:10144000A2425F490B80A1F802C08A80002002B04E
:101450007047B2F1FF3F11DB00292FDD5B1A4DD43D
:101460009B1403F63403024600284CDBA3EBA24294
:101470008C4600294CDB02EB6C4CE2E7B3EB0C032F
:101480000DD49B1403F634039446002A0CDB03EBC3
:10149000AC4C024600280CDBA3EBA242D1E703F5DB
:1014A0007F3303F2FF33ECE702F57F3C0CF2FF3CA5
:1014B000EDE700F57F3202F2FF32EDE7B1EB0C030E
:1014C0000DD49B1403F634039446002A0CDB03EB83
:1014D000AC4C0A4600290CDBACEB6242B1E703F5E9
:1014E0007F3303F2FF33ECE702F57F3C0CF2FF3C65
:1014F000EDE701F5FF3202F2FF12EDE703F57F336E
:1015000003F2FF33ACE700F57F3202F2FF32ADE7C2
:1015100001F5FF3C0CF2FF1CADE703F57F3303F24E
:10152000FF3381E702F57F3C0CF2FF3C82E700F5D8
:101530007F3202F2FF3282E7002910DDB1EB0C03AB
:101540002CD49B1403F634039446002A2BDB03EBC4
:10155000AC4C0A4600292BDBACEB624271E75B1A0C
:101560000DD49B1403F63403024600280CDBA3EBD6
:10157000A2428C4600290CDB02EB6C4C61E703F5C0
:101580007F3303F2FF33ECE700F57F3202F2FF32E4
:10159000EDE701F5FF3C0CF2FF1CEDE703F57F33AF
:1015A00003F2FF33CDE702F57F3C0CF2FF3CCEE7C0
:1015B00001F5FF3202F2FF12CEE700BF60BEFFFF6F
:1015C0009406002010B582B000230193344CB4F986
:1015D0000000FEF74FFF0022324BFEF7FFFDFEF743
:1015E000B3FF00B22080C0F38913C0F38130032819
:1015F00053D8DFE800F002243442DBB22A4830F945
:10160000132045F69A1101FB02F2DB43DBB230F9FD
:10161000133001FB03F31214ADF804201B14ADF8D2
:1016200006300198FFF7E4FE204B1B68204A118822
:101630005963518899639288DA6302B010BDDBB2B6
:10164000DA43D2B2184931F9122045F69A1000FB5C
:1016500002F231F91330174901FB03F3DBE7DBB288
:10166000114830F91320134901FB02F2DB43DBB2CE
:1016700030F9133001FB03F3CDE7DBB2DA43D2B22A
:10168000094931F912200B4800FB02F231F91330FD
:1016900045F69A1101FB03F3BDE700231A46BAE7AA
:1016A00092060020004065407057000800060020A8
:1016B0009406002066A6FFFF1E4B1B781E4A127878
:1016C0009A4234D01D4AD25CAA2A0BD001335A4226
:1016D00003F07F0302F07F0258BF5342154A137094
:1016E0000020704701335A4203F07F0302F07F026B
:1016F00058BF5342DBB2114AD25C552A0BD001339A
:101700005A4203F07F0302F07F0258BF5342094A56
:1017100013700020704701335A4203F07F0302F038
:101720007F0258BF5342034A1370012070470020C4
:10173000704700BF5C0700205D070020DC0600202A
:10174000F0B589B000250095284B5A6C42F0100284
:101750005A645A6C02F010020092009A01951A6BBA
:1017600042F002021A631A6B02F002020192019A1D
:1017700002951A6B42F002021A631B6B03F002031C
:101780000293029B80230393022304930126059670
:101790000323069307270797154C03A9204601F05A
:1017A000ADF940230393079703A9204601F0A6F95A
:1017B000104C114B2360A5604FF4E1336360E5608A
:1017C00025610C236361204602F03DFF2268D36847
:1017D00043F02003D36032463146252001F01CF946
:1017E000252001F051F909B0F0BD00BF00380240DA
:1017F000000402409C060020001001400C4B93F8AE
:1018000000C00CF101035A4203F07F0302F07F0293
:1018100058BF5342DBB2074A12789A4205D000F80B
:101820000C10034A1370002070470120704700BF5E
:101830005D0700205C07002000B586464FF0000CD5
:101840004FF6FF700FE0400080B20133072B08DC39
:1018500010F4004FF7D048F2050282EA400080B24F
:10186000F3E70CF1010C8C4505DA1EF80C3080EA28
:1018700003200023EAE75DF804FB844600231846B2
:1018800006E01CF80320D9008A40104380B20133DF
:10189000032BF6DD7047000030B585B0FFF70CFF75
:1018A00000284AD0274B1C78AA238DF804305523F2
:1018B0008DF80530244B1B5D8DF80630032310E0B6
:1018C0000134624204F07F0402F07F0258BF5442A8
:1018D000E4B21D4A115D03F110026A4402F80C1CC7
:1018E00001330A2BECDD0B2101A8FFF7A5FF05460C
:1018F000002310E00134624204F07F0402F07F0212
:1019000058BF5442E4B2104A115D03F110026A4418
:1019100002F8101C0133012BECDD6846FFF7ADFF28
:1019200085420CD00134634204F07F0403F07F034E
:1019300058BF5C42034B1C70002005B030BD012035
:10194000FBE700BF5C070020DC0600204FF0000C26
:1019500060466146BCF1070F24DC30B5124C237899
:1019600001335A4203F07F0302F07F0258BF534213
:10197000DBB223700D4AD35C4FEACC04A4F1200201
:10198000C4F1200503FA02F223FA05F542EA050E36
:10199000A34018434EEA01010CF1010CBCF1070F02
:1019A000DCDD30BD704700BF5C070020DC06002096
:1019B00008B52DED028BFFF76FFF012840F0AE80D8
:1019C00003F078F8584B1B78584AD25C103A062A34
:1019D00000F2A280DFE802F00418495A6B7B8C0009
:1019E000534B4FF480329A61FFF7B0FF4E490B78AA
:1019F00003335A4203F07F0302F07F0258BF534281
:101A00000B7003F067F8D6E7FFF7A0FF00EE100AAF
:101A1000B8EE400AFFF7D0F9B0EE408AFFF74EFB70
:101A2000FFF77EF90BE0434B93ED000AB8EEC00AD6
:101A300030EE270A404B83ED000AFFF795FC3E4B42
:101A4000D3ED007AF4EEC87AF1EE10FAEBD4364911
:101A50000B7803335A4203F07F0302F07F0258BF32
:101A600053420B7003F036F8A5E7344A4FF40001F7
:101A7000916103335A4203F07F0302F07F0258BFA3
:101A80005342294A137003F025F894E72B4A4FF08C
:101A90008071916103335A4203F07F0302F07F02A9
:101AA00058BF5342204A137003F014F883E7FFF73E
:101AB0005DF91D490B780B335A4203F07F0302F0A6
:101AC0007F0258BF53420B7003F004F873E7184AC3
:101AD0004FF40031916103335A4203F07F0302F067
:101AE0007F0258BF5342104A137002F0F3FF62E7BF
:101AF000124B4FF400029A61012383F31388BFF362
:101B00004F8F0F49CA6802F4E0620E4B1343CB605B
:101B1000BFF34F8F00BFFDE702F0DCFF4FF0FF3057
:101B2000BDEC028B08BD00BF5C070020DC06002076
:101B300000180240000000201800002000100240A1
:101B400000ED00E00400FA0500B585B0AA238DF889
:101B5000043055238DF805308DF806008DF80710F8
:101B60000B128DF808300B148DF80930090E8DF822
:101B70000A10072101A8FFF75FFE8DF80B00000A8D
:101B80008DF80C004FF47A73092201A9024802F083
:101B900089FD05B05DF804FB9C060020034B036043
:101BA000034B0B6080231360704700BF6009002067
:101BB0006007002000B583B002F07CFF144B019356
:101BC0000423009300234FF400721249124803F0DB
:101BD000ABFA124B01930523009300234FF40072DC
:101BE0000F49104803F0A0FA0F4B01930323009311
:101BF00000234FF480620D490D4803F095FA0D4B18
:101C0000186803F0C5FA02F065FF03B05DF804FB45
:101C1000BC09002070590008491C0008B8090020C0
:101C20007C5900086D1C0008C00900208859000874
:101C3000391C0008B409002008B5FFF7B9FE4FF4BD
:101C4000FA7003F039FCF8E708B5074C4FF480331D
:101C5000A3614FF4FA7003F02FFC0123A3614FF44A
:101C6000FA7003F029FCF0E70018024038B59FED48
:101C7000260AFFF779FB0120FFF736FB00252AE053
:101C8000224B4FF480729A61FFF728FAFFF76EF843
:101C900085F001054FF400611D48FEF7CFFF78B3D2
:101CA0004FF400511A48FEF7C9FF28B9174B4FF0FF
:101CB00080729A61FFF702FA154C4FF4804120467A
:101CC000FEF7BCFF4FF400412046FEF7B7FF4FF48C
:101CD000FA7003F0F1FB02210E48FEF7AFFF002877
:101CE000D8D1002DCCD1094B4FF080729A619FED75
:101CF0000A0AFFF761F8FFF7E1F9FFF711F8C7E704
:101D0000FFF734F8CCE700BF0000000000100240ED
:101D100000140240000402400000E14472B6FEE7F5
:101D200010B594B000240F9410941194129413944D
:101D30003022214603A803F049FC0194264B1A6C7B
:101D400042F080521A641B6C03F080530193019B94
:101D50000294224B1A6842F480421A601B6803F412
:101D600080430293029B012303934FF48033049337
:101D7000022309934FF480020A9208220B924FF437
:101D8000A8720C920D9304230E9303A800F0B6FFE3
:101D9000C0B90F230F9302231093002311934FF424
:101DA000A05312934FF48053139305210FA801F011
:101DB0000BFA48B900F024FB41F20103984205D028
:101DC00014B010BDFFF7AAFFFFF7A8FF044A13687D
:101DD00043F480731360F3E7003802400070004062
:101DE000003C024008B500F0CBFAFFF799FF01F084
:101DF00081F90D4BA3FB0030800900F053FE032056
:101E000000F0F8FDFEF72CFFFEF75AFEFEF7B2FEDB
:101E1000FFF796FCFFF796F9FEF7A6FEFEF7CAFD60
:101E2000024801F0D7FB08BDD34D62100006002028
:101E300000B583B0FFF7D6FF0A4B0193012300934F
:101E400000234FF400720849084803F06DF9012897
:101E500004D04FF0FF3003B05DF804FB03F0FAF953
:101E6000FEE700BFB409002098590008B51B000820
:101E7000F0B591B0002401942E4B5A6C42F480527C
:101E80005A645A6C02F480520192019A02941A6BBD
:101E900042F001021A631A6B02F001020292029AE6
:101EA00003941A6B42F001021A631A6B02F00102EA
:101EB0000392039A04941A6B42F001021A631A6B9C
:101EC00002F001020492049A05941A6B42F008028F
:101ED0001A631B6B03F008030593059B20230B93E8
:101EE00002250C950E950D9405230F93124E0BA908
:101EF000304600F003FE40230B930BA9304600F060
:101F0000FDFD80230B930BA9304600F0F7FD4FF445
:101F1000806606960127079709950894074C06A93D
:101F2000204600F0EBFD3A463146204600F0DFFE49
:101F300011B0F0BD0038024000000240000C024029
:101F4000F0B591B0002401942E4B1A6C42F400427B
:101F50001A641A6C02F400420192019A02941A6BFC
:101F600042F002021A631A6B02F002020292029A13
:101F700003941A6B42F002021A631A6B02F0020217
:101F80000392039A04941A6B42F002021A631A6BCA
:101F900002F002020492049A05941A6B42F0400285
:101FA0001A631B6B03F040030593059B08230B93F7
:101FB00002250C950E950D9406230F93124E0BA936
:101FC000304600F09BFD10230B930BA9304600F028
:101FD00095FD20230B930BA9304600F08FFD4FF4A5
:101FE000806606960127079709950894074C06A96D
:101FF000204600F083FD3A463146204600F077FE49
:1020000011B0F0BD00380240000402400018024048
:1020100010B582B000230193144A516C41F48051F1
:102020005164526C02F480520192019A104C114A90
:102030002260A3604FF4827262600F22E2624FF46A
:102040000062E26023621822E2614FF40072A26132
:10205000236101236361204601F08DF92268136832
:1020600043F04003136002B010BD00BF00380240CF
:10207000C40900200030014010B582B00023019354
:10208000144A116C41F400411164126C02F40042D4
:102090000192019A104C114A2260A3604FF482729F
:1020A00062600F22E2624FF40062E2602362182253
:1020B000E2614FF40072A261236101236361204653
:1020C00001F059F92268136843F04003136002B02D
:1020D00010BD00BF003802401C0A0020003C004038
:1020E00008B5FFF7C5FEFFF72BFFFFF791FFFFF7DE
:1020F000C3FF08BD38B504460D460221204601F055
:102100009EF90028F9D02946204601F093F90121D3
:10211000204601F094F90028F9D0204601F08CF90E
:1021200038BD000070B50C46284B984227D0284D8A
:1021300000224FF48061284600F0D9FD254E21464B
:102140003046FFF7D7FF01224FF48061284600F0A8
:10215000CEFD0A2000F040F900224FF480612846AD
:1021600000F0C5FD21463046FFF7C4FF04460122BA
:102170004FF48061284600F0BAFD204670BD164D30
:1021800000224FF48061284600F0B1FD0F4E214639
:102190003046FFF7AFFF01224FF48061284600F080
:1021A000A6FD0A2000F018F900224FF480612846AD
:1021B00000F09DFD21463046FFF79CFF04460122BA
:1021C0004FF48061284600F092FDD6E700300140D0
:1021D00000180240003C0040000C024000B583B0F3
:1021E000002200920D4B596C41F480415964596CA6
:1021F00001F48041009100990192196C41F08051E5
:1022000019641B6C03F080530193019B0F216FF045
:10221000010000F001FC03B05DF804FB003802404F
:10222000FEE7FEE7FEE7FEE7FEE7704708B500F0D1
:10223000C1F800F04CFC03F095F9012800D108BD6D
:1022400002F088FCFBE7000010B50D4B1B685A68D4
:10225000DA6812F0200F09D1094C204602F0F0FA9A
:102260002268D36843F02003D36010BD5968C9B217
:102270000448FFF7C3FA024B1B68034A1A60EBE7F6
:102280009C060020DC060020DFFFFFEF08B50248B7
:1022900001F0E8F908BD00BF0006002008B50248BB
:1022A00001F0E0F908BD00BFC804002008B50248ED
:1022B00001F0D8F908BD00BF4806002008B5024863
:1022C00000F06DF908BD00BF78040020034AD2F881
:1022D000883043F47003C2F88830704700ED00E0A6
:1022E000DFF834D00D480E490E4A002302E0D458DE
:1022F000C4500433C4188C42F9D30B4A0B4C00234E
:1023000001E013600432A242FBD3FFF7DFFF03F0CA
:1023100039F9FFF78DFD7047000002200000002012
:102320005C040020E05900085C040020BC9D0020F3
:10233000FEE7000010B504460E4B18784FF47A7390
:10234000B3FBF0F30C4A1068B0FBF3F000F0AAFB0B
:1023500068B90F2C01D901200AE0002221464FF074
:10236000FF3000F059FB054B1C60002000E001200D
:1023700010BD00BF200000201C0000202400002011
:1023800008B50B4B1A6842F400721A601A6842F4DE
:1023900080621A601A6842F480721A60032000F0AA
:1023A00029FB0F20FFF7C6FFFFF718FF002008BD2D
:1023B000003C0240034A1168034B1B780B44136036
:1023C000704700BF740A002020000020014B1868ED
:1023D000704700BF740A002038B50446FFF7F6FFC7
:1023E0000546B4F1FF3F02D0044B1B781C44FFF7B5
:1023F000EDFF401BA042FAD338BD00BF20000020F3
:10240000014B1868000C7047002004E04A4B5A68E2
:1024100022F440325A605A6841680A435A6002689E
:10242000536823F48073536002685368016943EA78
:10243000012353600268536823F0407353600268BD
:10244000536881680B4353600268936823F4006308
:10245000936002689368C1680B439360826A374B4C
:102460009A4257D00268936823F0706393600268C1
:102470009368816A0B4393600268936823F040532A
:10248000936002689368C16A0B4393600268936823
:1024900023F00203936002689368017E43EA4103DC
:1024A000936090F82030002B3FD00268536843F4CB
:1024B000006353600268536823F46043536001680B
:1024C0004B68426A013A43EA42334B600268D36A7E
:1024D00023F47003D3620168CB6AC269013A43EA0C
:1024E0000253CB620268936823F40073936002681E
:1024F000936890F8301043EA412393600268936830
:1025000023F48063936002689368416943EA8123FE
:10251000936070470268936823F070639360026869
:10252000936823F040539360B0E70268536823F444
:1025300000635360CAE700BF002301400100000FA1
:10254000704738B310B50446036C43B1236C13F0E5
:10255000100F0BD00120002384F83C3010BDFFF792
:10256000EFFF0023636484F83C30EFE7236C23F42F
:10257000885323F0020343F0020323642046FFF74D
:1025800045FF00206064236C23F0030343F0010344
:102590002364E0E70120704770477047704770B5CB
:1025A000044603681E685D6816F0020F2FD005F020
:1025B000200262B3026C12F0100F03D1026C42F4DD
:1025C000007202649A6812F0405F19D1227EBAB993
:1025D000DA6A12F4700F03D09A6812F4806F0FD188
:1025E0005A6822F020025A60236C23F4807323641B
:1025F000236C13F4805F03D1236C43F00103236445
:102600002046FFF7C9FF23686FF012021A6005F039
:10261000800316F0040F37D0002B35D0236C13F055
:10262000100F03D1236C43F40053236423689A688A
:1026300012F4401F21D19A6B12F4401F03D09A6804
:1026400012F4806F19D15A6812F4806F15D19A680C
:1026500012F0405F11D1227E7AB95A6822F08002CE
:102660005A60236C23F480532364236C13F4807F1B
:1026700003D1236C43F0010323642046FEF7A0F945
:1026800023686FF00C021A6005F0400316F0010F8A
:1026900005D023B123681B6813F0010F06D105F0A4
:1026A000806516F0200F00D065B970BD236C43F42F
:1026B000803323642046FFF770FF23686FF0010228
:1026C0001A60ECE7636C43F00203636423686FF005
:1026D00020051D602046FFF761FF23681D60E4E7C9
:1026E00082B00023019390F83C30012B67D0012386
:1026F00080F83C3003689A6812F0010F13D19A6891
:1027000042F001029A60334B1B68334AA2FB032359
:102710009B0C03EB4303019302E0019B013B0193FC
:10272000019B002BF9D10268936813F0010F3BD095
:10273000036C23F4405323F0010343F480530364F8
:10274000036C13F4807F01D100234364002380F8DD
:102750003C306FF004031360204B5B6813F01F0FD5
:102760000ED102689168536803F4806311F4401F2E
:1027700027D143BB936843F48003936000201CE09F
:1027800003689A6802F44012596801F480611448A1
:10279000834201D0002010E0BAB9C1B99A6842F46E
:1027A00080029A60002008E0036C43F01003036489
:1027B000436C43F001034364002002B070470220E1
:1027C000FBE70020F9E70020F7E70020F5E700200D
:1027D000F3E700BF1C00002083DE1B430023014001
:1027E0000020014090F83C30012B00F0FB8030B419
:1027F000012380F83C300B68092B7FD90568EA6813
:102800009BB203EB43031E3B072404FA03F322EAC3
:102810000303EB600568EA688C680B8803EB4303ED
:102820001E3B04FA03F31343EB600268936B23F43B
:10283000401393630468A36B0A69013A43EA0253A5
:10284000A3630468A26B4B680D695B1BDBB20333A7
:10285000DBB203EB83034FF01F0C0CFA03F322EA05
:102860000303A3630468A26B4B680D695B1BDBB2B7
:102870000333DBB203EB8303B1F800C00CFA03F3BC
:102880001343A3638A69584B9A424DD002689368F8
:1028900023F470239360026893688C6923439360E8
:1028A0000268936823F44013936002689368CC69CC
:1028B000234393604B7D002B41D00268536843F45F
:1028C000806353600B7D002B3FD00268536843F454
:1028D000805353604B68022B57D0032B62D0012BDF
:1028E00039D00268136A23F47F6323F00F03136265
:1028F0000268136ACC682343136238E005682A69CA
:102900009BB203EB4303072404FA03F322EA030315
:102910002B6105682A698C680B8803EB430304FA72
:1029200003F313432B6180E70268936823F4702359
:1029300093600268936823F440139360BAE70268D7
:10294000536823F480635360BCE70268536823F440
:1029500080535360BEE70268536923F47F6323F01A
:102960000F03536102685369CC68234353610268C3
:102970001E4B9A4223D002681C4B9A4228D0002357
:1029800080F83C30184630BC70470268936923F4E5
:102990007F6323F00F03936102689369CC6823433C
:1029A0009361E4E70268D36923F47F6323F00F03A4
:1029B000D3610268D369CC682343D361D7E70B683E
:1029C000122BD8D10A4A536843F480035360D2E7EC
:1029D0000B68103B012BD2D8054A536843F400031F
:1029E0005360CCE70220704701000F000020014037
:1029F00000230140074AD36823F4E0631B041B0C47
:102A0000000200F4E060034343F0BF6343F400338B
:102A1000D360704700ED00E000B5194BDB68C3F3ED
:102A20000223C3F1070CBCF1040F28BF4FF0040CC4
:102A300003F1040EBEF1060F18D9033B4FF0FF3E21
:102A40000EFA0CFC21EA0C0199400EFA03F322EA7B
:102A50000303194300280BDB0901C9B200F16040F0
:102A600000F5614080F800135DF804FB0023E5E702
:102A700000F00F000901C9B2024B1954F4E700BF7E
:102A800000ED00E014ED00E0002807DB00F01F027D
:102A9000400901239340024A42F82030704700BFAA
:102AA00000E100E00138B0F1807F0BD24FF0E0236D
:102AB0005861054AF02182F823100020986107220E
:102AC0001A6170470120704700ED00E0704708B5BB
:102AD000FFF7FCFF08BD90F83530DBB2022B03D0C6
:102AE0008023436501207047052380F83530026854
:102AF000136823F0010313600020704700230F2B9D
:102B000000F2E48070B582B060E085685E00032466
:102B1000B44025EA0405CC68B4402C438460456881
:102B200025EA02054C68C4F300129A402A43426029
:102B30005AE0DC08083450F8246003F007029500DE
:102B40000F22AA4026EA020E0A69AA4042EA0E02B1
:102B500040F824205CE0072200E0002202FA0EF296
:102B60002A4302345A4D45F824205A4A94686FEAA1
:102B70000C0224EA0C054E6816F4801F01D04CEAC2
:102B80000405544CA560E46802EA04054E6816F496
:102B9000001F01D04CEA04054E4CE560646802EA6F
:102BA00004054E6816F4003F01D04CEA0405494C78
:102BB0006560246822404D6815F4803F01D04CEADE
:102BC0000402444C226001330F2B7DD801229A402D
:102BD0000C6804EA020C32EA0404F4D14C6804F0F4
:102BE0000304013C012C90D94A6802F00302032A35
:102BF00009D0C4685D000322AA4024EA02048A685E
:102C0000AA402243C2604A6802F00302022A90D01E
:102C100004684FEA430E032202FA0EF224EA020489
:102C20004A6802F0030202FA0EF2224302604A6886
:102C300012F4403FC7D000220192274A546C44F45A
:102C400080445464526C02F480420192019A9C08C0
:102C5000A51C1F4A52F8255003F003024FEA820ECA
:102C60000F2202FA0EF225EA02051C4A90423FF4B6
:102C700074AF02F5806290421AD002F580629042F1
:102C800018D002F58062904216D002F58062904220
:102C900014D002F58062904212D002F58062904218
:102CA00010D002F5806290423FF455AF082255E7FC
:102CB000012253E7022251E703224FE704224DE7A6
:102CC00005224BE7062249E702B070BD704700BFFE
:102CD00000380140003C0140003802400000024042
:102CE0000369194201D001207047002070470AB1E2
:102CF000816170470904816170470000002800F07D
:102D0000E08170B582B00446036813F0010F3BD038
:102D10009F4B9B6803F00C03042B2CD09C4B9B68AF
:102D200003F00C03082B21D06368B3F5803F4FD02C
:102D3000B3F5A02F52D0964B1A6822F480321A6055
:102D40001A6822F480221A606368002B50D0FFF7C3
:102D50003DFB05468E4B1B6813F4003F14D1FFF773
:102D600035FB401B6428F5D90320B1E1884B5B6833
:102D700013F4800FD8D0864B1B6813F4003F03D0A8
:102D80006368002B00F09F81236813F0020F54D07A
:102D90007F4B9B6813F00C0F3ED07D4B9B6803F07C
:102DA0000C03082B33D0E368002B68D0794B012249
:102DB0001A60FFF70BFB0546754B1B6813F0020FFB
:102DC00054D1FFF703FB401B0228F5D903207FE114
:102DD0006F4A136843F480331360B5E76C4B1A688D
:102DE00042F480221A601A6842F480321A60ABE71B
:102DF000FFF7ECFA0546664B1B6813F4003FC3D09F
:102E0000FFF7E4FA401B6428F5D9032060E1604B2A
:102E10005B6813F4800FC6D15D4B1B6813F0020F83
:102E200003D0E368012B40F05081594A136823F026
:102E3000F803216943EAC1031360236813F0080F04
:102E400042D063696BB3534B0122C3F8802EFFF766
:102E5000BDFA05464E4B5B6F13F0020F34D1FFF7FE
:102E6000B5FA401B0228F5D9032031E1484A13681E
:102E700023F0F803216943EAC1031360DDE7454B02
:102E800000221A60FFF7A2FA0546414B1B6813F0B7
:102E9000020FD2D0FFF79AFA401B0228F5D903207F
:102EA00016E13C4B0022C3F8802EFFF78FFA05464F
:102EB000374B5B6F13F0020F06D0FFF787FA401B0A
:102EC0000228F5D9032003E1236813F0040F77D01B
:102ED0002F4B1B6C13F0805F33D1002301932C4BDD
:102EE0001A6C42F080521A641B6C03F080530193F9
:102EF000019B0125284B1B6813F4807F23D0A36816
:102F0000012B34D0052B38D0214B1A6F22F001024F
:102F10001A671A6F22F004021A67A368002B3DD0CB
:102F2000FFF754FA06461A4B1B6F13F0020F46D1F7
:102F3000FFF74CFA801B41F288339842F3D9032003
:102F4000C6E00025D6E7144A136843F48073136083
:102F5000FFF73CFA0646104B1B6813F4807FCED176
:102F6000FFF734FA801B0228F5D90320B0E0084AA5
:102F7000136F43F001031367CFE7054B1A6F42F05D
:102F800004021A671A6F42F001021A67C5E700BF10
:102F9000003802400000474200700040FFF716FA78
:102FA0000646524B1B6F13F0020F08D0FFF70EFAC4
:102FB000801B41F288339842F3D9032088E0EDB9B1
:102FC000A369002B00F08380484A926802F00C024B
:102FD000082A51D0022B17D0454B00221A66FFF762
:102FE000F5F90446414B1B6813F0007F42D0FFF710
:102FF000EDF9001B0228F5D9032069E03B4A136C68
:1030000023F080531364DBE7394B00221A66FFF785
:10301000DDF90546354B1B6813F0007F06D0FFF73E
:10302000D5F9401B0228F5D9032051E0E369226A53
:103030001343626A43EA8213A26A5208013A43EADE
:103040000243E26A43EA0263284A5360284B0122A2
:103050001A66FFF7BBF90446244B1B6813F0007F88
:1030600006D1FFF7B3F9001B0228F5D903202FE0A2
:1030700000202DE000202BE0012B2BD01B4B5B68A8
:1030800003F48001E269914226D103F03F02216AF4
:103090008A4223D1616A47F6C0721A40B2EB811F9F
:1030A0001ED103F44031A26A5208013AB1EB024F3B
:1030B00018D103F07063E26AB3EB026F14D1002001
:1030C00006E001207047012002E0012000E000201E
:1030D00002B070BD0120FBE70120F9E70120F7E70E
:1030E0000120F5E70120F3E70120F1E70038024075
:1030F0000000474208B5314B9B6803F00C03042BDA
:1031000057D0082B57D12D4B5A6802F03F025B680D
:1031100013F4800F2AD0294B5968C1F3881C4FEA59
:103120004C11B1EB0C006EEB0E0E4FEA8E1343EA1E
:1031300090638101091A63EB0E03DB0043EA5173CC
:10314000C90011EB0C0C43F10003590200234FEAB4
:103150004C2041EADC51FDF71FFA184B5B68C3F3C2
:10316000014301335B00B0FBF3F025E0134B5968DA
:10317000C1F3881C4FEA4C11B1EB0C006EEB0E0E44
:103180004FEA8E1343EA90638101091A63EB0E0341
:10319000DB0043EA5173C90011EB0C0C43F100034F
:1031A000990200234FEA8C2041EA9C51FDF7F4F983
:1031B000D3E7034800E0034808BD00BF00380240E1
:1031C00000127A000024F400002800F09B8070B503
:1031D0000D4604464F4B1B6803F007038B4208D291
:1031E000CBB24C4A1370136803F007038B4240F0D4
:1031F0008B80236813F0020F17D013F0040F04D054
:10320000454A936843F4E0539360236813F0080F32
:1032100004D0414A936843F4604393603E4A936804
:1032200023F0F003A1680B439360236813F0010FB0
:1032300032D06368012B21D09A1E012A25D9364A43
:10324000126812F0020F61D033498A6822F003023B
:1032500013438B60FFF7BAF806462F4B9B6803F0C9
:103260000C036268B3EB820F16D0FFF7AFF8801B38
:1032700041F288339842F0D9032042E0264A12688E
:1032800012F4003FE0D101203BE0234A126812F023
:10329000007FD9D1012034E01E4B1B6803F00703E7
:1032A000AB4207D9EAB21B4B1A701B6803F0070345
:1032B000AB422DD1236813F0040F06D0164A936851
:1032C00023F4E053E1680B439360236813F0080F85
:1032D00007D0114A936823F46043216943EAC1038C
:1032E0009360FFF707FF0C4B9B68C3F303130B4A74
:1032F000D35CD8400A4B18600A4B1868FFF71AF8DD
:10330000002070BD012070470120FAE70120F8E796
:103310000120F6E7003C024000380240A8590008AE
:103320001C00002024000020014B1868704700BFDB
:103330001C00002008B5FFF7F7FF044B9B68C3F3A0
:103340008223034AD35CD84008BD00BF0038024046
:10335000B859000808B5FFF7E7FF044B9B68C3F3B3
:103360004233034AD35CD84008BD00BF0038024056
:10337000B8590008704700285AD010B50446436A6F
:1033800033B94368B3F5827F05D00023C36102E0FF
:103390000023036143610023A36294F85130002BA2
:1033A00040D0022384F851302268136823F0400390
:1033B0001360636803F48273A26802F40442134347
:1033C000E26802F400621343226902F0020213432E
:1033D000626902F001021343A26902F4007213430E
:1033E000E26902F038021343226A02F080021343BA
:1033F000A26A02F40052216813430B60638B03F04E
:103400000403626A02F01002216813434B602268D1
:10341000D36923F40063D36100206065012384F83D
:10342000513010BD84F850302046FFF7A3FFB8E7B5
:1034300001207047C1607047C06880B270478368E0
:10344000194201D0012070470020704730B4036A50
:1034500023F001030362036A4268846924F0730461
:103460000D682C4323F0020C8B6843EA0C03104DCB
:10347000A84203D005F58065A84205D123F00803D2
:10348000CD682B4323F00403094DA84203D005F572
:103490008065A84205D122F440724D692A438D69A6
:1034A0002A43426084614A684263036230BC7047C9
:1034B0000000014030B4036A23F480730362036A9E
:1034C0004268C46924F0730C0C6844EA0C0523F4C8
:1034D00000738C6843EA0423114CA04203D004F526
:1034E0008064A04206D123F40063CC6843EA04233D
:1034F00023F480630A4CA04203D004F58064A04208
:1035000007D122F440524C6942EA04128C6942EA23
:1035100004124260C5614A68C263036230BC7047EE
:103520000000014030B4036A23F480530362036A4D
:103530004468C26922F4E6420D6842EA052223F497
:1035400000538D6843EA0533094DA84203D005F5C1
:103550008065A84204D124F480444D6944EA85146E
:103560004460C2614A680264036230BC704700BFB5
:103570000000014010B4036A046A24F001040462EC
:10358000846924F0F00C4CEA021223F00A030B4386
:10359000826103625DF8044B704710B4046A24F042
:1035A000100404628469036A24F4704C4CEA023209
:1035B00023F0A00343EA0113826103625DF8044B28
:1035C0007047836823F070030B4343F00703836065
:1035D0007047704790F83D30DBB2012B37D10223A2
:1035E00080F83D300268D36843F00103D36003687C
:1035F000194A934220D0B3F1804F1DD0A2F57C42EE
:10360000934219D002F58062934215D002F5806290
:10361000934211D002F5784293420DD002F57052D8
:10362000934209D0A2F59432934205D01A6842F031
:1036300001021A60002070479A6802F00702062A09
:1036400007D01A6842F001021A600020704701207A
:1036500070470020704700BF00000140704770476E
:103660007047704710B5044603681A6912F0020FDC
:1036700011D0DA6812F0020F0DD06FF002021A6159
:103680000123037703689B6913F0030F70D0FFF7E2
:10369000E7FF0023237723681A6912F0040F12D082
:1036A000DA6812F0040F0ED06FF004021A610223E0
:1036B000237723689B6913F4407F5FD02046FFF790
:1036C000CFFF0023237723681A6912F0080F12D066
:1036D000DA6812F0080F0ED06FF008021A610423A6
:1036E00023772368DB6913F0030F4ED02046FFF7E2
:1036F000B7FF0023237723681A6912F0100F12D046
:10370000DA6812F0100F0ED06FF010021A61082361
:1037100023772368DB6913F4407F3DD02046FFF711
:103720009FFF0023237723681A6912F0010F03D04B
:10373000DA6812F0010F36D123681A6912F0800F8F
:1037400003D0DA6812F0800F34D123681A6912F0BE
:10375000400F03D0DA6812F0400F32D123681A69A3
:1037600012F0200F03D0DA6812F0200F30D110BD14
:10377000FFF775FF2046FFF774FF8AE72046FFF743
:103780006EFF2046FFF76DFF9BE72046FFF767FFC0
:103790002046FFF766FFACE72046FFF760FF2046B4
:1037A000FFF75FFFBDE76FF001021A612046FDF7EA
:1037B00035FDC1E76FF080021A61204600F036FD4A
:1037C000C3E76FF040021A612046FDF7C3FCC5E76E
:1037D0006FF020021A61204600F027FDC7E70000C5
:1037E0000368304A904212D0B0F1804F0FD0A2F55A
:1037F0007C4290420BD002F58062904207D002F5E5
:103800008062904203D002F57842904203D123F0C7
:1038100070034A681343234A90422AD0B0F1804F84
:1038200027D0A2F57C42904223D002F580629042DC
:103830001FD002F5806290421BD002F57842904280
:1038400017D002F57052904213D002F58062904278
:103850000FD002F5806290420BD0A2F598329042D0
:1038600007D002F58062904203D002F58062904258
:1038700003D123F44073CA68134323F080034A69D9
:10388000134303608B68C3620B688362054B9842E5
:1038900003D003F58063984201D10B6903630123D0
:1038A000436170470000014040B310B5044690F8F2
:1038B0003D30F3B1022384F83D30214651F8040B2A
:1038C000FFF78EFF012384F8463084F83E3084F8F9
:1038D0003F3084F8403084F8413084F8423084F836
:1038E000433084F8443084F8453084F83D3000207B
:1038F00010BD80F83C30FFF76CFEDBE7012070471D
:1039000040B310B5044690F83D30F3B1022384F87B
:103910003D30214651F8040BFFF762FF012384F884
:10392000463084F83E3084F83F3084F8403084F8E4
:10393000413084F8423084F8433084F8443084F8CD
:10394000453084F83D30002010BD80F83C30FFF752
:1039500085FEDBE70120704730B4036A23F01003D3
:103960000362036A4468826922F4E6420D6842EA0F
:10397000052223F020038D6843EA0513114DA84268
:1039800003D005F58065A84206D123F08003CD68F9
:1039900043EA051323F040030A4DA84203D005F57E
:1039A0008065A84207D124F440644D6944EA850447
:1039B0008D6944EA8504446082614A6882630362D7
:1039C00030BC70470000014038B590F83C30012B06
:1039D00066D004460D46012380F83C300C2A5AD8A4
:1039E000DFE802F0075959591B59595930595959AB
:1039F00044000068FFF72AFD2268936943F008033A
:103A000093612268936923F00403936122689369A8
:103A100029690B43936100203EE00068FFF79CFF9B
:103A20002268936943F4006393612268936923F4E5
:103A30008063936122689369296943EA0123936152
:103A4000002029E00068FFF735FD2268D36943F0C4
:103A50000803D3612268D36923F00403D361226889
:103A6000D36929690B43D361002015E00068FFF793
:103A700059FD2268D36943F40063D3612268D36996
:103A800023F48063D3612268D369296943EA01235F
:103A9000D361002000E00120002384F83C3038BDD1
:103AA0000220FCE770B49446046A24F00104046226
:103AB0008469066A184DA8421CD0B0F1804F19D015
:103AC000164A904216D002F58062904212D002F55A
:103AD000806290420ED002F5784290420AD002F500
:103AE0007052904206D0A2F59432904202D044F037
:103AF000010203E024F0030242EA0C0222F0F00289
:103B00001B01DBB2134326F00A0201F00A01114344
:103B10008361016270BC70470000014000040040F6
:103B200010B4846824F47F4C42EA03220A4342EA38
:103B30000C0282605DF8044B704790F83C30012B1A
:103B400078D010B50446012380F83C30022380F879
:103B50003D300268936823F47F4323F0770393603A
:103B60000B68602B4CD029D8402B54D00CD9502B4B
:103B700022D1CA6849680068FFF7FCFC5021206820
:103B8000FFF71FFD002005E0202B0DD009D9302BB9
:103B90000AD00120012384F83D30002384F83C3012
:103BA00010BD0BB1102B05D119462068FFF709FD98
:103BB0000020EFE70120EDE70120EBE7B3F5805FA0
:103BC00034D0B3F5005F0CD1CB684A6889680068CF
:103BD000FFF7A6FF2268936843F4804393600020B8
:103BE000D8E7702B24D1CB684A6889680068FFF752
:103BF00097FF2268936843F0770393600020C9E73A
:103C0000CA6849680068FFF7C8FC60212068FFF7B0
:103C1000D8FC0020BEE7CA6849680068FFF7AAFC24
:103C200040212068FFF7CDFC0020B3E70020B1E77A
:103C30000120AFE70220704701F01F01012303FAC2
:103C400001FC036A23EA0C030362036A02FA01F12E
:103C50000B4303627047000010B504460846002974
:103C600042D194F83E30DBB2013B18BF0123002B58
:103C70006ED1002851D1022384F83E300122014642
:103C80002068FFF7D9FF2368334A934203D002F537
:103C90008062934203D15A6C42F400425A64236812
:103CA0002D4A934249D0B3F1804F46D0A2F57C42D1
:103CB000934242D002F5806293423ED002F5806288
:103CC00093423AD002F57842934236D002F57052D0
:103CD000934232D0A2F5943293422ED01A6842F029
:103CE00001021A60002032E0042908D008290DD012
:103CF00094F84130DBB2013B18BF0123B7E794F8D9
:103D00003F30DBB2013B18BF0123B0E794F84030ED
:103D1000DBB2013B18BF0123A9E7042805D008281E
:103D200007D0022384F84130A8E7022384F83F300B
:103D3000A4E7022384F84030A0E79A6802F0070263
:103D4000062A07D01A6842F001021A60002010BD4E
:103D50000120FCE70020FAE70000014038B50446E6
:103D60000D4600220068FFF767FF23681D4A934253
:103D700018D002F58062934214D02368196A41F288
:103D80001112114208D1196A40F24442114203D182
:103D90001A6822F001021A609DB9012384F83E30AE
:103DA000002038BD196A41F211121142E5D1196A99
:103DB00040F244421142E0D15A6C22F400425A646B
:103DC000DBE7042D05D0082D07D0012384F841300E
:103DD000E6E7012384F83F30E2E7012384F840302E
:103DE000DEE700BF0000014001F01F01042303FAD9
:103DF00001FC036A23EA0C030362036A02FA01F17D
:103E00000B43036270477047002865D070B588B0D7
:103E10000E46044690F83D30002B58D0022384F81B
:103E20003D30214651F8040BFFF7DAFCB36803225A
:103E300031682068FFF736FE2268936923F00C038F
:103E400093612268936971680B4393612268536898
:103E500043F0800353602268936823F070039360FB
:103E60002268936843F0400393602268936823F0CC
:103E7000070393602268936843F00403936000256E
:103E80000595069570230193079504950395F368AE
:103E9000029301A92068FFF75FFD2268536823F0B1
:103EA000700353602268536843F05003536001234A
:103EB00084F8463084F83E3084F83F3084F842304D
:103EC00084F8433084F83D30284608B070BD80F84F
:103ED0003C30FFF798FFA1E70120704710B504467A
:103EE00090F83E00C0B294F83F3094F8422094F825
:103EF0004310012847D1DBB2D2B2C9B2012B43D162
:103F0000012A42D1012901D010463DE0022384F864
:103F10003E3084F83F3084F8423084F8433000214A
:103F20002068FFF789FE23681A4A934220D0B3F134
:103F3000804F1DD0A2F57C42934219D002F58062D9
:103F4000934215D002F58062934211D002F5784277
:103F500093420DD002F57052934209D0A2F59432EB
:103F6000934205D01A6842F001021A6000200BE06B
:103F70009A6802F00702062A09D01A6842F0010284
:103F80001A60002000E0012010BD1846FCE7002068
:103F9000FAE700BF0000014010B5044600221146B8
:103FA0000068FFF749FE2368196A41F211121142B5
:103FB00008D1196A40F24442114203D11A6822F032
:103FC00001021A60012384F83E3084F83F3084F8FF
:103FD000423084F84330002010BD000010B5044684
:103FE000084600293BD194F84230DBB2013B18BFB0
:103FF0000123002B67D100284AD1022384F84230E4
:10400000042201462068FFF7EFFE2268536C43F458
:104010000043536423682E4A934249D0B3F1804F42
:1040200046D0A2F57C42934242D002F58062934290
:104030003ED002F5806293423AD002F57842934234
:1040400036D002F57052934232D0A2F594329342A8
:104050002ED01A6842F001021A60002032E00429D2
:1040600008D008290DD094F84530DBB2013B18BFC9
:104070000123BEE794F84330DBB2013B18BF0123B4
:10408000B7E794F84430DBB2013B18BF0123B0E737
:10409000042805D0082807D0022384F84530AFE76C
:1040A000022384F84330ABE7022384F84430A7E7C7
:1040B0009A6802F00702062A07D01A6842F0010245
:1040C0001A60002010BD0120FCE70020FAE700BFC5
:1040D0000000014038B504460D4600220068FFF795
:1040E00083FE2368196A41F21112114208D1196A3C
:1040F00040F24442114203D15A6C22F400425A6405
:104100002368196A41F21112114208D1196A40F26A
:104110004442114203D11A6822F001021A6025B903
:10412000012384F84230002038BD042D05D0082D2D
:1041300007D0012384F84530F5E7012384F84330A4
:10414000F1E7012384F84430EDE7000090F83C30BB
:10415000012B3DD010B4012380F83C30022380F8BD
:104160003D3003685A689C6822F0700C0A6842EA85
:104170000C025A600368174A93421AD0B3F1804F79
:1041800017D0A2F57C42934213D002F5806293428D
:104190000FD002F5806293420BD002F57842934231
:1041A00007D002F57052934203D0A2F594329342A5
:1041B00004D124F080044A6814439C60012380F8F1
:1041C0003D30002380F83C3018465DF8044B7047C2
:1041D000022070470000014090F83C30012B22D0B3
:1041E000012380F83C30CB6823F440738A68134382
:1041F00023F480634A68134323F400630A6813437B
:1042000023F480530A69134323F400534A69134388
:1042100023F48043CA69134302685364002380F87F
:104220003C3018467047022070477047704702685C
:10423000D36823F49073D3600268536923F00103B9
:104240005361202380F83A30704790F83930DBB260
:10425000212B01D0022070478368B3F5805F17D00F
:10426000036A5A1C02621A7803685A60C38C9BB2B4
:10427000013B9BB2C3844BB90268D36823F080032F
:10428000D3600268D36843F04003D36000207047D6
:10429000036A1B880268C3F30803536003691BB9F0
:1042A000036A02330362E1E7036A01330362DDE775
:1042B0002DE9F84304460268136923F44053C168AA
:1042C0000B43136183680269134342691343C26954
:1042D0001A430168CB6823F4164323F00C031343FD
:1042E000CB600268536923F4407381690B435361C7
:1042F000C369B3F5004F5ED00368B54A934200F03E
:10430000108102F58062934200F00B81FFF712F8F2
:1043100000EB800000EB80006568AD00B0FBF5F5B8
:10432000AC4FA7FB05356D092E01FFF703F800EB35
:10433000800000EB80006568AD00B0FBF5F5FEF78E
:10434000F9FF00EB800000EB800063689B00B0FB8E
:10435000F3F3A7FB03235B094FF0640808FB135337
:104360001B013233A7FB03235B0903F0F003F518AD
:10437000FEF7E0FF00EB800000EB80006668B6000F
:10438000B0FBF6F6FEF7D6FF00EB800000EB8000F6
:1043900063689B00B0FBF3F0A7FB0030400908FB0B
:1043A000106000013230A7FB0037C7F343172368C2
:1043B0002F449F6009E10368854A93425AD002F571
:1043C0008062934256D0FEF7B5FF00EB800000EB11
:1043D000800065686D00B0FBF5F57E4FA7FB0535E5
:1043E0006D094FEA0519FEF7A5FF00EB800000EB11
:1043F000800066687600B0FBF6F6FEF79BFF00EBE8
:10440000800000EB800065686D00B0FBF5F5A7FB50
:1044100005356D094FF0640808FB1565ED00323570
:10442000A7FB05356D096D0005F4F8754D44FEF7E1
:1044300081FF00EB800000EB800066687600B0FB37
:10444000F6F6FEF777FF00EB800000EB8000636874
:104450005B00B0FBF3F3A7FB03235B0908FB1363CB
:10446000DB003233A7FB0337C7F3421723682F441F
:104470009F60AAE0FEF76EFF00EB800000EB80007B
:1044800065686D00B0FBF5F5524FA7FB05356D096A
:104490004FEA0519FEF75EFF00EB800000EB80009D
:1044A00066687600B0FBF6F6FEF754FF00EB80007E
:1044B00000EB800065686D00B0FBF5F5A7FB0535E6
:1044C0006D094FF0640808FB1565ED003235A7FB58
:1044D00005356D096D0005F4F8754D44FEF73AFF9A
:1044E00000EB800000EB800066687600B0FBF6F61B
:1044F000FEF730FF00EB800000EB800063685B009C
:10450000B0FBF3F3A7FB03235B0908FB1363DB009A
:104510003233A7FB0337C7F3421723682F449F604A
:1045200053E0FEF717FF00EB800000EB80006568AA
:10453000AD00B0FBF5F5274FA7FB05356D092E0142
:10454000FEF708FF00EB800000EB80006568AD001F
:10455000B0FBF5F5FEF7FEFE00EB800000EB8000FF
:1045600063689B00B0FBF3F3A7FB03235B094FF0E9
:10457000640808FB13531B013233A7FB03235B09B9
:1045800003F0F003F518FEF7E5FE00EB800000EB0A
:1045900080006668B600B0FBF6F6FEF7DBFE00EBC7
:1045A000800000EB800063689B00B0FBF3F0A7FB8A
:1045B0000030400908FB106000013230A7FB0037D3
:1045C000C7F3431723682F449F60BDE8F88300BFFB
:1045D000001001401F85EB512DE9F84305460F46B9
:1045E00016469946DDF820802C68246837EA0403D3
:1045F0000CBF4FF0010C4FF0000CB4451FD1B8F1C7
:10460000FF3FF1D0B8F1000F05D0FDF7DFFEA0EBC2
:1046100009004045E8D92A68D36823F4D073D360F1
:104620002A68536923F001035361202385F8393048
:1046300085F83A30002385F83830032000E0002068
:10464000BDE8F883704758B310B5044690F8393088
:104650000BB3242384F839302268D36823F4005341
:10466000D3602046FFF724FE2268136923F49043A9
:1046700013612268536923F02A0353612268D368C7
:1046800043F40053D3600020E063202384F83930E2
:1046900084F83A3010BD80F83830FFF7D3FFD8E700
:1046A000012070472DE9F04182B01E4690F8393064
:1046B000DBB2202B55D104460D469046002954D03C
:1046C000002A54D090F83830012B52D0012380F8C2
:1046D00038300023C363212380F83930FDF776FE9C
:1046E0000746A4F82480A4F8268010E000963B46F4
:1046F000002280212046FFF76FFF00283BD12B8846
:104700002268C3F3080353602369CBB90235E38CF5
:104710009BB2BBB1E28C92B2013A92B2E284A3683E
:10472000B3F5805FE2D000963B4600228021204610
:10473000FFF752FF08BB15F8012B23685A60E6E724
:104740000135E4E700963B46002240212046FFF772
:1047500043FFA0B9202384F83930002384F838308F
:1047600000E0022002B0BDE8F0810120FAE701205C
:10477000F8E70220F6E70320F4E70320F2E703203E
:10478000F0E7704708B50168CA6822F04002CA60C5
:10479000202280F83920FFF7F4FF002008BD704781
:1047A00008B590F83A30DBB2222B46D18368B3F5D6
:1047B000805F0FD003690BBB03685A68836A591C7A
:1047C00081621A70C38D9BB2013B9BB2C385F3B16A
:1047D000002008BD826A036943B903685B68C3F3BC
:1047E00008031380836A02338362EBE703685B6824
:1047F000DBB21380836A01338362E3E703685B689B
:10480000826A511C816203F07F031370DAE7026849
:10481000D36823F02003D3600268D36823F4807345
:10482000D3600268536923F001035361202380F8A9
:104830003A30FFF7B4FF0020CBE70220C9E770470A
:1048400010B5044602681368D168526913F00F006E
:1048500005D113F0200F02D011F0200F13D128B191
:1048600012F0010213D111F4907F10D113F0800FD8
:1048700002D011F0800F69D113F0400F02D011F077
:10488000400F67D110BD2046FFF78AFFFAE713F00B
:10489000010F06D011F4807F03D0E06B40F00100DF
:1048A000E06313F0040F04D01AB1E06B40F0020093
:1048B000E06313F0020F04D01AB1E06B40F0040083
:1048C000E06313F0080F04D01AB1E26B42F0080263
:1048D000E263E26B002AD5D013F0200F02D011F072
:1048E000200F21D123685B6903F04003E26B12F0D3
:1048F000080F00D123B32046FFF799FC23685A69BB
:1049000012F0400F18D05A6922F040025A61636BCE
:1049100073B1124A1A65606BFEF7DDF80028B1D05A
:10492000606B036D9847ADE72046FFF739FFD9E785
:104930002046FFF784FFA5E72046FFF780FFA1E7A9
:104940002046FFF77CFF0023E3639BE72046FFF749
:104950007CFC97E72046FFF715FF93E761490008C5
:1049600008B5806B0023C385C384FFF768FF08BDCB
:1049700000F1080343604FF0FF328260C3600361BF
:1049800000230360704700230361704743684B6056
:104990009A688A6051609960086103680133036016
:1049A000704730B40D68B5F1FF3F11D000F1080336
:1049B0001C465B681A68AA42FAD963684B60996022
:1049C0008C606160086103680133036030BC70472C
:1049D0000469F2E70369416882688A60416851604E
:1049E0005A68824206D0002202611A68013A1A60AF
:1049F0001868704782685A60F5E782B00023019317
:104A00004FF0500383F31188BFF36F8FBFF34F8FC5
:104A1000019B002BFCD002B07047000008480068E2
:104A2000006880F308884FF0000080F3148862B6B5
:104A300061B6BFF34F8FBFF36F8F00DF00BF000081
:104A400008ED00E0DFF80C00016841F4700101603E
:104A50007047000088ED00E04FF0807340F8043CA0
:104A600021F0010140F8081C054B40F80C3C40F8CF
:104A7000202C6FF0020340F8243C4438704700BFFC
:104A8000FB490008000000000000000000000000DA
:104A9000074B19680868B0E8F04F80F30988BFF346
:104AA0006F8F4FF0000080F311887047AFF30080E4
:104AB000989A00204FF0500383F31188BFF36F8F53
:104AC000BFF34F8F024A136801331360704700BF72
:104AD00028000020034A1368013B13600BB983F3DD
:104AE000118870472800002000000000000000002E
:104AF000EFF30980BFF36F8F154B1A681EF0100F8C
:104B000008BF20ED108A20E9F04F10602DE9090060
:104B10004FF0500080F31188BFF34F8FBFF36F8FBA
:104B200000F0E4FC4FF0000080F3118809BC196824
:104B30000868B0E8F04F1EF0100F08BFB0EC108A04
:104B400080F30988BFF36F8F704700BFAFF3008019
:104B5000989A002008B54FF0500383F31188BFF3F3
:104B60006F8FBFF34F8F00F0B7FB28B14FF0E023FA
:104B70004FF08052C3F8042D002383F3118808BD41
:104B80004FF0E022002313619361054B1B68054938
:104B9000A1FB03139B09013B53610723136170477A
:104BA0001C000020D34D621038B54FF0E024D4F83B
:104BB000203D43F47003C4F8203DD4F8203D43F079
:104BC0007043C4F8203DFFF7DBFF0025084B1D6054
:104BD000FFF738FFD4F8343F43F04043C4F8343F84
:104BE000FFF71CFF00F082FCFFF707FF284638BDE7
:104BF00028000020124A12F0070F1ED0D11D21F00C
:104C00000701C1F5104313440A460E480260002113
:104C100041601344083B23F007030B4803605960CD
:104C20001960991A51601360084B1960084B19609C
:104C3000084B4FF000421A6070474FF41043E4E70E
:104C40007C0A0020909A0020780A0020849A002094
:104C5000809A00207C9A0020164B1A461B688342DB
:104C6000FBD3516802EB010C844509D0416800EB8D
:104C7000010C634509D00360904219D01060704761
:104C80004068014451601046F0E710B40A4C2468B3
:104C9000A3420BD05B681944416013681B68036032
:104CA000904200D010605DF8044B70470460F7E755
:104CB000704700BF909A0020780A002070B5054622
:104CC00000F002FB2A4B1B68A3B12A4B1B681D4254
:104CD00046D135B1083515F0070F02D025F007058C
:104CE0000835002D3ED0244B1B68AB423CD3234AF1
:104CF000146804E0FFF77EFFE7E722461C4663687E
:104D0000AB4202D22368002BF7D1194B1B68A34298
:104D10002CD0166808362368136063685B1B102B61
:104D200018D8626814490B689B1A0B60144909680B
:104D30008B4201D212490B600E4B1B681343636018
:104D4000002323600F4A13680133136000F044FB13
:104D5000304670BD601943606560FFF77DFFE0E796
:104D60000026F3E70026F1E70026EFE70026EDE74F
:104D7000780A00207C9A0020809A0020909A0020D7
:104D8000849A0020889A002018B338B50446A0F110
:104D9000080550F8043C0F4A1268134202D050F83C
:104DA000081C01B138BD23EA020340F8043C00F0BE
:104DB0008BFA54F8041C084A13680B441360284605
:104DC000FFF74AFF054A13680133136000F004FB44
:104DD000E8E770477C9A0020809A00208C9A002097
:104DE000084B1B681B6823B9074B4FF0FF321A6052
:104DF0007047044B1B68DB68DB685A68024B1A601B
:104E0000704700BF9C9A0020649D00202DE9F04768
:104E100007469846089DDDF824900A9C266B02F10F
:104E20008042013A06EB820626F0070600293AD0B6
:104E30008E464FF0000CBCF10F0F0BD81EF80C2063
:104E400004EB0C0383F834201EF80C3013B10CF182
:104E5000010CF0E7002384F843301F2D00D91F25F3
:104E6000E56265644FF0000AC4F848A0201DFFF712
:104E70008AFD04F11800FFF786FD2461C5F12005C5
:104E8000A5616462C4F84CA084F850A0424639463B
:104E90003046FFF7E1FD2060B9F1000F01D0C9F8FD
:104EA0000040BDE8F087002384F83430D5E70000E7
:104EB00038B5002407E004EB840293000E48184440
:104EC000FFF756FD01341F2CF5D90C4D2846FFF78E
:104ED0004FFD0B4C2046FFF74BFD0A48FFF748FDFE
:104EE0000948FFF745FD0948FFF742FD084B1D60E3
:104EF000084B1C6038BD00BFA49A0020389D0020DC
:104F00004C9D0020709D00209C9D0020889D0020CD
:104F10009C9A0020A09A002010B50446FFF7CAFD15
:104F2000214A136801331360204B1B685BB1204B8F
:104F30001B686BB91D4B1B68DA6AE36A9A4207D893
:104F40001A4B1C6004E0194B1C601368012B28D01D
:104F5000184A136801331360E06A01238340164A3C
:104F600011680B43136000EB8000211D134B03EB12
:104F70008000FFF70BFDFFF7ADFD0D4B1B687BB10C
:104F80000A4B1B68DA6AE36A9A4209D24FF0E023BF
:104F90004FF08052C3F8042DBFF34F8FBFF36F8FD4
:104FA00010BDFFF785FFD3E7249D0020989A0020CD
:104FB000849D0020309D0020349D0020A49A002074
:104FC00010B5044690F8513013B1012B07D010BD35
:104FD000006BFFF7D9FE2046FFF7D6FEF7E7FFF795
:104FE000D3FEF4E70F4B1B68D3B110B5FFF762FD9A
:104FF0000D4BDB68DC68201DFFF7ECFC0B4A1368E7
:10500000013B1360074A1368013B1360FFF762FD21
:105010002046FFF7D5FF034B1B68002BE6D110BDE0
:10502000704700BF289D00209C9D0020249D0020EB
:1050300008B5FFF7D7FF074B1B68012BF9D94FF0D5
:10504000E0234FF08052C3F8042DBFF34F8FBFF31E
:105050006F8FEEE7A49A002070B504460D461D4BF5
:105060001E681D4B18680430FFF7B4FC50B91A4B8A
:105070001B68DA6A012303FA02F218490B6823EA73
:1050800002030B60B4F1FF3F0DD03444124B1B6898
:105090005C60A64210D9124B18680F4B1968043196
:1050A000FFF77FFC70BD002DEFD00B4B196804316A
:1050B0000C48FFF76BFCF5E70B4B1868064B1968BB
:1050C0000431FFF76EFC094B1B68A342EAD9074B7A
:1050D0001C60E7E7B09D0020989A0020349D0020D6
:1050E000A09A0020889D00209C9A0020649D0020AA
:1050F00030B587B00B9D0C9C8CB185B12563022522
:1051000084F8515000250395029405AD01950A9D40
:105110000095FFF77BFE2046FFF7FEFE01E000232F
:105120000593059807B030BD2DE9F04385B00746DB
:10513000884614461E469000FFF7C0FD00B3814626
:105140005420FFF7BBFD0546B0B1C0F83090E5B183
:10515000002385F85130039302950D9B01930C9B1E
:1051600000933346224641463846FFF74FFE284615
:10517000FFF7D2FE012005E04846FFF705FEE6E70F
:105180004FF0FF3005B0BDE8F0834FF0FF30F9E796
:1051900038B50446FFF78EFC002C33D0251D284679
:1051A000FFF718FC68B9E26A02EB82039B00214911
:1051B000CB5833B9012393401F490A6822EA0302FE
:1051C0000A60A36A1BB104F11800FFF703FC1B4A35
:1051D0001368013313601A4B1B68A34215D0194A98
:1051E0001368013B13602046FFF7EAFEFFF7F8FD66
:1051F000FFF770FC144B1B681BB1114B1B68A342DB
:105200000CD038BD0E4B1C68C8E729460F48FFF785
:10521000BDFB0F4A136801331360E9E74FF0E02349
:105220004FF08052C3F8042DBFF34F8FBFF36F8F41
:10523000E7E700BFA49A0020349D0020309D0020A5
:10524000989A0020249D0020849D00209C9D002091
:10525000289D002010B588B000240594069407AA64
:1052600006A905A8FCF79AFC059B0293069B0193EF
:1052700000942346079A0E490E48FFF739FF0E4B5C
:10528000186090B14FF0500383F31188BFF36F8F14
:10529000BFF34F8F094B4FF0FF321A60084B0122CA
:1052A0001A60084B1C60FFF77FFC08B010BD00BF00
:1052B000C059000831500008609D0020649D002006
:1052C000849D0020B09D0020024A136801331360C2
:1052D000704700BF2C9D0020F8B5344B1B68002B95
:1052E0005DD1334B1E6801361E60AEB1314B1B6879
:1052F000B3424AD90027304B1B68DB6A03EB8303B8
:105300009A002E4B9B58012B00D901272C4B1B6870
:10531000002B49D0012747E02A4A11682A4B186818
:1053200010601960294A136801331360FFF758FDB4
:10533000DCE70127234B1B681B6843B3214B1B6829
:10534000DB68DC6863689E4226D3251D2846FFF78C
:1053500041FBA36A1BB104F11800FFF73BFBE36AB2
:1053600001229A401A49086802430A6003EB83034A
:105370009A00294611481044FFF708FBE26A0E4BD9
:105380001B68DB6A9A42D4D2D4E70027D2E7094BE4
:105390004FF0FF321A60AEE7064A1360ABE70D4AE2
:1053A00013680133136000273846F8BD2C9D002098
:1053B000B09D0020649D0020989A0020A49A0020AF
:1053C000B49D00209C9A0020A09A0020689D002097
:1053D000349D00206C9D002038B5FFF76BFB2E4BF1
:1053E0001A68013A1A601B68002B4FD12B4B1B68BF
:1053F0000BB900244BE00024294B1B681BB3284B3E
:10540000DB68DC6804F11800FFF7E4FA251D284684
:10541000FFF7E0FAE06A01238340224A11680B4358
:10542000136000EB800029461F4B03EB8000FFF761
:10543000ADFAE26A1D4B1B68DB6A9A42DCD31C4B57
:1054400001221A60D8E70CB1FFF7CAFC194B1C689F
:1054500084B9174B1C68D4B14FF0E0234FF0805251
:10546000C3F8042DBFF34F8FBFF36F8F01240EE0FD
:10547000013C07D0FFF730FF0028F9D00C4B012288
:105480001A60F5E70B4B00221A60E2E70024FFF7F1
:1054900021FB204638BD00BF2C9D0020249D00200C
:1054A000709D0020349D0020A49A0020989A00202E
:1054B000B49D00206C9D002010B550B94FF0E02342
:1054C0004FF08052C3F8042DBFF34F8FBFF36F8F9F
:1054D00010BD0446FFF7F8FE00212046FFF7BCFD93
:1054E000FFF77AFF0028F3D1E8E70000184B1B68AC
:1054F0001BB1184B01221A607047164B00221A602C
:10550000154B1B68B3FA83F3DBB2C3F11F031349D6
:1055100003EB830082000A4450684068506003EB4C
:10552000830C4FEA8C0208321144884209D003EB05
:1055300083039A00094B13445B68DA68084B1A60CE
:105540007047406862469100044A0A445060EEE7A2
:105550002C9D0020B49D0020349D0020A49A0020A2
:10556000989A0020054B1B6833B1054B1B680BB1A3
:10557000002070470220704701207047849D002062
:105580002C9D002070B50D4E0D4D761BB61006D02B
:10559000002455F8043B01349847A642F9D1094E3E
:1055A000094D761B00F0D4F8B61006D0002455F84B
:1055B000043B01349847A642F9D170BDD459000884
:1055C000D4590008DC590008D4590008830730B5C5
:1055D00048D0541E002A3FD0CAB2034601E0013C25
:1055E0003AD303F8012B9D07F9D1032C2DD9CDB265
:1055F00045EA05250F2C45EA054536D9A4F11002E8
:1056000022F00F0C03F1200EE6444FEA121C03F1C6
:10561000100242E9045542E9025510327245F8D1B0
:105620000CF1010214F00C0F03EB021204F00F0C4A
:1056300013D0ACF1040323F003030433134442F802
:10564000045B9342FBD10CF003042CB1CAB21C449E
:1056500003F8012B9C42FBD130BD64461346002C5D
:10566000F4D1F9E703461446BFE71A46A446E0E73B
:10567000024B13B1024800F005B87047000000006B
:1056800091560008002301461A46184600F01AB841
:1056900038B5084B084D5B1B9C1007D0043B1D44DC
:1056A000013C55F804399847002CF9D1BDE8384041
:1056B00000F054B8E0590008DC590008704700BFFA
:1056C000704700BF2DE9F047DFF880A00646DAF802
:1056D000000098460F469146FFF7F0FF1A4B1B68F3
:1056E000D3F8484124B365681F2D26DC5EB96B1CD6
:1056F0000235DAF80000636044F82570FFF7E0FF38
:105700000020BDE8F08704EB85010123C1F88890F3
:10571000D4F88821AB401A43022EC4F88821C1F87E
:105720000881E4D1D4F88C211343C4F88C31DEE72E
:1057300003F5A674C3F84841D5E7DAF80000FFF78F
:10574000BFFF4FF0FF30DCE7C859000858040020C5
:10575000F8B500BFF8BC08BC9E467047F8B500BF5E
:08576000F8BC08BC9E4670472E
:1057680000050301060402000000C90092015B0263
:105778002403ED03B6047F0548061107D907A208DC
:105788006A09330AFB0AC40B8C0C540D1C0EE30E79
:10579800AB0F72103A110112C8128F1355141C1551
:1057A800E215A8166E173318F918BE19821A471B86
:1057B8000B1CCF1C931D571E1A1FDD1F9F20612134
:1057C8002322E522A62367242825E825A82667277B
:1057D8002628E528A329612A1F2BDC2B992C552D77
:1057E800112ECC2E872F4130FB30B5316E32263347
:1057F800DF3396344D350436BA366F372438D93806
:105808008C39403AF23AA53B563C073DB83D683ED4
:10581800173FC53F73402141CE417A422543D043CB
:105828007A442445CD4575461C47C34769480F4906
:10583800B449584AFB4A9D4B3F4CE04C814D204EA1
:10584800BF4E5D4FFB4F97503351CE5168520253B4
:105858009B533254C9546055F5558A561D57B05755
:105868004258D3586459F359825A0F5B9C5B285CA1
:10587800B35C3E5DC75D4F5ED75E5D5FE35F6860AA
:10588800EB606E61F0617162F1627063EE636C648B
:10589800E8646365DD655666CF664667BC6732684F
:1058A800A66819698B69FD696D6ADC6A4A6BB76B12
:1058B800236C8E6CF86C616DC96D306E966EFB6EE4
:1058C8005E6FC16F22708370E27040719D71F971D3
:1058D8005472AE7207735E73B5730A745F74B274F0
:1058E80004755575A575F37541768D76D87622774A
:1058F8006B77B377FA773F788478C77809794A79EC
:105908008979C879057A417A7C7AB67AEE7A267BE3
:105918005C7B917BC57BF87B297C597C887CB67C39
:10592800E37C0E7D397D627D897DB07DD57DFA7DF4
:105938001D7E3E7E5F7E7E7E9C7EB97ED57EEF7E1E
:10594800097F217F377F4D7F617F747F867F977FB7
:10595800A67FB47FC17FCD7FD87FE17FE97FF07FCD
:10596800F57FF97FFD7FFE7F4C45445F5461736B83
:10597800000000004B45595F5461736B0000000044
:1059880050524F544F434F4C5F5461736B000000AB
:105998004170705461736B437265617465000000F7
:1059A80000000000000000000102030406070809C7
:1059B800000000000102030449444C4500000000B7
:0459C800300000208B
:0859CC00FCABFF7F01000000AD
:0859D40071560008B50100083E
:0459DC00910100082D
:1059E000010000003408000018000000CDCC4C3E3F
:1059F000AA005401000100000000A0400024F400AF
:105A00000100000010000000AAAAAAAA00000000DD
:105A1000000000001C03002084030020EC03002091
:105A20000000000000000000000000000000000076
:105A30000000000000000000000000000000000066
:105A40000000000000000000000000000000000056
:105A50000000000000000000000000000000000046
:105A60000000000000000000000000000000000036
:105A70000000000000000000000000000000000026
:105A80000000000000000000000000000000000016
:105A90000000000000000000000000000000000006
:105AA00000000000000000000000000000000000F6
:105AB00000000000000000000100000000000000E5
:105AC0000E33CDAB34126DE6ECDE05000B000000AA
